:020000040800F2
:10000000F8100020D5010008690A0008A1080008BE
:10001000650A0008F505000841130008000000000B
:10002000000000000000000000000000490C000873
:10003000F905000800000000F10A00085D0D000845
:10004000EF010008EF010008EF010008EF010008D0
:10005000EF010008EF010008FD050008EF010008AE
:10006000EF010008EF010008EF010008EF010008B0
:10007000EF010008EF010008EF010008EF010008A0
:10008000EF010008EF010008EF010008EF01000890
:10009000EF010008EF010008EF010008EF01000880
:1000A000EF010008EF010008EF010008EF01000870
:1000B000C10D0008450E0008EF010008EF0100081F
:1000C000EF010008EF010008EF010008EF01000850
:1000D000EF01000811100008EF0100089910000856
:1000E000EF010008EF010008EF010008EF01000830
:1000F000EF010008EF010008EF010008EF01000820
:10010000EF010008EF010008EF010008EF0100080F
:10011000EF010008EF010008EF010008EF010008FF
:10012000EF010008EF010008EF010008EF010008EF
:1001300000F002F800F03FF80AA090E8000C8244BA
:100140008344AAF10107DA4501D100F034F8AFF297
:10015000090EBAE80F0013F0010F18BFFB1A43F0A5
:1001600001031847B8140000D8140000103A24BF47
:1001700078C878C1FAD8520724BF30C830C144BF0C
:1001800004680C607047000000230024002500264E
:10019000103A28BF78C1FBD8520728BF30C148BFEA
:1001A0000B607047642900F04380002070471FB542
:1001B0001FBD10B510BD00F0C7F91146FFF7F7FFDE
:1001C00001F020F900F0E5F903B4FFF7F2FF03BCFA
:1001D00001F0BFF80948804709480047FEE7FEE7FD
:1001E000FEE7FEE7FEE7FEE7FEE7FEE7FEE7FEE7E7
:1001F00004480549054A064B70470000610D000898
:1002000031010008F80A0020F8100020F80C002046
:10021000F80C0020704700000FB4044910B503AA81
:10022000029800F07BF910BC5DF814FB1C00002064
:100230002DE9F0410646002410687529314616A5BF
:1002400010D0AFF30080002802DA404213A507E087
:1002500031688A0701D512A502E0490704D511A526
:10026000012401E0AFF3008000210A2206F12407F7
:1002700009E0B0FBF2FCB0FBF2F302FB1C003030F3
:1002800078541846491C0028F3D123462A463046A4
:10029000BDE8F04100F0D0B8000000002D000000E3
:1002A0002B000000200000002DE9F05F8946044685
:1002B0004FF0000ADFF874B1FB44C0F820A02046DC
:1002C000E1688847002874D0252806D0D4E90121A8
:1002D0009047206A401C2062F1E700265F462046D6
:1002E000E16888472028054607DB312D05D27819BB
:1002F00010F8200C08B10643F1E7B00701D526F04D
:100300000406C4F81CA00027C4F818A02A2D09D0A0
:10031000284601F017F838B304EB8708303DC8F8D9
:10032000185019E059F8041B204604EB870291612C
:10033000E1688847012F054618D1E069002820DAD6
:1003400026F020061DE0D8F8180000EB800005EB31
:1003500040003038C8F818002046E1688847054654
:1003600000F0F0FF0028EED1012F0AD02E2D08D189
:100370002046E16888477F1C0546022F46F020068C
:10038000C4DBA069002803DA404246F00106A06100
:10039000F00701D026F010066C2D0BD0682D09D087
:1003A0004C2D39D06A2D35D0742D35D07A2D33D0DF
:1003B00016E038E0E1682F4620468847B8420546F7
:1003C00009D16C2F26D04FF48060E16806432046A7
:1003D0008847054604E06C2F1AD04FF4807006431E
:1003E0000DB3A5F14100192802D8203546F4006666
:1003F0004A462946204626604E46FFF7D3FE80B186
:1004000001280BD0F61D26F0070000F1080956E779
:100410004020E4E78020D8E70020D6E706F1040971
:100420004DE7284652E7206ABDE8F09F4C130000D4
:1004300070477047704770472DE9F0470D46994661
:100440009246044600F124080168880604D5E06954
:1004500021F01001216000E00120A84201DD471BCE
:1004600000E00027A1697A1902EB0900081AA061CF
:100470002078C00602D42046AFF30080002608E0B2
:10048000D4E901211AF806009047206A401C761C26
:1004900020624E45F4DB2078C0060AD52046AFF333
:1004A000008006E0D4E9012130209047206A401CFA
:1004B0002062381EA7F10107F4DC07E0D4E901212E
:1004C00018F805009047206A401C2062281EA5F1FC
:1004D0000105F3DC2046AFF300802078000602D54A
:1004E0000220BDE8F0870120FBE7000001694A1CFB
:1004F00002610878704700B58FB0CDE90131002165
:10050000059105497944CDE9031011466846FFF786
:10051000CBFE0FB000BD0000E5FFFFFF074B70B53D
:100520000D467B44FFF7E7FF0446284600F008F835
:1005300010B14FF0FF3070BD204670BDC30E0000FB
:10054000007B00F080007047754600F02BF8AE4647
:1005500005006946534620F00700854618B020B5CF
:10056000FFF746FEBDE820404FF000064FF00007C1
:100570004FF000084FF0000B21F00701AC46ACE84B
:10058000C009ACE8C009ACE8C009ACE8C0098D46B8
:10059000704710B50446AFF300802046BDE8104018
:1005A000FFF712BE00487047980A002008B50121E5
:1005B000082000F0BFFA4FF48070ADF80000102062
:1005C0008DF8030003208DF802006946064800F00C
:1005D000CFF8012005490860642000F0DFFE00200C
:1005E0000349C1F8A00108BD000C0140A0812142CF
:1005F0000080214200BFFEE77047000010B503A055
:10060000FFF70AFE012000F043F810BD4558544999
:10061000305F49525148616E646C65720D0A00008A
:100620001FB50121042000F085FA0120ADF80C006F
:1006300028208DF80F0003208DF80E0003A9134821
:1006400000F096F80121084600F074FA00210846EF
:1006500000F06EF80120019000208DF808000C20B9
:100660008DF8090001A800F019F806208DF80000A7
:1006700002208DF8010003208DF8020001208DF882
:100680000300684600F0F2F91FBD000000080140B9
:10069000014908607047000014040140002123490B
:1006A0008279002A3AD00A46126803689A430B46B8
:1006B0001A600A1D126803689A430B1D1A600279BA
:1006C00011440A6803681A430A60184A083212681B
:1006D00003689A43154B08331A601A1D12680368A1
:1006E0009A43124B0C331A604279102A0ED11A1F0A
:1006F000126803681A430D4B08331A601A1D1268FA
:1007000003681A43094B0C331A600DE0074942791C
:1007100011440A6803681A430A6005E0027911442B
:100720000A6803689A430A607047000000040140A9
:1007300030B500228B071C0F0F2303FA04F20B4B7A
:100740008C1053F824309343084C8D1044F8253016
:1007500023468C1053F824308C07240F00FA04F43D
:100760002343024C8D1044F8253030BD0800014071
:100770002DE9F04102460025002600200023002438
:10078000002791F803C00CF00F0591F803C00CF09E
:10079000100CBCF1000F03D091F802C04CEA050523
:1007A00091F800C0BCF1000F31D0146800202BE09C
:1007B0004FF0010C0CFA00F3B1F800C00CEA03068C
:1007C0009E4220D183004FF00F0C0CFA03F7BC437C
:1007D00005FA03FC4CEA040491F803C0BCF1280FAD
:1007E00006D14FF0010C0CFA00FCC2F814C00AE06C
:1007F00091F803C0BCF1480F05D14FF0010C0CFA81
:1008000000FCC2F810C0401C0828D1D31460B1F815
:1008100000C0BCF1FF0F34DD546800202EE000F171
:10082000080C4FF0010808FA0CF3B1F800C00CEA0C
:1008300003069E4221D183004FF00F0C0CFA03F700
:10084000BC4305FA03FC4CEA040491F803C0BCF174
:10085000280F05D100F1080C08FA0CF8C2F8148032
:1008600091F803C0BCF1480F07D100F1080C4FF01C
:10087000010808FA0CF8C2F81080401C0828CED3F2
:100880005460BDE8F0810246002093680B400BB134
:10089000012000E00020704741617047016170470E
:1008A00000BFFEE708B50121402000F043F91C20FD
:1008B000ADF8000048208DF8030003208DF80200F9
:1008C00069460248FFF754FF08BD000000180140C8
:1008D00070B5044601210548FFF7D5FF05462A46B5
:1008E000214603A0FFF798FC70BD000000080140FE
:1008F0006B65793D25642025640D0A0010B5002440
:1009000030E01A48005D1A49095D88420AD017484C
:10091000005D18B91749085DFFF7DAFF1448005D5C
:1009200012490855144850F82400A0B1124850F854
:100930002400124951F82410884211D30D49085D52
:10094000FFF7C6FF0D4850F8240000F57A700B49F8
:1009500041F8240004E04FF47A70084941F824007B
:10096000601CC4B2042CCCDB10BD0000440000208D
:10097000380000203C000020240100204800002016
:1009800010B522480078012101EB40001F49087092
:1009900004211F48FFF777FF1C49497840EA4100CE
:1009A0001A49487008211A48FFF76DFF17498978DE
:1009B00040EA41001549887010211548FFF763FF90
:1009C0001249C97840EA41001049C87000241AE071
:1009D0000E48005D50B900200E4908550E4850F8E9
:1009E0002400001D0C4941F824000AE00748005D7E
:1009F000FF2806D10120074908550020064941F883
:100A00002400601CC4B2042CE2DB10BD40000020B6
:100A100000180140380000202401002008B5012101
:100A2000482000F087F82020ADF8000010208DF855
:100A3000030003208DF8020069460848FFF798FE7E
:100A400020210648FFF72AFF69460548FFF790FE78
:100A500020210348FFF720FF08BD0000000C0140E3
:100A60000018014000BFFEE77047000070B500218C
:100A700000230F22C47804B3154C246804F4E06406
:100A8000C4F5E064210AC1F10403CA40447804FAC1
:100A900003F184781440214309010E4C0678A155D6
:100AA000047804F01F050124AC4005786D11AD00F9
:100AB00005F1E025C5F8004109E0047804F01F05C0
:100AC0000124AC40044D0678761145F8264070BDEF
:100AD0000CED00E000E400E080E100E002490143A9
:100AE000024A1160704700000000FA050CED00E0BA
:100AF0007047000029B1064AD2690243044BDA610B
:100B000004E0034AD2698243014BDA617047000076
:100B10000010024029B1064A12690243044B1A61CF
:100B200004E0034A12698243014B1A6170470000D6
:100B30000010024029B1064A92690243044B9A61AF
:100B400004E0034A92698243014B9A6170470000B6
:100B50000010024029B1064AD2680243044BDA6011
:100B600004E0034AD2688243014BDA607047000018
:100B70000010024030B500210022002400232D4D3A
:100B80006D6805F00C0121B1042905D0082923D195
:100B900005E0294D056022E0274D05601FE0254D49
:100BA0006D6805F47012234D6D6805F480340225DC
:100BB00005EB92421CB9214D554305600BE01D4DDC
:100BC0006D6805F400351DB11C4D5543056002E00C
:100BD000194D5543056002E0174D056000BF00BF89
:100BE000144D6D6805F0F0010909154D6B5C056841
:100BF000DD4045600F4D6D6805F4E061090A104D58
:100C00006B5C4568DD4085600A4D6D6805F4605198
:100C1000C90A0B4D6B5C4568DD40C560054D6D68CC
:100C200005F44041890B074D6B5CC568B5FBF3F5D6
:100C3000056130BD0010024000127A0000093D003D
:100C40002200002032000020704710B500F002F8AA
:100C500010BD00000CB500200190009033480068E2
:100C600040F480303149086000BF3048006800F42B
:100C7000003000900198401C0190009818B901982C
:100C8000B0F5A06FF1D12948006800F4003010B130
:100C90000120009001E0002000900098012843D13D
:100CA0002348006840F010002149086008460068A9
:100CB00020F0030008600846006840F00200086069
:100CC0001A48406819494860084640684860084624
:100CD000406840F4806048600846406820F47C101A
:100CE00048600846406840F4E810486008460068DC
:100CF00040F08070086000BF0C48006800F0007091
:100D00000028F9D00948406820F0030007494860EE
:100D10000846406840F00200486000BF0348406851
:100D200000F00C000828F9D10CBD000000100240B2
:100D300000200240042808D14FF0E021096941F069
:100D400004014FF0E022116107E04FF0E021096952
:100D500021F004014FF0E02211617047704700005C
:100D600010B51348006840F00100114908600846BA
:100D70004068104908400E494860084600680E491E
:100D800008400B4908600846006820F4802008608D
:100D90000846406820F4FE0048604FF41F00886059
:100DA000FFF753FF4FF000600449086010BD0000DA
:100DB000001002400000FFF8FFFFF6FE08ED00E023
:100DC00010B50121880700F0A0F870B1074800882D
:100DD00040F40040054908800121880700F086F8AA
:100DE00000214FF0804000F084F810BD5A00002030
:100DF0007FB505460C4601210846FFF77BFEADF89E
:100E00000450ADF800400020ADF80600ADF8020037
:100E100069464FF0804000F095F801221146900796
:100E200000F084F81C208DF80C0000208DF80D00D7
:100E300001208DF80E008DF80F0003A8FFF716FEB5
:100E40007FBD000010B501210D4800F05EF80128BB
:100E500011D10C480088401C0A490880FFF790FD1A
:100E600008480088B0F57A7F05DB00200549088036
:100E70000120054908700121014800F037F810BD34
:100E80000004004058000020000000207FB5054607
:100E90000C4601210220FFF72DFEADF80850ADF8F9
:100EA00004400020ADF80600ADF80A0001A90E4884
:100EB00000F048F8012211460B4800F037F81D20D9
:100EC0008DF8000001208DF8010003208DF802004C
:100ED00001208DF803006846FFF7C8FD0121024894
:100EE00000F007F87FBD000000040040CA43028202
:100EF000704721B1028842F00102028004E00288BA
:100F00004FF6FE731A400280704730B5024600204B
:100F100000230024158A05EA0103958905EA0104E6
:100F200013B10CB1012000E0002030BD1AB183895B
:100F30000B43838102E083898B43838170478184E3
:100F400070470000002202881D4B98420ED01D4BB6
:100F500098420BD0B0F1804F08D01B4B984205D07F
:100F60001A4B984202D01A4B984204D14FF68F7315
:100F70001A404B881A43174B984207D0164B984299
:100F800004D04FF6FF431A40CB881A4302808B8867
:100F900083850B8803850A4B98420BD0094B9842F6
:100FA00008D00E4B984205D00D4B984202D00D4B05
:100FB000984201D10B7A0386012383827047000097
:100FC000002C0140003401400004004000080040B3
:100FD000000C0040001000400014004000400140A0
:100FE000004401400048014010B50748008800F463
:100FF000004040B1054B9A785978187800F09FF975
:1010000000200149088010BD5A000020E80500209A
:1010100010B540F225511D4800F0D0F810B31B4820
:1010200000F088F9C4B21A48008800F40040C8B93A
:101030001748008800F4804060B10A2C03D00020DB
:101040001349088020E01248008840F4004010490D
:10105000088019E00D2C06D10D48008840F480402E
:101060000B49088010E00A480088C0F30D000949C8
:101070000C5407480088401C054908800846008831
:10108000C72801DD0020088010BD000000380140A5
:10109000200000205C00002010B540F225511748C8
:1010A00000F08CF808B3154800F044F9C4B21448B5
:1010B000008800F40040C0B911480088B0F5966F70
:1010C00014DA00214FF08040FFF739FF0C48008808
:1010D00018B901218807FFF70CFF0948018800882B
:1010E000401C074A10800748445405E00448008823
:1010F00040F400400249088010BD00000048004054
:101100005A000020E805002021B1828942F40052F3
:10111000828104E082894DF6FF731A408281704714
:1011200010B504462048844209D101218803FFF705
:1011300011FD00214FF48040FFF70CFD32E01B4809
:10114000844209D101214804FFF7E4FC00214FF457
:101150000030FFF7DFFC25E01548844209D101216A
:101160008804FFF7D7FC00214FF48020FFF7D2FC62
:1011700018E01048844209D10121C804FFF7CAFCD5
:1011800000214FF40020FFF7C5FC0BE00A48844221
:1011900008D101210805FFF7BDFC00214FF48010A4
:1011A000FFF7B8FC10BD00000038014000440040CB
:1011B00000480040004C00400050004070B502461E
:1011C000002400230025002040F66A16B14200D119
:1011D00000BFC1F3421501F01F03012606FA03F315
:1011E000012D02D19689334006E0022D02D1168AE4
:1011F000334001E0968A33400C12012606FA04F4CB
:101200001688344013B10CB1012000E0002070BDFD
:10121000F0B50346002400260025002040F66A179A
:10122000B94200D100BF1846C1F3421401F01F06B5
:10123000012707FA06F5012C01D10C3004E0022C3D
:1012400001D1103000E014301AB107682F43076055
:1012500002E00768AF430760F0BD00002DE9F047EA
:1012600086B005460E460024A24600BFA1460027D0
:10127000B08900B100BF2F462C8A4CF6FF700440A5
:10128000F08804432C82AC894EF6F3100440B088F9
:1012900031890843718908430443AC81AC8A4FF615
:1012A000FF400440B0890443AC8201A8FFF762FC10
:1012B0001F48874202D1DDF810A001E0DDF80CA044
:1012C000A88900F4004040B10AEBCA0000EB0A1004
:1012D00031684900B0FBF1F807E00AEBCA0000EB07
:1012E0000A1031688900B0FBF1F86420B8FBF0F017
:1012F00004012009642101FB1089A88900F4004041
:1013000040B1322000EBC900B0FBF1F000F0070063
:10131000044308E0322000EB09106421B0FBF1F037
:1013200000F00F0004432C8106B0BDE8F0870000F8
:101330000038014001468888C0F3080070477047B4
:1013400000BFFEE730380A2801D201207047002094
:101350007047014600BF704710B56FF00400FFF7FB
:10136000E9FC0A4800680A49B0FBF1F00949087035
:101370000846007800EB4001C1EBC0104FF6FF714A
:1013800001EAC0000449088010BD000004000020EC
:1013900000127A00180000201A0000200146114AAD
:1013A00012884A434FF0E0235A6100229A611A469C
:1013B000126942F001021A6100BF4FF0E022106989
:1013C00000F001021AB100F48032002AF5D04FF08B
:1013D000E022126922F001024FF0E0231A6100229C
:1013E0009A6170471A00002000BF054A128802F077
:1013F0004002002AF9D0C2B2014B1B1D1A8070476F
:101400000038014000244FF4A060FFF767FBFFF7AE
:10141000A3FFFFF7CBF84FF4E13000F03DF84FF4B5
:10142000E13000F089F8FFF7F9FAFFF73BFAFFF730
:10143000F7F841F61F410920FFF728FD1FE0FFF7ED
:101440005DFAFFF7D1FD0E480078C0B100200C49CD
:1014500008700C48006808B9012000E00020094924
:1014600008600948D0F8940108B9012000E0002084
:1014700006490860641C214605A0FEF7CDFEDEE7A4
:101480000000002094812142000023429401234265
:1014900025640D0A0000000010B586B00446012145
:1014A00044F20400FFF746FB4FF40070ADF814005F
:1014B00003208DF8160018208DF8170005A91C4888
:1014C000FFF756F94FF48060ADF8140004208DF852
:1014D000170005A91648FFF74BF925208DF80000E5
:1014E00003208DF801008DF8020001208DF8030023
:1014F0006846FFF7BBFA01940020ADF80800ADF88C
:101500000A00ADF80C00ADF810000C20ADF80E008C
:1015100001A90848FFF7A2FE012240F22551054823
:10152000FFF776FE01210348FFF7EEFD06B010BD80
:10153000000801400038014010B586B00446012182
:101540000920FFF7F7FA01218804FFF7D3FA2B48A7
:10155000FFF7E6FD4FF48060ADF8100003208DF832
:10156000120018208DF8130004A92548FFF700F990
:101570004FF40060ADF8100004208DF8130004A9AA
:101580001F48FFF7F5F800940020ADF80400ADF80F
:101590000600ADF80800ADF80C000C20ADF80A000C
:1015A00069461648FFF75AFE01211448FFF7ACFDC3
:1015B000012240F225511148FFF72AFE27208DF81D
:1015C000140002208DF8150003208DF8160001206C
:1015D0008DF8170005A8FFF749FA41F61F4140F2C0
:1015E000E730FFF705FC00200649088000214FF096
:1015F0008040FFF77EFC06B010BD000000480040B0
:10160000000C01405A000020040000080000000007
:101610000000000200010000100000003C1600085D
:10162000000000205C0000006C0100089816000813
:101630005C0000209C1000008801000800000000F1
:1016400000A24A04000000000000000001020304A0
:10165000060708090000000000000000000000006C
:101660000000010203040102030406070809020442
:10167000060800000101010101020304FFFFFFFF52
:101680000101010188130000881300008813000085
:081690008813000000000000B7
:0400000508000131BD
:00000001FF
