:020000040800F2
:10000000B810002045010008E9090008D5070008DC
:10001000E509000801020008911300080000000033
:10002000000000000000000000000000990C000823
:100030007502000800000000410B0008AD0D00082B
:100040005F0100085F0100085F0100085F01000810
:100050005F0100085F010008310500085F0100082A
:100060005F0100085F0100085F0100085F010008F0
:100070005F0100085F0100085F0100085F010008E0
:100080005F0100085F0100085F0100085F010008D0
:100090005F0100085F0100085F0100085F010008C0
:1000A0005F0100085F0100085F0100085F010008B0
:1000B000110E0008950E00085F0100085F0100089E
:1000C0005F0100085F0100085F0100085F01000890
:1000D0005F010008611000085F010008E9100008D6
:1000E0005F0100085F0100085F0100085F01000870
:1000F0005F0100085F0100085F0100085F01000860
:100100005F0100085F0100085F0100085F0100084F
:100110005F0100085F0100085F0100085F0100083F
:100120005F0100085F0100085F0100085F0100082F
:10013000DFF80CD000F02EF80048004789160008C0
:10014000B81000200648804706480047FEE7FEE753
:10015000FEE7FEE7FEE7FEE7FEE7FEE7FEE7FEE777
:10016000B10D00083101000830B50B4601460020F2
:100170002022012409E021FA02F59D4205D303FA69
:1001800002F5491B04FA02F52844151EA2F10102EA
:10019000F1DC30BD064C074D06E0E06840F001039D
:1001A00094E8070098471034AC42F6D3FFF7C4FF39
:1001B000009001082090010808B50121082000F0F6
:1001C000E1FC4FF48070ADF8000010208DF80300C2
:1001D00003208DF802006946064800F063FA01200A
:1001E00005490860642001F0F3F900200349C1F8D3
:1001F000A00108BD000C0140A081214200802142E5
:1002000000BFFEE70020044908600449C1F88801E6
:100210000149091D086070478C81234200802342F8
:100220000020054908600549C1F8880101200249FC
:10023000091D0860002070478C8123420080234202
:100240000146802011E00022094B1A6001EA0002F9
:100250001AB101221B1F1A6003E00022044B1B1F6E
:100260001A600122024B1A6040100028EBD170473F
:1002700084812342704710B500F0E0F8012000F0BF
:10028000F7F8072000F008F9072000F005F93F20F3
:1002900000F002F93F2000F0FFF8042000F0E8F839
:1002A000642001F095F900F00DF9002000F0E0F86D
:1002B0001F2000F0F1F8612000F0DAF8032000F0D0
:1002C000EBF8202000F0E8F8012000F0E5F8E0204D
:1002D00000F0E2F8152000F0CBF8002000F0DCF888
:1002E000502000F0C5F8102000F0D6F8072000F0EC
:1002F000D3F8602000F0BCF8222000F0CDF80020F8
:1003000010BD10B5022000F0B3F800F0DBF80720B4
:1003100000F0AEF8A52000F0BFF810BD10B5122017
:1003200000F0A6F8642001F053F900F0CBF810BDFE
:100330002DE9F04707460D464FF064084FF4F07979
:1003400015B9132000F094F800240CE0002607E013
:1003500004FB0861795CC943C8B200F09DF8761CC3
:100360004645F5D3641CB4EB590FEFD3012D01D1F1
:10037000FFF7D4FFBDE8F087F8B5FFF751FF10B1E4
:100380004FF0FF30F8BDFFF776FF4FF4FA7001F041
:100390001FF94BF6803404EBD471481001F0C2F918
:1003A000051E04D115A000F0F5FF681EEAE7FF2046
:1003B0000023F0224FF448710090284600F076FBAD
:1003C000284600F0B7FB174800F052FB00212846F2
:1003D000FFF7AEFF144800F04BFB01212846FFF762
:1003E000A7FF12A000F0D6FFFFF78BFF284601F011
:1003F00023F90025FFF706FF0020C3E74661696C7B
:10040000656420746F206170706C7920666F722053
:10041000626C61636B206D656D6F72792E2E2E0D8F
:100420000A00000080D4000840320108476F746F52
:1004300020536C6565702E2E2E0D0A0010B501201C
:1004400009490860C82001F0C3F800200749C1F835
:100450009001022001F0BCF8012003490860C82087
:1004600001F0B6F810BD00009081234200802342C5
:1004700010B504460020064908600649C1F8880105
:100480002046FFF7DDFE01200149091F086010BD6D
:100490008C8123420080234210B504460120074985
:1004A000086000200649C1F888012046FFF7C8FE11
:1004B00001200249091F086010BD00008C81234201
:1004C0000080234210B50BA000F064FF00BF712034
:1004D000FFF7CEFF0D480068C4B204F0010080F0C1
:1004E0000104002CF3D1C82001F072F808A000F03C
:1004F00051FF10BD44656275673A20652D506170EB
:10050000657220627573790D0A0000001481234220
:1005100044656275673A20652D506170657220628E
:100520007573792072656C656173650D0A00000052
:1005300010B503A000F02EFF012000F043F810BD1D
:1005400045585449305F49525148616E646C657238
:100550000D0A00001FB50121042000F013FB01204B
:10056000ADF80C0028208DF80F0003208DF80E0048
:1005700003A9134800F096F80121084600F002FB99
:100580000021084600F06EF80120019000208DF84F
:1005900008000C208DF8090001A800F019F80620C9
:1005A0008DF8000002208DF8010003208DF8020074
:1005B00001208DF80300684600F018FA1FBD000006
:1005C0000008014001490860704700001404014020
:1005D000002123498279002A3AD00A46126803682A
:1005E0009A430B461A600A1D126803689A430B1D52
:1005F0001A60027911440A6803681A430A60184AAB
:100600000832126803689A43154B08331A601A1DA2
:10061000126803689A43124B0C331A604279102A0D
:100620000ED11A1F126803681A430D4B08331A6063
:100630001A1D126803681A43094B0C331A600DE047
:100640000749427911440A6803681A430A6005E0C1
:10065000027911440A6803689A430A6070470000EF
:100660000004014030B500228B071C0F0F2303FA52
:1006700004F20B4B8C1053F824309343084C8D102C
:1006800044F8253023468C1053F824308C07240F6F
:1006900000FA04F42343024C8D1044F8253030BD99
:1006A000080001402DE9F041024600250026002007
:1006B00000230024002791F803C00CF00F0591F8E7
:1006C00003C00CF0100CBCF1000F03D091F802C075
:1006D0004CEA050591F800C0BCF1000F31D0146858
:1006E00000202BE04FF0010C0CFA00F3B1F800C031
:1006F0000CEA03069E4220D183004FF00F0C0CFA47
:1007000003F7BC4305FA03FC4CEA040491F803C068
:10071000BCF1280F06D14FF0010C0CFA00FCC2F816
:1007200014C00AE091F803C0BCF1480F05D14FF0A6
:10073000010C0CFA00FCC2F810C0401C0828D1D3F0
:100740001460B1F800C0BCF1FF0F34DD5468002024
:100750002EE000F1080C4FF0010808FA0CF3B1F894
:1007600000C00CEA03069E4221D183004FF00F0C1B
:100770000CFA03F7BC4305FA03FC4CEA040491F8B5
:1007800003C0BCF1280F05D100F1080C08FA0CF8E1
:10079000C2F8148091F803C0BCF1480F07D100F1F2
:1007A000080C4FF0010808FA0CF8C2F81080401C41
:1007B0000828CED35460BDE8F0810246002093683B
:1007C0000B400BB1012000E00020704741617047F1
:1007D0000161704700BFFEE708B50121402000F02D
:1007E000D1F91C20ADF8000048208DF8030003204B
:1007F0008DF8020069460248FFF754FF08BD00006B
:100800000018014070B5044601210548FFF7D5FFE7
:1008100005462A46214603A000F0BCFD70BD00003D
:10082000000801406B65793D25642025640D0A00B0
:1008300010B5002430E01A48005D1A49095D88426D
:100840000AD01748005D18B91749085DFFF7DAFFAD
:100850001448005D12490855144850F82400A0B10E
:10086000124850F82400124951F82410884211D33C
:100870000D49085DFFF7C6FF0D4850F8240000F54C
:100880007A700B4941F8240004E04FF47A7008496B
:1008900041F82400601CC4B2042CCCDB10BD000065
:1008A00044000020380000203C0000202C010020E3
:1008B0004800002010B522480078012101EB4000DB
:1008C0001F49087004211F48FFF777FF1C4949782A
:1008D00040EA41001A49487008211A48FFF76DFFA5
:1008E0001749897840EA4100154988701021154858
:1008F000FFF763FF1249C97840EA41001049C87008
:1009000000241AE00E48005D50B900200E49085539
:100910000E4850F82400001D0C4941F824000AE05C
:100920000748005DFF2806D101200749085500202F
:10093000064941F82400601CC4B2042CE2DB10BD5F
:100940004000002000180140380000202C01002049
:1009500008B50121482000F015F92020ADF800006D
:1009600010208DF8030003208DF802006946084826
:10097000FFF798FE20210648FFF72AFF6946054841
:10098000FFF790FE20210348FFF720FF08BD00007D
:10099000000C01400018014008B50121802000F042
:1009A000F1F80F20ADF8000010208DF803000320AF
:1009B0008DF8020069460A48FFF774FE1020ADF872
:1009C000000069460648FFF76DFE2020ADF80000E4
:1009D00004208DF8030069460148FFF763FE08BD57
:1009E000001C014000BFFEE77047000070B5002109
:1009F00000230F22C47804B3154C246804F4E06487
:100A0000C4F5E064210AC1F10403CA40447804FA41
:100A100003F184781440214309010E4C0678A15556
:100A2000047804F01F050124AC4005786D11AD0079
:100A300005F1E025C5F8004109E0047804F01F0540
:100A40000124AC40044D0678761145F8264070BD6F
:100A50000CED00E000E400E080E100E00249014329
:100A6000024A1160704700000000FA050CED00E03A
:100A700030B502460023002111E0002009E00A4CB5
:100A8000648A01FB0403D45C074D2D68EC54441CBC
:100A9000A0B2054C648A8442F1DC4C1CA1B2024C29
:100AA000A48A8C42E9DC30BDA00A00202DE9F04187
:100AB0000646069F00201E4C2060204606600181ED
:100AC000428187810220E0820C464FEAE17C01EB03
:100AD0005C7C4FEAEC0CA1EBCC0CBCF1000F07D115
:100AE0000D464FEAE57C05EB5C7C4FEAEC0C08E038
:100AF00008464FEAE17C01EB5C7C4FEAEC0C0CF120
:100B0000010CDFF82C80A8F812C040468282C38115
:100B10000020444620820BB1B42B03D104488180CD
:100B2000C28002E002488280C180BDE8F0810000FE
:100B3000A00A00200149086070470000A00A0020B8
:100B40007047000029B1064AD2690243044BDA61BA
:100B500004E0034AD2698243014BDA617047000026
:100B60000010024029B1064A12690243044B1A617F
:100B700004E0034A12698243014B1A617047000086
:100B80000010024029B1064A92690243044B9A615F
:100B900004E0034A92698243014B9A617047000066
:100BA0000010024029B1064AD2680243044BDA60C1
:100BB00004E0034AD2688243014BDA6070470000C8
:100BC0000010024030B500210022002400232D4DEA
:100BD0006D6805F00C0121B1042905D0082923D145
:100BE00005E0294D056022E0274D05601FE0254DF9
:100BF0006D6805F47012234D6D6805F4803402258C
:100C000005EB92421CB9214D554305600BE01D4D8B
:100C10006D6805F400351DB11C4D5543056002E0BB
:100C2000194D5543056002E0174D056000BF00BF38
:100C3000144D6D6805F0F0010909154D6B5C0568F0
:100C4000DD4045600F4D6D6805F4E061090A104D07
:100C50006B5C4568DD4085600A4D6D6805F4605148
:100C6000C90A0B4D6B5C4568DD40C560054D6D687C
:100C700005F44041890B074D6B5CC568B5FBF3F586
:100C8000056130BD0010024000127A0000093D00ED
:100C90002200002032000020704710B500F002F85A
:100CA00010BD00000CB50020019000903348006892
:100CB00040F480303149086000BF3048006800F4DB
:100CC000003000900198401C0190009818B90198DC
:100CD000B0F5A06FF1D12948006800F4003010B1E0
:100CE0000120009001E0002000900098012843D1ED
:100CF0002348006840F01000214908600846006859
:100D000020F0030008600846006840F00200086018
:100D10001A484068194948600846406848600846D3
:100D2000406840F4806048600846406820F47C10C9
:100D300048600846406840F4E8104860084600688B
:100D400040F08070086000BF0C48006800F0007040
:100D50000028F9D00948406820F00300074948609E
:100D60000846406840F00200486000BF0348406801
:100D700000F00C000828F9D10CBD00000010024062
:100D800000200240042808D14FF0E021096941F019
:100D900004014FF0E022116107E04FF0E021096902
:100DA00021F004014FF0E02211617047704700000C
:100DB00010B51348006840F001001149086008466A
:100DC0004068104908400E494860084600680E49CE
:100DD00008400B4908600846006820F4802008603D
:100DE0000846406820F4FE0048604FF41F00886009
:100DF000FFF753FF4FF000600449086010BD00008A
:100E0000001002400000FFF8FFFFF6FE08ED00E0D2
:100E100010B50121880700F0A0F870B107480088DC
:100E200040F40040054908800121880700F086F859
:100E300000214FF0804000F084F810BD5A000020DF
:100E40007FB505460C4601210846FFF77BFEADF84D
:100E50000450ADF800400020ADF80600ADF80200E7
:100E600069464FF0804000F095F801221146900746
:100E700000F084F81C208DF80C0000208DF80D0087
:100E800001208DF80E008DF80F0003A8FFF7AEFDCE
:100E90007FBD000010B501210D4800F05EF801286B
:100EA00011D10C480088401C0A490880FFF702FD58
:100EB00008480088B0F57A7F05DB002005490880E6
:100EC0000120054908700121014800F037F810BDE4
:100ED0000004004058000020000000207FB50546B7
:100EE0000C4601210220FFF72DFEADF80850ADF8A9
:100EF00004400020ADF80600ADF80A0001A90E4834
:100F000000F048F8012211460B4800F037F81D2088
:100F10008DF8000001208DF8010003208DF80200FB
:100F200001208DF803006846FFF760FD01210248AB
:100F300000F007F87FBD000000040040CA430282B1
:100F4000704721B1028842F00102028004E0028869
:100F50004FF6FE731A400280704730B502460020FB
:100F600000230024158A05EA0103958905EA010496
:100F700013B10CB1012000E0002030BD1AB183890B
:100F80000B43838102E083898B4383817047818493
:100F900070470000002202881D4B98420ED01D4B66
:100FA00098420BD0B0F1804F08D01B4B984205D02F
:100FB0001A4B984202D01A4B984204D14FF68F73C5
:100FC0001A404B881A43174B984207D0164B984249
:100FD00004D04FF6FF431A40CB881A4302808B8817
:100FE00083850B8803850A4B98420BD0094B9842A6
:100FF00008D00E4B984205D00D4B984202D00D4BB5
:10100000984201D10B7A0386012383827047000046
:10101000002C014000340140000400400008004062
:10102000000C00400010004000140040004001404F
:10103000004401400048014010B50748008800F412
:10104000004040B1054B9A785978187800F09FF924
:1010500000200149088010BD5A000020F005002042
:1010600010B540F225511D4800F0D0F810B31B48D0
:1010700000F088F9C4B21A48008800F40040C8B9EA
:101080001748008800F4804060B10A2C03D000208B
:101090001349088020E01248008840F400401049BD
:1010A000088019E00D2C06D10D48008840F48040DE
:1010B0000B49088010E00A480088C0F30D00094978
:1010C0000C5407480088401C0549088008460088E1
:1010D000C72801DD0020088010BD00000038014055
:1010E000200000206400002010B540F22551174870
:1010F00000F08CF808B3154800F044F9C4B2144865
:10110000008800F40040C0B911480088B0F5966F1F
:1011100014DA00214FF08040FFF739FF0C480088B7
:1011200018B901218807FFF70CFF094801880088DA
:10113000401C074A10800748445405E004480088D2
:1011400040F400400249088010BD00000048004003
:101150005A000020F005002021B1828942F400529B
:10116000828104E082894DF6FF731A4082817047C4
:1011700010B504462048844209D101218803FFF7B5
:1011800011FD00214FF48040FFF70CFD32E01B48B9
:10119000844209D101214804FFF7E4FC00214FF407
:1011A0000030FFF7DFFC25E01548844209D101211A
:1011B0008804FFF7D7FC00214FF48020FFF7D2FC12
:1011C00018E01048844209D10121C804FFF7CAFC85
:1011D00000214FF40020FFF7C5FC0BE00A488442D1
:1011E00008D101210805FFF7BDFC00214FF4801054
:1011F000FFF7B8FC10BD000000380140004400407B
:1012000000480040004C00400050004070B50246CD
:10121000002400230025002040F66A16B14200D1C8
:1012200000BFC1F3421501F01F03012606FA03F3C4
:10123000012D02D19689334006E0022D02D1168A93
:10124000334001E0968A33400C12012606FA04F47A
:101250001688344013B10CB1012000E0002070BDAD
:10126000F0B50346002400260025002040F66A174A
:10127000B94200D100BF1846C1F3421401F01F0665
:10128000012707FA06F5012C01D10C3004E0022CED
:1012900001D1103000E014301AB107682F43076005
:1012A00002E00768AF430760F0BD00002DE9F0479A
:1012B00086B005460E460024A24600BFA146002780
:1012C000B08900B100BF2F462C8A4CF6FF70044055
:1012D000F08804432C82AC894EF6F3100440B088A9
:1012E00031890843718908430443AC81AC8A4FF6C5
:1012F000FF400440B0890443AC8201A8FFF762FCC0
:101300001F48874202D1DDF810A001E0DDF80CA0F3
:10131000A88900F4004040B10AEBCA0000EB0A10B3
:1013200031684900B0FBF1F807E00AEBCA0000EBB6
:101330000A1031688900B0FBF1F86420B8FBF0F0C6
:1013400004012009642101FB1089A88900F40040F0
:1013500040B1322000EBC900B0FBF1F000F0070013
:10136000044308E0322000EB09106421B0FBF1F0E7
:1013700000F00F0004432C8106B0BDE8F0870000A8
:101380000038014001468888C0F308007047704764
:1013900000BFFEE70FB4054B10B503A9044A02983D
:1013A00000F018F810BC5DF814FB00001D160008D2
:1013B0001C00002002E008C8121F08C1002AFAD150
:1013C00070477047002001E001C1121F002AFBD1C5
:1013D000704700002DE9FF4F8BB09A460F46054637
:1013E000002606E025280BD052460D9990476D1C2B
:1013F000761C28780028F5D10FB03046BDE8F08F74
:101400000024A0460122604900E0044315F8013F92
:10141000203B02FA03F00842F7D128782E2817D192
:1014200015F8010F44F004042A280ED06FF02F02A3
:101430002878A0F1300109290AD808EB880102EBCD
:10144000410100EB01086D1CF2E757F8048B6D1C9D
:10145000287869283ED006DC0028CDD063280BD040
:10146000642804D136E0732810D075284BD052463A
:101470000D999047761C85E017F8040B8DF8000055
:1014800000208DF80100E946012003E057F8049B95
:101490004FF0FF3061074FF0000401D40AE0641CF4
:1014A00044450DDA8442FADB19F804100029F6D11C
:1014B00006E0641C8442FCDB19F804100029F8D112
:1014C000264404E019F8010B52460D999047641E1A
:1014D000F8D257E001CF4FF00A0B002802DA404261
:1014E0002D2102E0210504D52B218DF824100121A6
:1014F00003E0E10705D02021F7E70DF1200908916D
:101500000CE00021F9E701CF4FF00A0BF9E759464B
:10151000FEF72AFE01F1300209F8012D0028F6D16C
:10152000ADEB090000F1200B600701D44FF001087A
:10153000D84502DDA8EB0B0000E000208046002427
:1015400006E009A85246005D0D999047641C761C80
:1015500008988442F5DB04E0302052460D9990470C
:10156000761CB8F10001A8F10108F5DC05E019F8D6
:10157000010B52460D999047761CBBF10001ABF16F
:10158000010BF4DC6D1C34E70928010010B56FF085
:101590000400FFF7F7FB0A4800680A49B0FBF1F0C6
:1015A000094908700846007800EB4001C1EBC01003
:1015B0004FF6FF7101EAC0000449088010BD000029
:1015C0000400002000127A00180000201A000020F9
:1015D0000146114A12884A434FF0E0235A61002223
:1015E0009A611A46126942F001021A6100BF4FF077
:1015F000E022106900F001021AB100F48032002AE2
:10160000F5D04FF0E022126922F001024FF0E02302
:101610001A6100229A6170471A00002000BF054A33
:10162000128802F04002002AF9D0C2B2014B1B1D01
:101630001A8070470038014010B5002821D0114BA6
:101640000022001F196803E0814203D80A46496856
:101650000029F9D152B11368841A9C4204D1006860
:1016600018441060104602E0506000E0186039B184
:1016700002680B1A934203D10B681A44026049684E
:10168000416010BD5C00002000244FF4A060FFF713
:10169000E5F9FFF77BFFFEF78FFD4FF4E13000F037
:1016A00077F84FF4E13000F0C3F8FFF751F9FFF796
:1016B00093F8FEF74FFF41F61F410920FFF70EFC9C
:1016C000FFF76AF9FEF758FE1FE0FFF7B1F8FFF7E2
:1016D000B3FC0E480078C0B100200C4908700C48DB
:1016E000006808B9012000E00020094908600948A5
:1016F000D0F8940108B9012000E0002006490860F4
:10170000641C214605A0FFF745FEDEE7000000202F
:1017100094812142000023429401234225640D0A52
:1017200000000000F0B50B30154D20F0070100243B
:10173000144A0FE003688B420BD38B4205D95E1A23
:1017400043184768C3E9006700E04368136002C0BC
:1017500004E0021D10680028ECD12046002802D1C8
:10176000286808B10020F0BD064A07481060074A03
:10177000121A22F00702C0E9002401202860D7E7EE
:10178000600000205C000020BC0A0020B80C002093
:1017900010B586B00446012144F20400FFF7F2F9C7
:1017A0004FF40070ADF8140003208DF816001820D7
:1017B0008DF8170005A91C48FEF774FF4FF48060F0
:1017C000ADF8140004208DF8170005A91648FEF79F
:1017D00069FF25208DF8000003208DF801008DF8A9
:1017E000020001208DF803006846FFF7FFF801941E
:1017F0000020ADF80800ADF80A00ADF80C00ADF817
:1018000010000C20ADF80E0001A90848FFF74EFDAE
:10181000012240F225510548FFF722FD012103482E
:10182000FFF79AFC06B010BD0008014000380140E7
:1018300010B586B0044601210920FFF7A3F9012164
:101840008804FFF77FF92B48FFF792FC4FF4806084
:10185000ADF8100003208DF8120018208DF8130049
:1018600004A92548FEF71EFF4FF40060ADF81000F4
:1018700004208DF8130004A91F48FEF713FF0094FD
:101880000020ADF80400ADF80600ADF80800ADF892
:101890000C000C20ADF80A0069461648FFF706FD5B
:1018A00001211448FFF758FC012240F2255111484C
:1018B000FFF7D6FC27208DF8140002208DF81500C4
:1018C00003208DF8160001208DF8170005A8FFF7FA
:1018D0008DF841F61F4140F2E730FFF7B1FA0020E2
:1018E0000649088000214FF08040FFF72AFB06B030
:1018F00010BD000000480040000C01405A000020CC
:1019000000000000000000000000000000000000D7
:1019100000000000000000000000000000000000C7
:10192000000001C0000000000000000000000000F6
:1019300000000000000000000000000000000000A7
:101940000000000000000000000000C000000000D7
:101950000000000000000000000000000000000087
:101960000000000000000000000000000000000077
:101970000000000000000000000000000000000067
:1019800000000000000001C0000000000000000096
:101990000000000000000000000000000000000047
:1019A000000000000000000000000000000001C076
:1019B0000000000000000000000000000000000027
:1019C0000000000000000000000000000000000017
:1019D0000000000000000000000000000000000007
:1019E0000000000000000000000001C00000000036
:1019F00000000000000000000000000000000000E7
:101A000000000000000000000000000000000000D6
:101A1000000001C000000000000000000000000005
:101A200000000000000000000000000000000000B6
:101A300000000000000000000000000000000000A6
:101A4000000000000000000000000000000001C0D5
:101A50000000000000000000000000000000000086
:101A60000000000000000000000000000000000076
:101A700000000000000001C00000000000000000A5
:101A80000000000000000000000000000000000056
:101A90000000000000000000000000000000000046
:101AA0000000000000000000000000000000000036
:101AB000000001C000000000000000000000000065
:101AC0000000000000000000000000000000000016
:101AD0000000000000000000000001C00000000045
:101AE00000000000000000000000000000000000F6
:101AF00000000000000000000000000000000000E6
:101B000000000000000000000000000000000000D5
:101B100000000000000001C0000000000000000004
:101B200000000000000000000000000000000000B5
:101B3000000000000000000000000000000001C0E4
:101B40000000000000000000000000000000000095
:101B50000000000000000000000000000000000085
:101B60000000000000000000000000000000000075
:101B70000000000000000000000001C000000000A4
:101B80000000000000000000000000000000000055
:101B90000000000000000000000000000000000045
:101BA000000001C000000000000000000000000074
:101BB0000000000000000000000000000000000025
:101BC0000000000000000000000000000000000015
:101BD000000000000000000000000000000001C044
:101BE00000000000000000000000000000000000F5
:101BF00000000000000000000000000000000000E5
:101C000000000000000001C0000000000000000013
:101C100000000000000000000000000000000000C4
:101C200000000000000000000000000000000000B4
:101C300000000000000000000000000000000000A4
:101C4000000001C0000000000000000000000000D3
:101C50000000000000000000000000000000000084
:101C60000000000000000000000001C000000000B3
:101C70000000000000000000000000000000000064
:101C80000000000000000000000000000000000054
:101C90000000000000000000000000000000000044
:101CA00000000000000001C0000000000000000073
:101CB0000000000000000000000000000000000024
:101CC000000000000000000000000000000001C053
:101CD0000000000000000000000000000000000004
:101CE00000000000000000000000000000000000F4
:101CF00000000000000000000000000000000000E4
:101D00000000000000000000000001C00000000012
:101D100000000000000000000000000000000000C3
:101D200000000000000000000000000000000000B3
:101D3000000001C0000000000000000000000000E2
:101D40000000000000000000000000000000000093
:101D50000000000000000000000000000000000083
:101D6000000000000000000000000000000001C0B2
:101D70000000000000000000000000000000000063
:101D80000000000000000000000000000000000053
:101D900000000000000001C0000000000000000082
:101DA0000000000000000000000000000000000033
:101DB0000000000000000000000000000000000023
:101DC0000000000000000000000000000000000013
:101DD000000001C000000000000000000000000042
:101DE00000000000000000000000000000000000F3
:101DF0000000000000000000000001C0000001FF22
:101E0000FFFFFFFFFFFFFFFFFFFFFFFFFFFFFFFFE2
:101E1000FF000000000000000000000000000000C3
:101E200000000000000000000000000000000000B2
:101E300000000000000001C00000000000000000E1
:101E40000000000000000000000000000000000092
:101E5000000000000000000000000000000001C0C1
:101E6000000001FFFFFFFFFFFFFFFFFFFFFFFFFF7E
:101E7000FFFFFFFFFF000000000000000000000067
:101E800003C000000000000000000000000000008F
:101E90000000000000000000000001C00000000081
:101EA0000000000000000000000000000000000032
:101EB0000000000000000000000000000000000022
:101EC000000001C0000007FFFFFFFFFFFFFFFFFF53
:101ED000FFFFFFFFFFFFFFFFFF800000000000008B
:101EE0000000000007E0000000000000000000000B
:101EF000000000000000000000000000000001C021
:101F000000000000000000000000000000000000D1
:101F100000000000000000000000000000000000C1
:101F200000000000000001C0000007FFFFFFFFFFEE
:101F3000FFFFFFFFFFFFFFFFFFFFFFFFFFE00000CE
:101F4000000000000000000007E0000000000000AA
:101F50000000000000000000000000000000000081
:101F6000000001C0000000000000000000000000B0
:101F70000000000000000000000000000000000061
:101F80000000000000000000000001C000001FFF72
:101F9000FFFFFFFFFFFFFFFFFFFFFFFFFFFFFFFF51
:101FA000FFF00000000000000000000007E000005B
:101FB0000000000000000000000000000000000021
:101FC00000000000000001C0000000000000000050
:101FD0000000000000000000000000000000000001
:101FE000000000000000000000000000000001C030
:101FF00000001FFFFFFFFFFFFFFFFFFFFFFFFFFFCF
:10200000FFFFFFFFFFF000000000000000000000E5
:1020100007E00000000000000000000000000000D9
:102020000000000000000000000001C000000000EF
:1020300000000000000000000000000000000000A0
:102040000000000000000000000000000000000090
:10205000000001C000001FFFFFFFFFFFFFFFFFFFA9
:10206000FFFFFFFFFFFFFFFFFFF000000000000089
:102070000000000007E00000000000000000000079
:10208000000000000000000000000000000001C08F
:102090000000000000000000000000000000000040
:1020A0000000000000000000000000000000000030
:1020B00000000000000001C000001FFFFFFFFFFF45
:1020C000FFFFFFFFFFFFFFFFFFFFFFFFFFF000002D
:1020D000000000000000000007E000000000000019
:1020E00000000000000000000000000000000000F0
:1020F000000001C00000000000000000000000001F
:1021000000000000000000000000000000000000CF
:102110000000000000000000000001C000001FFFE0
:10212000FFFFFFFFFFFFFFFFFFFFFFFFFFFFFFFFBF
:10213000FFF00000000000000000000007E00000C9
:10214000000000000000000000000000000000008F
:1021500000000000000001C00000000000000000BE
:10216000000000000000000000000000000000006F
:10217000000000000000000000000000000001C09E
:1021800000001FFFFFFFFFFFFFFFFFFFFFFFFFFF3D
:10219000FFFFFFFFFFF00000000000000000000054
:1021A00007E0000000000000000000000000000048
:1021B0000000000000000000000001C0000000FF5F
:1021C000FE00000000000000000000000000000011
:1021D00000000000000000000FFC00000000000FE5
:1021E000FF8001C000001FFFFFFFFFFFFFFFFFFF99
:1021F000FFFFFFFFFFFFFFFFFFF0000000000000F8
:102200000000000007E000000000000000000000E7
:10221000000000000000000000000000000001C0FD
:10222000000000FFFE0000000000000000000000B1
:102230000000000000000000000000000FFC000093
:102240000000000FFF8001C000001FFFFFFFFFFF25
:10225000FFFFFFFFFFFFFFFFFFFFFFFFFFF000009B
:10226000000000000000000007E000000000000087
:10227000000000000000000000000000000000005E
:10228000000001C0000001FFFE000000000000008F
:10229000000000000000000000000000000000003E
:1022A0003FFC0000000003FFFF8001C000001FFF93
:1022B000FE0000000000000000000000000000FF21
:1022C000FFF00000000000000000000007E0000038
:1022D00000000000000000000000000000000000FE
:1022E00000000000000001C0000001FFFE0000002F
:1022F00000000000000000000000000000000000DE
:1023000000000001FFFC000000003FFFFF8001C053
:1023100000001FFFFF8000000007E0007E000000BB
:10232000000001FFFFF0000000000000007000004E
:1023300007E000001C00000000000000000000009A
:102340000000000000000000000001C0000001FFCC
:10235000FF800000000000000000000000000000FE
:102360000000000000000007FFFC00000000FFFF6D
:10237000FF8001C000001FFFFFC00000007FFC03C2
:10238000FFC00000000007FFFFF000000000000099
:1023900000FC000007E000007F00000000000000DB
:1023A000000000000000000000000000000001C06C
:1023B000000001FFFF80000000000000000000009E
:1023C00000000000000000000000001FFFFC0000F3
:1023D0000007FFFFFF8001C000001FFFFFE00000BB
:1023E00000FFFC07FFE0000000000FFFFFF000000F
:1023F0000000000000FC000007E000007F0000007B
:1024000000000000000000000000000000000000CC
:10241000000001C0000001FFFF800000000000007C
:102420000000000000000000000000000000001F8D
:10243000FFFC00000007FFFFFF8001C000001FFF3E
:10244000FFE0000000FFFC07FFE0000000000FFFBE
:10245000FFF000000000000000FE000007E00000A8
:10246000FF0000000000000000000000000000006D
:1024700000000000000001C0000003FFFF8000001A
:10248000000000000000000000000000000000004C
:102490000000007FFFFC0000000FFFFFFF8001C075
:1024A00000001FFE7FF0000000F83E0FC3E001E0D7
:1024B00000001FFC7FF000000000000000FF800013
:1024C00007C00001FF000000000000000000000045
:1024D0000000000000000000000001C0000003FF39
:1024E000FFC000000000000000000000000000002D
:1024F00000000000000003FFFFFC0000001FFFFFC2
:10250000FF8001C000001FFE3FFE000001F01E0F13
:1025100081F001E00000FFF87FF000000000000003
:10252000007FC00003000003FC000000000000006A
:10253000000000000000000000000000000001C0DA
:10254000000003FFFFC000000000000000000000CA
:10255000000000000000000000000FFFFFFC000072
:10256000003FFFC0000001C000001FFE0FFF000081
:1025700001F01F0F00F001E00001FFF07FF000000C
:1025800000000000003FE0000000000FF800000025
:10259000000000000000000000000000000000003B
:1025A000000001C0000007FEFFC0000000000000A6
:1025B00000000000000000000000000000001FFFFD
:1025C000FFFC0000003FFC00000001C000001FFEF7
:1025D00007FF800001F01F0F00F001E00003FF8003
:1025E0007FF0000000000000003FE0000000000F4E
:1025F000F8000000000000000000000000000000E3
:1026000000000000000001C0000007FEFFC0000045
:1026100000000000000000000000000000000000BA
:1026200000001FFFFFFC0000003FFC00000001C095
:1026300000001FFE07FF800001F01F0F00F001E007
:102640000003FF807FF0000000000000000FF0009A
:102650000000001FF000000000000000000000006B
:102660000000000000000000000001C0000007FEA4
:10267000FFE000000000000000000001FF0000007B
:102680000000000000000FFFDFFC000000FFF8006A
:10269000000001C000001FFE03FFE00001F01F0F5B
:1026A00000F001E00007FF007FF0000000000000E4
:1026B0000007FC000000003FE000000000000000F8
:1026C000000000000000000000000000000001C049
:1026D000000007FEFFE00001FF80007FF800003FE0
:1026E000FFFFFF800000000000000FFF1FFC000044
:1026F00001FFF000000001C000001FFE007FF80095
:1027000001F81F0F81F001E0003FFE007FF00000A4
:10271000000000000003FC001FF0007F80000000AC
:1027200000000000000000000000000000000000A9
:10273000000001C000001FF87FE00001FF80007F63
:10274000F80001FFFFFFFF8000000000000007FC11
:102750001FFC000001FFC000000001C000001FFEC0
:10276000003FFC0000FFFF0FFFF0FFFF807FF8003D
:102770007FF00000000000000001FE03FFFF007F6B
:10278000000000000000000007FE000001FFFFF84D
:1027900000000000000001C000001FF87FE0000101
:1027A000FF80007FF80003FFFFFFFF8000000000B4
:1027B000000007E01FFC000001FF8000000001C0D6
:1027C00000001FFE001FFF00007FFF07FFF0FFFF5C
:1027D00080FFF0007FF00000000000000001FE0319
:1027E000FFFF007F000000000000000007FE000067
:1027F00001FFFFF800000000000001C000001FF80A
:102800007FE00001FF80007FF80003FFFFFFFF80F3
:1028100000000000000007E01FFC000001FF800036
:10282000000001C000001FFE001FFF00007FFF0727
:10283000FFF0FFFF80FFF0007FF0000000000000CD
:1028400000007C0FFFFFC07E0000000000000000C1
:102850003FFF800001FFFFF800000000000001C002
:1028600000001FF87FF00001FF80007FF80007FFE5
:10287000FFFFFF8000000000000007801FFC000039
:1028800003FF8000000001C000001FFE000FFF805A
:10289000000FDF00FCF0FFFF83FFE0007FF000008F
:1028A000000000000000301FFFFFF83C00000000A7
:1028B00000000000FFFFE00001FFFFF80000000043
:1028C000000001C000001FF07FF00001FF80007FCA
:1028D000F8000FFFFFFFFF80000000000000030072
:1028E0001FFC000003FF0000000001C000001FFEED
:1028F0000001FFC000001E0000F001E007FF000023
:102900007FF00000000000000000007FFFFFFC00DF
:102910000000000000000001FFFFF00001FFFFF8D1
:1029200000000000000001C000003FF03FF0000187
:10293000FF80007FF8000FFE03FFFF800000000013
:10294000000000001FFC000003FF0000000001C0A9
:1029500000001FFE0000FFF800001E0001F001E073
:102960001FFE00007FF0000000000000000000FFDC
:10297000FFFFFE000000000000000007FFFFF8005E
:1029800001FFFFF800000000000001C000003FF060
:102990003FFC0001FF80007FF8003FFC007FE0006B
:1029A00000000000000000001FFC000007FF000006
:1029B000000001C000001FFE00007FFC00003E0080
:1029C00003E001E07FFC00007FF000000000000059
:1029D000000000FFFFFFFE000000000000000007F5
:1029E000FFFFF80001FFFFF800000000000001C039
:1029F00000003FF03FFC0001FF80007FF8003FFC3B
:102A0000007FE00000000000000000001FFC00004C
:102A100007FF0000000001C000001FFE00007FFC57
:102A200000003E0003E001E07FFC00007FF00000BA
:102A300000000000000001FFFFFFFF800000000019
:102A400000000007F803F80001C0000000000000CB
:102A5000000001C000003FF03FFC0001FF80007F4C
:102A6000F8003FF0003FF000000000000000000010
:102A70001FFC000007FF03FF000001C000001FFE55
:102A800000001FFE00007C0007E001E0FFF80000EE
:102A90007FF0000000000000000003FFFFFFFFC008
:102AA0000000000000000007C001FC0001C00000A1
:102AB00000000000000001C000007FE03FFC0001BA
:102AC000FF80007FF8007FE0003FF0000000000082
:102AD000000000001FFC000007FF7FFFF00001C0A6
:102AE00000001FFE000007FF00FFF007FFC001E12C
:102AF000FFC000007FF000000000000000000FFF9A
:102B0000FFFFFFC000000000000000018000FC008B
:102B100001C0000000000000000001C000007FE0D4
:102B20000FFC0001FF80007FF8007FE0003FF00015
:102B300000000000000000001FFC000007FFFFFF76
:102B4000FC0001C000001FFE000003FFE0FFE007E3
:102B5000FF0001EFFF8000007FF000000000000098
:102B600000000FFFFFFFFFE000000000000000007A
:102B70000000FC0001C0000000000000000001C0D7
:102B800000007FE00FFE0001FF80007FF8007FE083
:102B9000001FF00000000000000000001FFC00000B
:102BA00007FFFFFFFF8001C000001FFE000000FFC5
:102BB000F0FE0007F800001FFF0000007FF000009B
:102BC0000000000000000FFFFFFFFFE0000000001A
:102BD000000000000000FC0001C000000000000038
:102BE000000001C000007FE00FFE0001FF80007FB9
:102BF000F8007FE0001FF00000000000000000006F
:102C00001FFC000007FFFFFFFF8001C000001FFE48
:102C1000000000FFF0FE0007F800001FFF000000AA
:102C20007FF000000000000000001FFFFFFFFFE03A
:102C300000000000000000000000FC0001C00000D7
:102C400000000000000001C000007FE00FFE000156
:102C5000FF80007FF8007FE0001FF0000000000010
:102C6000000000001FFC000007FFFFFFFFC001C0C5
:102C700000001FFE0000007FF80000000000003F81
:102C8000FC0000007FF000000000000000001FFFBB
:102C9000FFFFFFF0000000000000000000007F00C8
:102CA00001C0000000000000000001C00000FFC0E3
:102CB00007FE0001FF80007FF8007FE0001FF000AA
:102CC00000000000000000001FFC000007FFFFFFE5
:102CD000FFC001C000001FFE0000001FFE0000003A
:102CE0000000007FF00000007FF000000000000006
:102CF00000003FFFFFFFFFF00000000000000000A9
:102D000000007F0001C0000000000000000001C0C2
:102D10000000FFC007FF0001FF80007FF8007FE098
:102D2000003FF00000000000000000001FFC000059
:102D300007FFFFFFFFE001C000001FFE00000007CB
:102D4000FF800000000003FFE00000007FF00000B3
:102D50000000000000003FFFFFFFFFF00000000048
:102D60000000000000007F0001C0000001E0003F03
:102D7000E00001C00000FFC007FF0001FF80007FEE
:102D8000F8007FE0003FF0000000000000000000BD
:102D90001FFC000007FFF003FFF801C000001FFE4A
:102DA00000000003FFC00000000007FF80000000DB
:102DB0007FF000000000000000003FFFFFFFFFF079
:102DC000000000000000000000007F0001C00000C3
:102DD00001E0003FE00001C00000FFC007FF00016C
:102DE000FF80007FF8007FE0003FF000000000005F
:102DF000000000001FFC000007FFF003FFF801C007
:102E000000001FFE00000003FFC00000000007FFDD
:102E1000800000007FF000000000000000003FFF85
:102E2000FFFFFFFC000000000000000000007F002A
:102E300001C0000007F0007FF80001C00003FF00A0
:102E400007FF0001FF80007FF8003FF0007FF000E7
:102E500000000000000000001FFC000007FF000051
:102E6000FFF801C000001FFE00000001FFF000009D
:102E700000000FFF000000007FF0000000000007CE
:102E8000FFF03FFFFFFFFFFC0FFFE000000000002E
:102E900000007C0001C000001FF801FFFC0001C021
:102EA0000003FF0003FF8001FF80007FF8003FFC6C
:102EB000007FF00000000000000000001FFC000088
:102EC00007FF00007FF801C000001FFE00000000A7
:102ED0003FF8000000003FFC000000007FF0000011
:102EE0000000001FFFF83FFFFFFFFFFC1FFFF00087
:102EF000000000000000FC0001C000001E3E03E0D6
:102F00001F0001C00003FF0003FF8001FF80007F5E
:102F1000F8003FFE03FFE00000000000000000009A
:102F20001FFC000007FF00007FF801C000001FFE2B
:102F3000000000001FFC00000000FFF00000000087
:102F40007FF000000000001FFFF83FFFFFFFFFFCC5
:102F50007FFFF000000000000000FC0001C0000046
:102F60003C1E07C0070001C00007FF0003FF8001EF
:102F7000FF80007FF8000FFFFFFFC000000000008F
:102F8000000000001FFC000007FF00001FFC01C044
:102F900000001FFE000000000FFF80000001FFE0A6
:102FA000000000007FF000000000001FFFF83FFF5E
:102FB000FFFFFFFC7FFFF000000000000000FC00AE
:102FC00001C000003C1E07C0070001C00007FF0051
:102FD00003FF8001FF80007FF8000FFFFFFFC000AC
:102FE00000000000000000001FFC000007FF0000C0
:102FF0001FFC01C000001FFE000000000FFF80004A
:103000000001FFE0000000007FF000000000001F52
:10301000FFF83FFFFFFFFFFC7FFFF0000000000014
:103020000000FC0001FFFC00380F0780078001C092
:103030000007FE0003FF8001FF80007FF80007FF0C
:10304000FFFFC00000000000000000001FFC0000A7
:1030500007FF00001FFC01C000001FFE0000000071
:1030600007FFC0000007FFC0000000007FF0000065
:1030700000000007FFF83FFFFFFFFFFC1FFFE0001D
:10308000000000000001F80001FFFF00380F0600FB
:10309000038001C00007FFFFFFFFE001FF80007F0A
:1030A000F8000FFFFFFF000000000000000000001C
:1030B0001FFC000007FF00001FFC01C000001FFEF6
:1030C0000000000007FFE000000FFFC0000000004C
:1030D0007FF000000000000000003FFFFFFFFFFC4A
:1030E00000000000000000000001F80001FFFFE008
:1030F000381F0600038001C00007FFFFFFFFE0014B
:10310000FF80007FF8000FFFFFFE000000000000BE
:10311000000000001FFC000007FF00001FFC01C0B2
:1031200000001FFE000000000FFFF000001FFFE086
:10313000000000007FF000000000000000003FFFE2
:10314000FFFFFFFC00000000000000000003F00093
:1031500001FFFFF01C3E0600038001C0000FFFFFCF
:10316000FFFFE001FF80007FF8003FFFFFF8000055
:1031700000000000000000001FFC000007FF00002E
:103180001FFC01C000001FFE000000001FFFFE002A
:1031900000FFFFF0000000007FF0000000000000D2
:1031A00000003FFFFFFFFFFC0000000000000000E8
:1031B0000003F00001FFFFF01C3E0600038001C089
:1031C000000FFFFFFFFFE001FF80007FF8003FFFDF
:1031D000FFF8000000000000000000001FFC0000DD
:1031E00007FF00001FFC01C000001FFE00000000E0
:1031F0001FFFFE0000FFFFF0000000007FF0000056
:103200000000000000003FFFFFFFFFF00000000093
:1032100000000000000FF00000003FF81FFE060055
:10322000000001C0000FFFFFFFFFF001FF80007FE3
:10323000F8007FE1FF000000000000000000000037
:103240001FFC000007FF00001FFC01C000001FFE64
:10325000000000003FFFFF0001FFFFFC0000000036
:103260007FF000000000000000001FFFFFFFFFF0E4
:103270000000000000000000000FE000000003F864
:1032800007F80600000001C0000FFFFFFFFFF0017C
:10329000FF8000FFF8007FC0000000000000000079
:1032A000000000001FFC000007FF00001FF801C025
:1032B00000001FFE00000001FFF7FF8003FFCFFEAC
:1032C000000000007FF000000000000000001FFF71
:1032D000FFFFFFF00000000000000000001F800062
:1032E000000000FC01E00600000001C0001FFFFF1D
:1032F000FFFFF001FF8000FFF8007FC0000000002A
:1033000000000000000000001FFC000003FF800020
:103310007FF801C000001FFE00000003FFC1FFE0B6
:1033200007FF07FF800000007FF0000000000000A2
:1033300000000FFFFFFFFFE00000000000000000A2
:10334000003F80000000007C00000600000001C07B
:10335000001FFFFFFFFFF001FFC001FFF800FFC0EB
:103360000000000000000000000000001FFC000042
:1033700003FF80007FF801C000001FFE000000076F
:10338000FF807FF83FFE03FFE00000007FF00000B9
:103390000000000000000FFFFFFFFFE00000000042
:1033A00000000000003F80000000007C00000600DC
:1033B000000001C0001FFFFFFFFFF001FFC001FF81
:1033C000F800FFC000000000000000000000000046
:1033D0001FFC000003FF80007FF801C000001FFEFB
:1033E00000000007FF807FF83FFE03FFE0000000C1
:1033F0007FF000000000000000000FFFFFFFFFE073
:103400000000000000000000007F00000000007FBE
:1034100000000600000001C0001FF800003FF80196
:10342000FFC003FFF800FFC0000000000000000024
:10343000000000001FFC000003FFC000FFF801C0F7
:1034400000001FFE0000001FFF003FFC7FF801FF8F
:10345000F00000007FF0000000000000000003FF0B
:10346000FFFFFFC0000000000000000001FE0000A0
:103470000000001F00000600000001C0001FF8004F
:10348000003FF801FFC00FFFF800FFE00000000060
:103490000000000000000FFFFFFFFFE001FFF00150
:1034A000FFE001C000001FFE0000007FF8001FFFCA
:1034B000FFF0003FF80000007FF000000000000077
:1034C000000003FFFFFFFF8000000000000000007D
:1034D00003FC00000000001F00000600000001C007
:1034E000007FE000003FF800FFF83FFFF8007FFC9E
:1034F000000000000000000000000FFFFFFFFFE0E1
:1035000001FFF803FFE001C000001FFE000000FF04
:10351000F0000FFFFFC0001FFF0000007FF0000061
:1035200000000000000001FFFFFFFE00000000009F
:103530000000000003F000000000001F0000060073
:10354000000001C0007FE000003FFC00FFFFFFFF24
:10355000F8007FFFFFFC00000000000000000FFFEC
:10356000FFFFFFE000FFFFFFFFC001C000001FFEE4
:10357000000003FFE00001FFFF00000FFF800000DC
:103580007FF0000000000000000001FFFFFFFE00D0
:10359000000000000000000003F000000000001F19
:1035A00000000600000001C0007FE000003FFC00BA
:1035B000FFFFFFFFF8007FFFFFFC0000000000009E
:1035C00000000FFFFFFFFFE000FFFFFFFFC001C093
:1035D00000001FFE000003FFE00001FFFF00000FDE
:1035E000FF8000007FF0000000000000000000FFEE
:1035F000FFFFFC00000000000000000007E00000EA
:103600000000001F00000600000001C0007FE00075
:10361000001FFC00FFFFFF8FF8003FFFFFFFE000EF
:103620000000000000000FFFFFFFFFE0003FFFFF72
:10363000FF8001C000001FFE000007FFC00000FF68
:10364000FE000003FFC000007FF00000000000004B
:103650000000007FFFFFF8000000000000000000F5
:103660000FE000000000001F00000600000001C085
:1036700000FFE000001FFC003FFFFF1FF8003FFFBE
:10368000FFFFF8000000000000000FFFFFFFFFE059
:10369000003FFFFFFF0001C000001FFE00000FFE03
:1036A0000000007FFC000000FFE000007FF0000051
:1036B0000000000000007C0FFFFFF03E0000000053
:1036C000000000003FC000000000001F00000600D6
:1036D000000001C000FFC000001FFF001FFFFE1F11
:1036E000F80007FFFFFFFE000000000000000FFFD2
:1036F000FFFFFFE0001FFFFFFC0001C000001FFEF6
:1037000000007FFC0000001FF80000007FFC0000AC
:103710007FF00000000000000001FC03FFFF807F3D
:1037200000000000000000007F8000000000007C1E
:1037300000000600038001C000FFC000000FFF0072
:103740000FFFFC1FF8000FFFFFFFFF00000000004D
:1037500000000FFFFFFFFFE00007FFFFF80001C0C0
:1037600000001FFE0000FFF800000007C00000007E
:103770001FFE00007FF00000000000000001FC03BD
:10378000FFFF807F00000000000000007F8000003D
:103790000000007C00000600038001C000FFC000A4
:1037A000000FFF000FFFFC1FF8000FFFFFFFFF00DF
:1037B0000000000000000FFFFFFFFFE00007FFFF19
:1037C000F80001C000001FFE0000FFF80000000725
:1037D000C00000001FFE00007FF00000000000009D
:1037E0000003FC007FFE007F80000000000000005E
:1037F000FE0000000000007C00000600038001C005
:1038000001FFC000000FFF0007FFF01FF8003FFF9F
:10381000FFFFFF000000000000000FFFFFFFFFE0C0
:103820000000FFFF800001C000001FFE0001FFE05C
:1038300000000003000000000FFF00007FF0000008
:10384000000000000007FC000000003FE000000056
:1038500000000001FC000000000000F8000006006D
:10386000038001C00000000000000000007F800015
:1038700000007FF0001FFF8000000000000000003B
:103880000000000000000FFC000001C000001FFE4F
:103890000003FF80000000000000000003FFC000E4
:1038A0007FF0000000000000000FF0000000001F8B
:1038B000F000000000000001F8000000000001F826
:1038C00000000600078001C00000000000000000AA
:1038D000000000000000FFE00007FF800000000083
:1038E000000000000000000000000000000001C017
:1038F00000001FFE001FFF0000000000000000008D
:1039000000FFF0007FF0000000000000003FE0003A
:103910000000000FF800000000000007F8000000A1
:10392000000003F000000780078001C000000000D5
:1039300000000000000000000001FFC00003FF8045
:103940000000000000000000000000000000000077
:10395000000001C000001FFE003FFC00000000004E
:1039600000000000007FF8007FF000000000000071
:10397000003FE0000000000FF8000000000000071A
:10398000F8000000000003F000000780078001C07D
:103990000000000000000000000000000001FFC067
:1039A0000003FF8000000000000000000000000095
:1039B00000000000000001C000001FFE003FFC00EE
:1039C0000000000000000000007FF8007FF0000011
:1039D00000000000007FC00000000003FC000000A9
:1039E0000000000FFFFFFFC00E001FE0000003C03B
:1039F0000F0001C0000000000000000000000000F7
:103A00000001FFC00003FF80000000000000000074
:103A10000000000000000000000001C000001FFEC8
:103A2000007FF8000000000000000000003FFE00E2
:103A30007FF000000000000000FF800007C00001D0
:103A4000FC0000000000000FFFFFFFC00FFFFF8021
:103A5000000003FFFC0001C00000000000000000A7
:103A6000000000000001FF800003FF800000000054
:103A7000000000000000000000000000000001C085
:103A800000001FFE01FFE000000000000000000039
:103A90000007FF007FF000000000000000FE0000B3
:103AA00007E00000FF0000000000000FFFFFFFC064
:103AB0000FFFFF00000001FFF80001C00000000040
:103AC00000000000000000000001FF800003FF80F4
:103AD00000000000000000000000000000000000E6
:103AE000000001C000001FFE07FF80000000000072
:103AF000000000000003FFC07FF000000000000095
:103B000000FC000007E000007F0000000000000F44
:103B1000FFFFFFC00FFFFE000000003FF00001C0EC
:103B20000000000000000000000000000001FFC0D5
:103B30000007FF000000000000000000000000007F
:103B400000000000000001C000001FFE0FFF000089
:103B500000000000000000000001FFF07FF0000006
:103B60000000000000FC000007E000007F000000F3
:103B70000000000FFFFFFFC00FFFFE000000003F2E
:103B8000F00001C000000000000000000000000084
:103B90000001FFC00007FF0000000000000000005F
:103BA0000000000000000000000001C000001FFE37
:103BB0000FFF000000000000000000000001FFF007
:103BC0007FF000000000000000F8000007E00000A7
:103BD0001C0000000000000FFFFFFFC00FFFE0000F
:103BE00000000000000001C0000000000000000014
:103BF000000000000001FFE0001FFF0000000000C7
:103C0000000000000000000000000000000001C0F3
:103C100000001FFE3FFE000000000000000000004A
:103C20000000FFF87FF0000000000000000000002E
:103C300007E000000000000000000000000000009D
:103C40000000000000000000000001C000000000B3
:103C500000000000000000000001FFF0007FFE00F7
:103C60000000000000000000000000000000000054
:103C7000000001C000001FFE7FFC000000000000EB
:103C80000000000000003FFC7FF00000000000008A
:103C90000000000007E0000000000000000000003D
:103CA000000000000000000000000000000001C053
:103CB0000000000000000000000000000000FFFF06
:103CC000FFFFFE00000000000000000000000000F8
:103CD00000000000000001C000001FFFFFE0000026
:103CE000000000000000000000000FFFFFF00000D7
:103CF000000000000000000007E0000000000000DD
:103D000000000000000000000000000000000000B3
:103D1000000001C0000000000000000000000000E2
:103D20000000FFFFFFFFF80000000000000000009F
:103D30000000000000000000000001C000001FFFA4
:103D4000FFC000000000000000000000000007FFAE
:103D5000FFF00000000000000000000007E000008D
:103D60000000000000000000000000000000000053
:103D700000000000000001C0000000000000000082
:103D8000000000000000FFFFFFFFF800000000003F
:103D9000000000000000000000000000000001C062
:103DA00000001FFFFFC00000000000000000000036
:103DB000000007FFFFF0000000000000000000000E
:103DC00007E000000000000000000000000000000C
:103DD0000000000000000000000001C00000000022
:103DE000000000000000000000007FFFFFFFE00077
:103DF00000000000000000000000000000000000C3
:103E0000000001C000001FFFFF8000000000000054
:103E100000000000000001FFFFF0000000000000B3
:103E20000000000007E000000000000000000000AB
:103E3000000000000000000000000000000001C0C1
:103E400000000000000000000000000000000FFF64
:103E5000FFFFC000000000000000000000000000A4
:103E600000000000000001C000001FFFFE00000075
:103E70000000000000000000000000FFFFF0000054
:103E8000000000000000000007E00000000000004B
:103E90000000000000000000000000000000000022
:103EA000000001C000000000000000000000000051
:103EB000000003FFFFFC0000000000000000000005
:103EC0000000000000000000000001C000001FFF13
:103ED000FFFFFFFFFFFFFFFFFFFFFFFFFFFFFFFFF2
:103EE000FFF00000000000000000000007E00000FC
:103EF00000000000000000000000000000000000C2
:103F000000000000000001C00000000000000000F0
:103F1000000000000000000FFF8000000000000013
:103F2000000000000000000000000000000001C0D0
:103F300000001FFFFFFFFFFFFFFFFFFFFFFFFFFF6F
:103F4000FFFFFFFFFFF00000000000000000000086
:103F500007E000000000000000000000000000007A
:103F60000000000000000000000001C00000000090
:103F700000000000000000000000000FFF800000B3
:103F80000000000000000000000000000000000031
:103F9000000001C000001FFFFFFFFFFFFFFFFFFF4A
:103FA000FFFFFFFFFFFFFFFFFFF00000000000002A
:103FB0000000000007E0000000000000000000001A
:103FC000000000000000000000000000000001C030
:103FD00000000000000000000000000000000000E1
:103FE00000000000000000000000000000000000D1
:103FF00000000000000001C000001FFFFFFFFFFFE6
:10400000FFFFFFFFFFFFFFFFFFFFFFFFFFF00000CD
:10401000000000000000000007E0000000000000B9
:104020000000000000000000000000000000000090
:10403000000001C0000000000000000000000000BF
:104040000000000000000000000000000000000070
:104050000000000000000000000001C000001FFF81
:10406000FFFFFFFFFFFFFFFFFFFFFFFFFFFFFFFF60
:10407000FFF00000000000000000000007C000008A
:104080000000000000000000000000000000000030
:1040900000000000000001C000000000000000005F
:1040A0000000000000000000000000000000000010
:1040B000000000000000000000000000000001C03F
:1040C00000001FFFFFFFFFFFFFFFFFFFFFFFFFFFDE
:1040D000FFFFFFFFFFF000000000000000000000F5
:1040E00000000000000000000000000000000000D0
:1040F0000000000000000000000001C000000000FF
:1041000000000000000000000000000000000000AF
:10411000000000000000000000000000000000009F
:10412000000001C000001FFFFFFFFFFFFFFFFFFFB8
:10413000FFFFFFFFFFFFFFFFFFF000000000000098
:10414000000000000000000000000000000000006F
:10415000000000000000000000000000000001C09E
:10416000000000000000000000000000000000004F
:10417000000000000000000000000000000000003F
:1041800000000000000001C000001FFFFFFFFFFF54
:10419000FFFFFFFFFFFFFFFFFFFFFFFFFFF000003C
:1041A000000000000000000000000000000000000F
:1041B00000000000000000000000000000000000FF
:1041C000000001C00000000000000000000000002E
:1041D00000000000000000000000000000000000DF
:1041E0000000000000000000000001C0000007FF08
:1041F000FFFFFFFFFFFFFFFFFFFFFFFFFFFFFFFFCF
:10420000FFE00000000000000000000000000000CF
:10421000000000000000000000000000000000009E
:1042200000000000000001C00000000000000000CD
:10423000000000000000000000000000000000007E
:10424000000000000000000000000000000001C0AD
:10425000000007FFFFFFFFFFFFFFFFFFFFFFFFFF64
:10426000FFFFFFFFFFE00000000000000000000073
:10427000000000000000000000000000000000003E
:104280000000000000000000000001C0000000006D
:10429000000000000000000000000000000000001E
:1042A000000000000000000000000000000000000E
:1042B000000001C0000001FFFFFFFFFFFFFFFFFF45
:1042C000FFFFFFFFFFFFFFFFFF00000000000000F7
:1042D00000000000000000000000000000000000DE
:1042E000000000000000000000000000000001C00D
:1042F00000000000000000000000000000000000BE
:1043000000000000000000000000000000000000AD
:1043100000000000000001C00000000000000000DC
:10432000000000000000000000000000000000008D
:10433000000000000000000000000000000000007D
:10434000000000000000000000000000000000006D
:10435000000001C00000000000000000000000009C
:10436000000000000000000000000000000000004D
:104370000000000000000000000001C0000000007C
:10438000000000000000000000000000000000002D
:10439000000000000000000000000000000000001D
:1043A000000000000000000000000000000000000D
:1043B00000000000000001C000000000000000003C
:1043C00000000000000000000000000000000000ED
:1043D000000000000000000000000000000001C01C
:1043E00000000000000000000000000000000000CD
:1043F00000000000000000000000000000000000BD
:1044000000000000000000000000000000000000AC
:104410000000000000000000000001C000000000DB
:10442000000000000000000000000000000000008C
:10443000000000000000000000000000000000007C
:10444000000001C0000000000000000000000000AB
:10445000000000000000000000000000000000005C
:10446000000000000000000000000000000000004C
:10447000000000000000000000000000000001C07B
:10448000000000000000000000000000000000002C
:10449000000000000000000000000000000000001C
:1044A00000000000000001C000000000000000004B
:1044B00000000000000000000000000000000000FC
:1044C00000000000000000000000000000000000EC
:1044D00000000000000000000000000000000000DC
:1044E000000001C00000000000000000000000000B
:1044F00000000000000000000000000000000000BC
:104500000000000000000000000001C000000000EA
:10451000000000000000000000000000000000009B
:10452000000000000000000000000000000000008B
:10453000000000000000000000000000000000007B
:1045400000000000000001C00000000000000000AA
:10455000000000000000000000000000000000005B
:10456000000000000000000000000000000001C08A
:10457000000000000000000000000000000000003B
:10458000000000000000000000000000000000002B
:10459000000000000000000000000000000000001B
:1045A0000000000000000000000001C0000000004A
:1045B00000000000000000000000000000000000FB
:1045C00000000000000000000000000000000000EB
:1045D000000001C00000000000000000000000001A
:1045E00000000000000000000000000000000000CB
:1045F00000000000000000000000000000000000BB
:10460000000000000000000000000000000001C0E9
:10461000000000000000000000000000000000009A
:10462000000000000000000000000000000000008A
:1046300000000000000001C00000000000000000B9
:10464000000000000000000000000000000000006A
:10465000000000000000000000000000000000005A
:10466000000000000000000000000000000000004A
:10467000000001C000000000000000000000000079
:10468000000000000000000000000000000000002A
:104690000000000000000000000001C00000000059
:1046A000000000000000000000000000000000000A
:1046B00000000000000000000000000000000000FA
:1046C00000000000000000000000000000000000EA
:1046D00000000000000001C0000000000000000019
:1046E00000000000000000000000000000000000CA
:1046F000000000000000000000000000000001C0F9
:1047000000000000000000000000000000000000A9
:104710000000000000000000000000000000000099
:104720000000000000000000000000000000000089
:104730000000000000000000000001C000000000B8
:104740000000000000000000000000000000000069
:104750000000000000000000000000000000000059
:10476000000001C000000000000000000000000088
:104770000000000000000000000000000000000039
:104780000000000000000000000000000000000029
:10479000000000000000000000000000000001C058
:1047A0000000000000000000000000000000000009
:1047B00000000000000000000000000000000000F9
:1047C00000000000000001C0000000000000000028
:1047D00000000000000000000000000000000000D9
:1047E000FFFFFFFFFFFFFFFFFFFFFFFFFFFFFFFFD9
:1047F000FFFFFFFFFFFFFFFFFFFFFFFFFFFFFFFFC9
:10480000FFFFFFFFFFFFFFFFFFFFFFFFFFFFFFFFB8
:10481000FFFFFFFFFFFFFFFFFFFFFFFFFFFFFFFFA8
:10482000FFFFFFFFFFFFFFFFFFFFFFFFFFFFFFFF98
:10483000FFFFFFFFFFFFFFFFFFFFFFFFFFFFFFFF88
:10484000FFFFFFFFFFFFFFFFFFFFFFFFFFFFFFFF78
:10485000FFFFFFFFFFFFFFFFFFFFFFFFFFFFFFFF68
:10486000FFFFFFFFFFFFFFFFFFFFFFFFFFFFFFFF58
:10487000FFFFFFFFFFFFFFFFFFFFFFFFFFFFFFFF48
:10488000FFFFFFFFFFFFFFFFFFFFFFFFFFFFFFFF38
:10489000FFFFFFFFFFFFFFFFFFFFFFFFFFFFFFFF28
:1048A000FFFFFFFFFFFFFFFFFFFFFFFFFFFFFFFF18
:1048B000FFFFFFFFFFFFFFFFFFFFFFFFFFFFFFFF08
:1048C000FFFFFFFFFFFFFFFFFFFFFFFFFFFFFFFFF8
:1048D000FFFFFFFFFFFFFFFFFFFFFFFFFFFFFFFFE8
:1048E000FFFFFFFFFFFFFFFFFFFFFFFFFFFFFFFFD8
:1048F000FFFFFFFFFFFFFFFFFFFFFFFFFFFFFFFFC8
:10490000FFFFFFFFFFFFFFFFFFFFFFFFFFFFFFFFB7
:10491000FFFFFFFFFFFFFFFFFFFFFFFFFFFFFFFFA7
:10492000FFFFFFFFFFFFFFFFFFFFFFFFFFFFFFFF97
:10493000FFFFFFFFFFFFFFFFFFFFFFFFFFFFFFFF87
:10494000FFFFFFFFFFFFFFFFFFFFFFFFFFFFFFFF77
:10495000FFFFFFFFFFFFFFFFFFFFFFFFFFFFFFFF67
:10496000FFFFFFFFFFFFFFFFFFFFFFFFFFFFFFFF57
:10497000FFFFFFFFFFFFFFFFFFFFFFFFFFFFFFFF47
:10498000FFFFFFFFFFFFFFFFFFFFFFFFFFFFFFFF37
:10499000FFFFFFFFFFFFFFFFFFFFFFFFFFFFFFFF27
:1049A000FFFFFFFFFFFFFFFFFFFFFFFFFFFFFFFF17
:1049B000FFFFFFFFFFFFFFFFFFFFFFFFFFFFFFFF07
:1049C000FFFFFFFFFFFFFFFFFFFFFFFFFFFFFFFFF7
:1049D000FFFFFFFF7FFFFFFFFFFFFFFFFFFFFFFF67
:1049E000FFFFFFFFFFFFFFFFFFFFFFFFFFFFFFFFD7
:1049F000FFFFFFFFFFFFFFFFFFFFFFFFFFFFFFFFC7
:104A0000FFFFFFFFFFFFFFFFFFFFFFFFFFFFFFFFB6
:104A1000FFFFFFFFFFFFFFFFFFFFFFFFFFFFFFFFA6
:104A2000FFFFFFFFFFFFFFFFFFFFFFFFFFFFFFFF96
:104A3000FFFFFFFFFFFFFFFF00000000000000007E
:104A40000000000000000000000000000000000066
:104A50000000000000000000000000000000000056
:104A60000000000000000000000000000000000046
:104A70000000000000000000000000000000000036
:105E30000000000000000000003FFF000000000024
:105E40000000000000000000000000000000000052
:105E50000000000000000000000000000000000042
:105E60000000000000000000000000000000000032
:105E70000000000000000000000000000000000022
:105E80000000000000000000000000000000000012
:105E9000000000000000000000000000003FFF00C4
:105EA00000000000000000000000000000000000F2
:105EB00000000000000000000000000000000000E2
:105EC00000000000000000000000000000000000D2
:105ED00000000000000000000000000000000000C2
:105EE00000000000000000000000000000000000B2
:105EF00000000000000000000000000000000000A2
:105F000007FFFFF800000000000000000000000094
:105F10000000000000000FFFFE0000000000000075
:105F2000000007FFFC00000000000000000000006F
:105F30000000000000000000000000000000000061
:105F40000000000000000000000000000000000051
:105F500000000000000000000001FFF00000000051
:105F6000000000007FFFFFFF0000000000000000B5
:105F70000000000000000000000FFFFFFFF800001D
:105F8000000000000000FFFFFF8000000000000094
:105F90000000000000000000000000000000000001
:105FA00000000000000000000000000000000000F1
:105FB000000000000000000000000000000FFFF0E3
:105FC0000000000000000001FFFFFFFFE0000000F4
:105FD00000000000000000000000000001FFFFFFC3
:105FE000FFFE0000000000000007FFFFFFF80000B8
:105FF00000000000000000000000000000000000A1
:106000000000000000000000000000000000000090
:106010000000000000000000000000000000000080
:10602000003FFFF00000000000000007FFFFFFFF3F
:10603000F800000000000000000000000000000068
:1060400007FFFFFFFFFFE00000000000003FFFFF31
:10605000FFFF000000000000000000000000000042
:106060000000000000000000000000000000000030
:106070000000000000000000000000000000000020
:1060800000000000003FFFF00000000000000007DB
:10609000FFFFFFFFF800000000000000000000000C
:1060A0000000000007FFFFFFFFFFE000000000000E
:1060B000003FFFFFFFFF00000000000000000000A5
:1060C00000000000000000000000000000000000D0
:1060D00000000000000000000000000000000000C0
:1060E000000000000000000001FFFFF000000000C1
:1060F0000000001FFFFFFFFFFE0000000000000087
:10610000000000000000000007FFFFFFFFFFF0009D
:1061100000000000007FFFFFFFFF80000000000084
:10612000000000000000000000000000000000006F
:10613000000000000000000000000000000000005F
:1061400000000000000000000000000007FFFFF05A
:10615000000000000000003FFFFFFFFFFF00000005
:1061600000000000000000000000000007FFFFFF2B
:10617000FFFFFE000000000003FFFFFFFFFFE00045
:10618000000000000000000000000000000000000F
:1061900000000000000000000000000000000000FF
:1061A00000000000000000000000000000000000EF
:1061B0003FFFFFF000000000000000FFFFFFFFFFB7
:1061C000FF80000000000000000000000000000050
:1061D00007FFFFFFFFFFFF00000000000FFFFFFFB2
:1061E000FFFFF800000000000000000000000000B9
:1061F000000000000000000000000000000000009F
:10620000000000000000000000000000000000008E
:1062100000000000FFFFFFF000000000000001FF91
:10622000FFFFFFFFFFC000000000000000000000B3
:106230000000000007FFFFFFFFFFFF8000000000DD
:106240001FFFFFFFFFFFFC00000000000000000038
:10625000000000000000000000000000000000003E
:10626000000000000000000000000000000000002E
:106270000000000000000000FFFFFFF00000000031
:10628000000001FFFFFFFFFFFFC000000000000053
:10629000000000000000000007FFFFFFFFFFFF807D
:1062A000000000001FFFFFFFFFFFFC0000000000D8
:1062B00000000000000000000000000000000000DE
:1062C00000000000000000000000000000000000CE
:1062D000000000000000000000000007FFFFFFF0CA
:1062E00000000000000003FFFFFFFFFFFFF00000C1
:1062F00000000000000000000000000007FFFFFF9A
:10630000FFFFFFE0000000007FFFFFFFFFFFFE0038
:10631000000000000000000000000000000000007D
:10632000000007FFFFFF00000000001FFFFF8000CC
:10633000001FFFFFE0000000000000000000001F41
:10634000FFFFFFF000000000000007FFFFE007FF75
:10635000FFF8000000000000000000000000000046
:1063600007FFFFFFFFFFFFF000000000FFFFFFFF40
:10637000FFFFFF0000000000000000000000000020
:1063800000000000000007FFFFFF80000000001F6A
:10639000FFFF8000001FFFFFE00000000000000082
:1063A000000000FFFFFFFFF00000000000001FFFE3
:1063B000FE00007FFFF80000000000000000000069
:1063C0000000000007FFE0001FFFFFF000000001D9
:1063D000FFFFF8007FFFFF0000000000000000004A
:1063E000000000000000000000001FFFFFFF800011
:1063F0000000001FFFFFC000001FFFFFE0000000C3
:1064000000000000000003FFFFFFFFF0000000009D
:1064100000001FFFFC00003FFFFC00000000000028
:10642000000000000000000007F0000000FFFFF87F
:1064300000000003FFFFC0000FFFFFC000000000CE
:1064400000000000000000000000000000001FFF2E
:10645000FFFF80000000001FFFFFC000001FFFFFC4
:10646000E000000000000000000003FFFFFFFFF05D
:106470000000000000001FFFFC00003FFFFC0000C8
:1064800000000000000000000000000007F0000015
:1064900000FFFFF800000003FFFFC0000FFFFFC078
:1064A00000000000000000000000000000000000EC
:1064B00000001FFFFFFF80000000001FFFFFC00063
:1064C000001FFFFFE00000000000000000001FFFB1
:1064D000FFFFFFF00000000000003FFFF00000079A
:1064E000FFFE0000000000000000000000000000AF
:1064F00006000000003FFFF800000001FFFE000062
:1065000003FFFFC0000000000000000000000000CA
:106510000000000000001FFFFFFFE0000000001F60
:10652000FFFFC000003FFFFFE00000000000000090
:1065300000007FFFFFFFFFF00000000000007FFF72
:10654000C0000003FFFE000000000000000000008B
:106550000000000000000000000FFFFC0000000031
:10656000FFF8000000FFFFE0000000000000000056
:10657000000000000000000000003FFFFFFFE000FF
:106580000000001FFFFFF000003FFFFFE0000000E1
:10659000000000000003FFFFFFEFFFF0000000001D
:1065A00000007FFF80000001FFFF8000000000006E
:1065B0000000000000000000000000000007FFFCD9
:1065C00000000000FFE00000007FFFE0000000008E
:1065D00000000000000000000000000000003FFF7D
:1065E000FFFFE0000000001FFFFFF000003FFFFF83
:1065F000E0000000000000000007FFFFFF0FFFF0B9
:10660000000000000000FFFF00000001FFFF80000D
:10661000000000000000000000000000000000007A
:106620000003FFFC000000007FC00000007FFFF0BF
:10663000000000000000000000000000000000005A
:1066400000003FFFFFFFF0000000001FFFFFF00011
:10665000007FFFFFE0000000000000000007FFFFD8
:10666000FF0FFFF0000000000000FFFF000000012E
:10667000FFFF80000000000000000000000000009C
:10668000000000000003FFFC000000007FC00000CD
:10669000007FFFF00000000000000000000000008C
:1066A0000000000000003FFFFFFFF0000000001F9F
:1066B000FFFFF000007FFFFFE0000000000000008F
:1066C0000003FFFFFC0FFFF0000000000000FFFFD1
:1066D00000000000FFFFC0000000000000000000FC
:1066E00000000000000000000001FFFF00000000AB
:1066F0001F800000001FFFF00000000000000000ED
:10670000000000000000000000007FFFFFFFF0001D
:106710000000001FFFFFF000007FFFFFE00000000F
:10672000000000000003FFFFE00FFFF0000000008A
:106730000003FFFE000000003FFFC000000000005B
:106740000000000000000000000000000001FFFF4A
:10675000000000000F000000001FFFF0000000001C
:1067600000000000000000000000000000007FFFAB
:10677000FFFFF0000000007FFFFFF800007FFFFF39
:10678000F0000000000000000003FFFFC00FFFF05A
:10679000000000000003FFFE000000003FFFC000FB
:1067A00000000000000000000000000000000000E9
:1067B0000001FFFF000000000C000000000FFFF0D0
:1067C00000000000000000000000000000000000C9
:1067D00000007FFFFFFFF0000000007FFFFFF800D8
:1067E00000FFFFFFF0000000000000000001FFFFBD
:1067F000000FFFF0000000000003FFF800000000A1
:106800001FFFE0000000000000000000000000008A
:106810000000000000007FFF0000000000000000FA
:10682000000FFFF800000000000000000000000062
:106830000000000000007FFFFFFFF8000000007F65
:10684000FFFFF80000FFFFFFF00000000000000065
:106850000001FFFF000FFFF0000000000003FFF841
:10686000000000001FFFE00000000000000000002A
:10687000000000000000000000007FFF000000009A
:1068800000000000000FFFF8000000000000000002
:10689000000000000000000000007FFFFFFFF80084
:1068A0000000007FFFFFF80000FFFFFFF000000086
:1068B000000000000001FFF8000FFFF000000000E2
:1068C0000007FFF8000000001FFFE00000000000CC
:1068D0000FE00000000000000000000000007FFF4B
:1068E0000000000000000000000FFFF800000000A2
:1068F0000000000000000000000000000000FFFF9A
:10690000FFFFF8000000007FFFFFFC0000FFFFFF1B
:10691000F00000000000000000007FE0000FFFF02A
:10692000000000000007FFF0000000000FFFE00083
:10693000000000007FFC00000000000000000000DC
:1069400000007FFF00000000000000000007FFF8CB
:106950000000000000000000000000000000000037
:106960000000FFFFFFFFF8000000007FFFFFFC00BA
:1069700000FFFFFFF00000000000000000007F00AB
:10698000000FFFF0000000000007FFF00000000013
:106990000FFFF00000000001FFFE000000000000FB
:1069A0000000000000007FFF000000000000000069
:1069B0000007FFF8000000000000000000000000D9
:1069C000000000000000FFFFFFFFFC000000007F50
:1069D000FFFFFC0003FFFFFFF000000000000000CD
:1069E00000003C00000FFFF000000000000FFFF06F
:1069F000000000000FFFF00000000003FFFF000098
:106A0000000000000000000000007FFF0000000008
:106A1000000000000007FFF8000000000000000078
:106A200000000000000000000003FFFFBFFFFC00AB
:106A30000000007FFFFFFC0003FFFFFFF0000000ED
:106A40000000000000003C00000FFFF0000000000C
:106A5000000FFFF0000000000FFFF0000000000337
:106A6000FFFF0000000000000000000000007FFFAA
:106A700000000000000000000007FFF80000000018
:106A80000000000000000000000000000003FFFF05
:106A9000BFFFFC000000007FFFFFFC0003FFFFFFC3
:106AA000F00000000000000000002000000FFFF0D8
:106AB00000000000000FFFE0000000000FFFF000EA
:106AC00000000003FFFFC000000000000000000005
:106AD00000007FFF00000000000000000007FFF83A
:106AE00000000000000000000000000000000000A6
:106AF0000003FFFFBFFFFC000000007FFFFFFE0060
:106B000003FFFFFFF0000000000000000000000095
:106B1000000FFFF000000000000FFFE00000000089
:106B20003FFFF0000000000FFFFFE000000000004A
:106B30000000000000007FFF0000000000000000D7
:106B40000007FFF800000000000000000000000047
:106B5000000000000003FFFFBFFFFF000000007FF8
:106B6000FFFFFE0007FFFFFFF00000000000000035
:106B700000000000000FFFF000000000000FFFE029
:106B800000000000FFFFFC000000000FFFFFE0001E
:106B9000000000000000000000007FFC000000007A
:106BA000000000000007FFF80000000000000000E7
:106BB00000000000000000000007FFFF0FFFFF00C3
:106BC0000000007FFFFFFE0007FFFFFFF000000056
:106BD0000000000000000000000FFFF000000000B7
:106BE000001FFFC000000001FFFFFC000000001FAD
:106BF000FFFFF00000000000000000000001FFFCAB
:106C000000000000000000000007FFF80000000086
:106C10000000000000000000000000000007FFFF6F
:106C20000FFFFF000000007FFF3FFF8007FFEFFF27
:106C3000F00000000000000000000000000FFFF066
:106C400000000000001FFFC000000001FFFFFC006B
:106C50000000001FFFFFF000000000000000000027
:106C60000001FFFC00000000000000000007FFF82A
:106C70000000000000000000000000000000000014
:106C80000007FFFF0FFFFF000000007FFF3FFF80B6
:106C900007FFEFFFF0000000000000000000000010
:106CA000000FFFF000000000001FFFC00000000701
:106CB000FFFFFC000000001FFFFFF00000000000CD
:106CC000000000000001FFFC0000000000000000C8
:106CD0000007FFF8000000000000000000000000B6
:106CE000000000000007FFFF0FFFFF000000007F13
:106CF000FF3FFF800FFFEFFFF000000000000000EB
:106D000000000000000FFFF000000000001FFFC0A7
:106D10000000001FFFFFFC000000001FFFFFF0004D
:106D200000000000000000000001FFF8000000006B
:106D3000000000000007FFF8000000000000000055
:106D400000000000000000000007FFFF0FFFFF80B1
:106D50000000007FFF3FFF800FFFEFFFF00000000B
:106D60000000000000000000000FFFF00000000025
:106D7000001FFFC00000003FFFFFFC000000001FDD
:106D8000FFFFF00000000000000000000003FFF81B
:106D900000000000000000000007FFF000000000FD
:106DA000000000000000000000000000000FFFFED7
:106DB00007FFFF800000007FFF1FFF800FFFEFFF36
:106DC000F00000000000000000000000000FFFF0D5
:106DD00000000000001FFFC0000000FFFFFFFC00DC
:106DE0000000001FFFFFF000000000000000000096
:106DF0000003FFF80000000000000000000FFFF09B
:106E00000000000000000000000000000000000082
:106E1000000FFFFE07FFFF800000007FFF1FFFC085
:106E20000FFFCFFFF0000000000000000000000096
:106E3000000FFFF000000000001FFFC0000000FF77
:106E4000FFFFFC000000001FFFFFF000000000003B
:106E5000000000000003FFF8000000000000000038
:106E6000000FFFF000000000000000000000000024
:106E700000000000000FFFFE07FFFF800000007F02
:106E8000FF1FFFC00FFFCFFFF00000000000000059
:106E900000000000000FFFF000000000001FFFC016
:106EA000000003FFFFFFFE000000001FFFFFF000D7
:106EB00000000000000000000007FFF000000000DC
:106EC00000000000000FFFF00000000000000000C4
:106ED0000000000000000000000FFFFE07FFFFC0E1
:106EE0000000007FFF1FFFC01FFFCFFFF00000006A
:106EF0000000000000000000000FFFF00000000094
:106F0000007FFF00000007FFFFFFFE000000000FF2
:106F1000FFFFE0000000000000000000000FFFE0A5
:106F20000000000000000000000FFFF00000000063
:106F3000000000000000000000000000001FFFF83B
:106F400007FFFFC00000007FFF1FFFC01FFFCFFF34
:106F5000F00000000000000000000000000FFFF043
:106F600000000000007FFF0000001FFFFFFFFE0089
:106F70000000000FFFFFE000000000000000000024
:106F8000003FFF800000000000000000001FFFE045
:106F900000000000000000000000000000000000F1
:106FA000001FFFF803FFFFC00000007FFF0FFFE09E
:106FB0001FFF0FFFF00000000000000000000000B5
:106FC000000FFFF000000000007FFF0000007FFFC7
:106FD000FEFFFE0000000003FFFFC00000000000F5
:106FE0000000000000FFFF000000000000000000A3
:106FF000001FFFE000000000000000000000000093
:1070000000000000001FFFF803FFFFC00000007F2A
:10701000FF0FFFE07FFF0FFFF00000000000000007
:1070200000000000000FFFF000000000007FFF00E4
:1070300000007FFFFEFFFE0000000003FFFFC00016
:10704000000000000000000000FFFF000000000042
:1070500000000000001FFFE0000000000000000032
:107060000000000000000000001FFFF803FFFFC049
:107070000000007FFF0FFFE07FFF0FFFF000000028
:107080000000000000000000000FFFF00000000002
:10709000007FFF000001FFFFF0FFFE000000000383
:1070A000FFFFC000000000000000000007FFFE001E
:1070B0000000000000000000001FFFE000000000D2
:1070C000000000000000000000000000007FFFF84A
:1070D00003FFFFE0000000FFFF0FFFE07FFF0FFF57
:1070E000FC0000000000000000000000000FFFF0A6
:1070F00000000000007FFF000003FFFFE0FFFE0034
:1071000000000001FFFF0000000000000000000080
:107110003FFFFC000000000000000000007FFFC0F7
:10712000000000000000000000000000000000005F
:10713000007FFFF001FFFFE0000000FFFF0FFFE016
:107140007FFE0FFFFC0000000000000000000000B8
:10715000000FFFF000000000007FFF00000FFFFFA6
:10716000C0FFFE00000000007FFC000000000000E7
:107170000001FFFFFFFFF000000000000000000022
:1071800000FFFFC000000000000000000000000041
:1071900000000000007FFFF001FFFFE0000000FFA3
:1071A000FF07FFF07FFE0FFFFC0000000000000063
:1071B00000000000000FFFF000000000007FFF0053
:1071C000003FFFFE00FFFE00000000000FE0000097
:1071D000000000000001FFFFFFFFC00000000000F2
:1071E0000000000000FFFF000000000000000000A1
:1071F0000000000000000000007FFFF001FFFFF82A
:10720000000000FFFF07FFF0FFFE0FFFFC00000083
:107210000000000000000000000FFFF00000000070
:10722000007FFF00003FFFFE00FFFE0000000000A7
:107230000FE00000000000000001FFFFFFFFC000A2
:10724000000000000000000000FFFF000000000040
:10725000000000000000000000000000007FFFF0C0
:1072600001FFFFF8000000FFFF07FFF0FFFE0FFF28
:10727000FC0000000000000000000000000FFFF014
:1072800000000000007FFF00007FFFFC00FFFE0009
:107290000000000000000000000000000001FFFFEF
:1072A000FFFF8000000000000000000001FFFF0061
:1072B00000000000000000000000000000000000CE
:1072C00000FFFFE001FFFFF8000000FFFF07FFF0F5
:1072D000FFFC0FFFFC0000000000000000000000A9
:1072E000000FFFF000000000007FFF0001FFFFF82B
:1072F00000FFFE0000000000000000000000000091
:107300000001FFFFFFFE0000000000000000000081
:1073100003FFFE000000000000000000000000006D
:107320000000000000FFFFE0007FFFF8000000FF0A
:10733000FF01FFF0FFFC07FFFC0000000000000061
:1073400000000000000FFFF000000000007FFF00C1
:1073500007FFFFC000FFFE0000000000000000006B
:10736000000000000001FFFFFFFFE0000000000040
:107370000000000003FFFC0000000000000000000F
:10738000000000000000000000FFFFE0007FFFFCA5
:10739000000000FFFF01FFF0FFFC07FFFC00000002
:1073A0000000000000000000000FFFF000000000DF
:1073B000007FFF000FFFFF8000FFFE0000000000C5
:1073C00000000000000000000001FFFFFFFFFE00C2
:1073D00000000000000000000FFFFC0000000000A3
:1073E00000000000000000000000000001FFFFE0BE
:1073F000007FFFFC000000FFFF01FFFDFFF807FF1B
:10740000FC0000000000000000000000000FFFF082
:1074100000000000007FFF000FFFFF8000FFFE0064
:107420000000000000000000000000000001FFFF5D
:10743000FFFFFE0000000000000000000FFFFC0046
:10744000000000000000000000000000000000003C
:1074500001FFFFE0007FFFFC000000FFFF01FFFDD8
:10746000FFF807FFFC000000000000000000000023
:10747000000FFFF000000000007FFF003FFFFF0053
:1074800000FFFE00000000000000000000000000FF
:107490000001FFFFFFFFFF80000000000000000070
:1074A0001FFFF800000000000000000000000000C6
:1074B0000000000001FFFFC0007FFFFC000000FF94
:1074C000FF01FFFDFFF807FFFC00000000000000C7
:1074D00000000000000FFFF000000000007FFF0030
:1074E000FFFFF80000FFFE000000000000000000A9
:1074F000000000000001FFFFFFFFFFE000000000B0
:10750000000000003FFFE00000000000000000005D
:10751000000000000000000001FFFFC0003FFFFC72
:10752000000000FFFF00FFFDFFF807FFFC00000068
:107530000000000000000000000FFFF0000000004D
:10754000007FFF01FFFFF00000FFFE0000000000D1
:1075500000000000000000000001FFFFFFFFFFF03F
:1075600000000000000000007FFFE00000000000BD
:1075700000000000000000000000000003FFFFC04A
:10758000003FFFFE000000FFFF00FFFDFFE007FFE0
:10759000FC0000000000000000000000000FFFF0F1
:1075A00000000000007FFF07FFFFE00000FFFE007B
:1075B00000000000000000000000000000000000CB
:1075C0001FFFFFF800000000000000007FFFC00068
:1075D00000000000000000000000000000000000AB
:1075E00003FFFF00003FFFFE000000FFFF00FFFF62
:1075F000FFE007FFFC0000000000000000000000AA
:10760000000FFFF000000000007FFF07FFFFE00019
:1076100000FFFE000000000000000000000000006D
:10762000000000001FFFFFF8000000000000000045
:107630007FFFC0000000000000000000000000000C
:107640000000000003FFFF00003FFFFE000000FFFE
:10765000FF00FFFFFFE007FFFC000000000000004C
:1076600000000000000FFFF000000000007FFF1F7F
:10767000FFFF000000FFFE0000000000000000000F
:107680000000000000000000007FFFFC0000000080
:1076900000000001FFFF800000000000000000006B
:1076A000000000000000000003FFFF00001FFFFEBD
:1076B000000000FFFF00FFFFFFE007FFFC000000ED
:1076C0000000000000000000000FFFF000000000BC
:1076D000007FFF3FFFFE000000FFFE0000000000F3
:1076E000000000000000000000000000000FFFFF8D
:1076F0000000000000000003FFFF00000000000089
:1077000000000000000000000000000003FFFF0078
:10771000001FFFFF000000FFFF007FFFFFE007FFEB
:10772000FC0000000000000000000000000FFFF05F
:1077300000000000007FFFFFFFFC000000FFFE00D4
:107740000000000000000000000000000000000039
:107750000003FFFF8000000000000007FFFC0000A6
:107760000000000000000000000000000000000019
:107770000FFFFF00001FFFFF000000FFFF007FFF63
:10778000FFC007FFFC000000000000000000000038
:10779000000FFFF000000000007FFFFFFFE000008F
:1077A00000FFFE00000000000000000000000000DC
:1077B000000000000001FFFFC00000000000000FFB
:1077C000FFF80000000000000000000000000000C2
:1077D000000000000FFFFE00001FFFFF000000FF81
:1077E000FF007FFFFFC007FFFC000000000000005B
:1077F00000000000000FFFF000000000007FFFFF0E
:10780000FFE0000000FFFE0000000000000000009C
:1078100000000000000000000001FFFFC0000000A9
:107820000000000FFFF80000000000000000000052
:1078300000000000000000000FFFFE00001FFFFF1F
:10784000000000FFFF007FFFFFC007FFFC000000FB
:107850000000000000000000000FFFF0000000002A
:10786000007FFFFFFFC0000001FFFC0000000000E0
:1078700000000000000000000000000000003FFFCA
:10788000C00000000000003FFFF00000000000000A
:107890000000000000000000000000000FFFFE00DC
:1078A000000FFFFFC00000FFFE003FFFFFC007FF0B
:1078B000FC0000000000000000000000000FFFF0CE
:1078C00000000000001FFFFFFF80000001FFFC0020
:1078D00000000000000000000000000000000000A8
:1078E00000001FFFE00000000000007FFFF000002C
:1078F0000000000000000000000000000000000088
:107900001FFFFE00000FFFFFC00000FFFE003FFF53
:10791000FF8007FFFC0000000000000000000000E6
:10792000000FFFF000000000001FFFFFFC00000040
:1079300001FFFC000000000000000000000000004B
:107940000000000000001FFFE0000000000000FF3A
:10795000FFE0000000000000000000000000000048
:10796000000000001FFFFC00000FFFFFC00000FF31
:10797000FE003FFFFF8007FFFC000000000000004A
:1079800000000000000FFFF000000000001FFFFFDC
:10799000F800000001FFFC000000000000000000F3
:1079A000000000000000000000000FFFE0000000E9
:1079B000000001FFFF800000000000000000000048
:1079C00000000000000000001FFFFC00000FFFFF90
:1079D000C00001FFFE003FFFFF8007FFFE00000028
:1079E0000000000000000000000FFFF00000000099
:1079F000001FFFFFF800000001FFFC000000000076
:107A000000000000000000000000000000000FFF68
:107A1000E0000000000001FFFF8000000000000007
:107A20000000000000000000000000001FFFFC003C
:107A3000000FFFFFC00001FFFE003FFFFF8007FFB8
:107A4000FE0000000000000000000000000FFFF03A
:107A500000000000001FFFFFC000000001FFFC004D
:107A60000000000000000000000000000000000016
:107A700000000FFFF8000000000007FFFF000000FB
:107A800000000000000000000000000000000000F6
:107A90003FFFFC000003FFFFE00001FFFE000FFFBF
:107AA000FF0007FFFE0000000000000000000000D3
:107AB000000FFFF000000000001FFFFF800000002B
:107AC00001FFFC00000000000000000000000000BA
:107AD00000000000000003FFF800000000000FFF9E
:107AE000FE00000000000000000000000000000098
:107AF000000000003FFFFC000003FFFFE00001FF6B
:107B0000FE000FFFFF0007FFFE0000000000000066
:107B100000000000000FFFF000000000001FFFFF4A
:107B20000000000007FFF00000000000000000005F
:107B30000000000000000000000003FFF80000004B
:107B400000001FFFFC00000000000000000000001B
:107B500000000000000000003FFFF8000003FFFFEE
:107B6000E00001FFFE000FFFFF0007FFFE00000026
:107B70000000000000000000000FFFF00000000007
:107B8000000FFFF80000000007FFF00000000000F9
:107B9000000000000000000000000000000003FFE3
:107BA000F800000000003FFFF000000000000000AF
:107BB0000000000000000000000000003FFFF8008F
:107BC0000001FFFFF00001FFFE000FFFFC0007FFB8
:107BD000FE0000000000000000000000000FFFF0A9
:107BE00000000000000FFFF80000000007FFF00099
:107BF0000000000000000000000000000000000085
:107C0000000003FFF800000000003FFFF00000004C
:107C10000000000000000000000000000000000064
:107C20003FFFF8000001FFFFF00001FFFE000FFF23
:107C3000FC0007FFFE000000000000000000000044
:107C4000000FFFF000000000000FFFF00000000038
:107C500007FFF0000000000000000000000000002E
:107C600000000000000003FFF80000000000FFFF1C
:107C7000E000000000000000000000000000000024
:107C8000000000007FFFF8000001FFFFF00001FF8F
:107C9000FE0007FFFC0007FFFE00000000000000E0
:107CA00000000000000FFFF000000000000FFFF0D8
:107CB0000000000007FFF0000000000000000000CE
:107CC0000000000000000000000003FFF8000000BA
:107CD0000001FFFFC00000000000000000000000E5
:107CE00000000000000000007FFFE0000001FFFF37
:107CF000F00001FFFE0007FFFC0007FFFE00000090
:107D00000000000000000000000FFFF00000000075
:107D1000000FFFF0000000000FFFE0000000000077
:107D2000000000000000000000000000000003FF51
:107D3000F80000000003FFFF8000000000000000CA
:107D40000000000000000000000000007FFFE000D5
:107D50000001FFFFF00001FFFE0007FFF80007FF32
:107D6000FE0000000000000000000000000FFFF017
:107D7000000000000007FFF0000000000FFFE0001F
:107D800000000000000000000000000000000000F3
:107D9000000003FFF80000000007FFFE00000000E5
:107DA00000000000000000000000000000000001D2
:107DB000FFFFFFFFFFFFFFFFF80001FFFE0003FFD3
:107DC000F80007FFFE0000000000000000000000B7
:107DD000000FFFF0000000000007FFF000000000AF
:107DE0000FFFE000000000000000000000000000A5
:107DF00000000000000003FFF80000000007FFFE85
:107E00000000000000000000000000000000000072
:107E100000000001FFFFFFFFFFFFFFFFF80001FF71
:107E2000FE0003FFF80007FFFE0000000000000056
:107E300000000000000FFFF0000000000007FFF846
:107E4000000000001FFFE000000000000000000034
:107E50000000000000000000000003FFF800000028
:107E6000001FFFFC000000000000000000000000F8
:107E70000000000000000001FFFFFFFFFFFFFFFF09
:107E8000F80001FFFE0003FFF80007FFFE000000FE
:107E90000000000000000000000FFFF000000000E4
:107EA0000007FFF8000000001FFFC00000000000F6
:107EB00000000000000000000000000000000FFFB4
:107EC000E0000000003FFFF800000000000000009C
:107ED000000000000000000000000001FFFFFFFFA5
:107EE000FFFFFFFFF80001FFFE0003FFF80007FFA0
:107EF000FE0000000000000000000000000FFFF086
:107F0000000000000003FFFE000000001FFFC00093
:107F10000000000000000000000000000000000061
:107F200000000FFFE0000000007FFFF000000000F5
:107F3000000000000000000000000000000000033E
:107F4000FFFFFFFFFFFFFFFFFE0001FFFE0003FF3B
:107F5000F00007FFFE00000000000000000000002D
:107F6000000FFFF0000000000003FFFE0000000013
:107F70003FFFC000000000000FE000000000000014
:107F80000000000000000FFFE000000000FFFFC045
:107F900000000000000000000000000000000000E1
:107FA00000000003FFFFFFFFFFFFFFFFFE0001FFD8
:107FB000FE0001FFF00007FFFE00000000000000CF
:107FC00000000000000FFFF0000000000003FFFEB3
:107FD000000000003FFFC000000000000FE00000B4
:107FE000000000000000000000000FFFE0000000A3
:107FF00000FFFFC0000000000000000000000000C3
:108000000000000000000003FFFFFFFFFFFFFFFF75
:10801000FE0001FFFE0001FFF00007FFFE00000070
:108020000000000000000000000FFFF00000000052
:108030000003FFFF00000000FFFF800000000000C1
:108040007FFC0000000000000000000000001FFF97
:10805000E000000003FFFF800000000000000000BF
:10806000000000000000000000000003FFFFFFFF11
:10807000FFFFFFFFFE0001FFFE000000000001FF08
:10808000FE0000000000000000000000000FFFF0F4
:10809000000000000000FFFF00000000FFFF800064
:1080A00000000001FFFE00000000000000000000D2
:1080B00000001FFFC000000007FFFF0000000000DD
:1080C00000000000000000000000000000000003AD
:1080D000FFFFFFFFFFFFFFFFFF0001FFFE000000AB
:1080E000000001FFFE000000000000000000000092
:1080F000000FFFF0000000000000FFFF8000000103
:10810000FFFE000000000003FFFF00000000000071
:108110000000000000003FFFC00000000FFFFE0055
:10812000000000000000000000000000000000004F
:1081300000000007FFFFFFFFFFFFFFFFFF0001FF41
:10814000FE000000000001FFFE0000000000000033
:1081500000000000000FFFF00000000000007FFFA3
:10816000C0000003FFFE000000000003FFFFC0008E
:10817000000000000000000000007FFF8000000001
:108180001FFFF800000000000000000000000000D9
:108190000000000000000007FFFFFFFFFFFFFFFFE0
:1081A000FF0001FFFE000000000001FFFE000000D4
:1081B0000000000000000000000FFFF000000000C1
:1081C00000007FFFC0000003FFFE0000000000036E
:1081D000FFFFC000000000000000000000007FFF63
:1081E000800000001FFFF8000000000000000000F9
:1081F000000000000000000000000007FFFFFFFF7C
:10820000FFFFFFFFFF0001FFFE000000000001FF75
:10821000FE0000000000000000000000000FFFF062
:108220000000000000007FFFF0000007FFFC0000DE
:108230000000000FFFFFE000000000000000000051
:108240000001FFFF800000007FFFF0000000000041
:108250000000000000000000000000000000000717
:10826000FFFFFFFFFFFFFFFFFF0001FFFE00000019
:10827000000001FFFE000000000000000000000000
:10828000000FFFF00000000000003FFFF800003F7B
:10829000FFF800000000000FFFFFE00000000000FA
:1082A000000000000007FFFF00000000FFFFE000EB
:1082B00000000000000000000000000000000000BE
:1082C0000000000FFFFFFFFFFFFFFFFFFF8001FF28
:1082D000FE000000000001FFFE00000000000000A2
:1082E00000000000000FFFF00000000000001FFF72
:1082F000FE00007FFFF800000000001FFFFFF000FD
:108300000000000000000000003FFFFC0000000132
:10831000FFFFC0000000000000000000000000009F
:10832000000000000000000FFFFFFFFFFFFFFFFF46
:10833000FF8003FFFE000000000001FFFF000000BF
:108340000000000000007FFFFFFFFFFFFFFFF000C5
:1083500000001FFFFFE007FFFFF000000000001F0C
:10836000FFFFF000000000003800000000FFFFFCED
:1083700000000003FFFFFFFFFFFFFFFFF000000012
:1083800000000000000000000000000FFFFFFFFFE2
:10839000FFFFFFFFFF8003FFFE000000000001FF62
:1083A000FF0000000000000000007FFFFFFFFFFF54
:1083B000FFFFF00000001FFFFFE007FFFFF00000DD
:1083C0000000001FFFFFF000000000003800000068
:1083D00000FFFFFC00000003FFFFFFFFFFFFFFFFA8
:1083E000F000000000000000000000000000000F8E
:1083F000FFFFFFFFFFFFFFFFFF8003FFFE00000006
:10840000000001FFFF0000000000000000007FFFEF
:10841000FFFFFFFFFFFFF000000007FFFFFFFFFF70
:10842000FFC000000000001FFFFFF0000000000080
:108430003FFC00003FFFFFF800000003FFFFFFFFCD
:10844000FFFFFFFFF0000000000000000000000040
:108450000000003FFFFC000000000FFFFFC003FF13
:10846000FE000000000001FFFF000000000000000F
:1084700000007FFFFFFFFFFFFFFFF000000003FF92
:10848000FFFFFFFFFF8000000000001FFFFFF00064
:10849000000000003FFFFFFFFFFFFFF000000003B0
:1084A000FFFFFFFFFFFFFFFFF000000000000000E4
:1084B000000000000000003FFFFC0000000007FF7C
:1084C000FFC003FFFE000000000001FFFF000000EE
:1084D0000000000000007FFFFFFFFFFFFFFFF00034
:1084E000000001FFFFFFFFFFFF0000000000001F72
:1084F000FFFFF000000000003FFFFFFFFFFFFFE075
:1085000000000003FFFFFFFFFFFFFFFFF000000080
:1085100000000000000000000000003FFFFC000021
:10852000000007FFFFC003FFFE000000000001FF86
:10853000FF0000000000000000007FFFFFFFFFFFC2
:10854000FFFFF000000000FFFFFFFFFFFE00000044
:108550000000001FFFFFF000000000003FFFFFFFD2
:10856000FFFFFF8000000003FFFFFFFFFFFFFFFF93
:10857000F000000000000000000000000000003FCC
:10858000FFF80000000007FFFFF003FFFE000000FF
:10859000000001FFFF0000000000000000007FFF5E
:1085A000FFFFFFFFFFFFF000000000FFFFFFFFFFE6
:1085B000FE0000000000001FFFFFF00000000000B0
:1085C0003FFFFFFFFFFFFF8000000003FFFFFFFFF3
:1085D000FFFFFFFFF00000000000000000000000AF
:1085E0000000003FFFF80000000007FFFFF003FF5E
:1085F000FE000000000001FFFF000000000000007E
:1086000000007FFFFFFFFFFFFFFFF0000000003FC3
:10861000FFFFFFFFF80000000000000FFFFFE00079
:10862000000000003FFFFFFFFFFFFE00000000030F
:10863000FFFFFFFFFFFFFFFFF00000000000000052
:10864000000000000000007FFFF80000000007FFAE
:10865000FFF003FFFE000000000001FFFF0000002C
:108660000000000000007FFFFFFFFFFFFFFFF000A2
:108670000000001FFFFFFFFFF00000000000000FE0
:10868000FFFFE000000000003FFFFFFFFFFFFC00D6
:1086900000000003FFFFFFFFFFFFFFFFF0000000EF
:1086A00000000000000000000000007FFFF8000054
:1086B000000003FFFFF003FFFC000000000001FFCB
:1086C000FF0000000000000000007FFFFFFFFFFF31
:1086D000FFFFF00000000007FFFFFFFFC0000000E9
:1086E00000000003FFFFC000000000003FFFFFFF8D
:1086F000FFFFE00000000003FFFFFFFFFFFFFFFFA1
:10870000F000000000000000000000000000007FFA
:10871000FFF00000000003FFFFF003FFFC0000007B
:10872000000001FFFF0000000000000000007FFFCC
:10873000FFFFFFFFFFFFF00000000000FFFFFFFE54
:108740000000000000000003FFFFC0000000000068
:108750003FFFFFFFFFFE000000000003FFFFFFFFE1
:10876000FFFFFFFFF000000000000000000000001D
:10877000000000FFFFF00000000003FFFFF803FF10
:10878000FC000000000001FFFF00000000000000EE
:1087900000007FFFFFFFFFFFFFFFF0000000000071
:1087A000FFFFFFFE0000000000000003FFFFC0000D
:1087B000000000003FFFFFFFFFFE0000000000037D
:1087C000FFFFFFFFFFFFFFFFF000000000000000C1
:1087D00000000000000000FFFFF00000000003FFA9
:1087E000FFF803FFFC000000000001FFFF00000095
:1087F0000000000000007FFFFFFFFFFFFFFFF00011
:10880000000000000FFFFFE000000000000000017A
:10881000FFFF0000000000003FFFFFFFFFF8000027
:1088200000000003FFFFFFFFFFFFFFFFF00000005D
:108830000000000000000000000000FFFFF000004A
:10884000000003FFFFF803FFFC000000000001FF31
:10885000FF0000000000000000007FFFFFFFFFFF9F
:10886000FFFFF00000000000007FFC00000000009F
:10887000000000007FFC00000000000007FFFFFF79
:10888000FF00000000000003FFFFFFFFFFFFFFFFEE
:10889000F00000000000000000000000000000FFE9
:1088A000FFE00000000000FFFFF803FFFC000000F5
:1088B000000001FFFF0000000000000000000000B9
:1088C00000000000000000000000000000000000A8
:1088D00000000000000000000FE0000000000000A9
:1088E000000FFFFFC00000000000000000000000BB
:1088F0000000000000000000000000000000000078
:10890000000001FFFFE00000000000FFFFFC03FF8C
:10891000FC000000000001FFFF000000000000005C
:108920000000000000000000000000000000000047
:108930000000000000000000000000000000000037
:108940000000000000000000000000000000000027
:108950000000000000000000000000000000000017
:1089600000000000000001FFFFE00000000000FF29
:10897000FFFC03FFFC000000000001FFFF000000FF
:1089800000000000000000000000000000000000E7
:1089900000000000000000000000000000000000D7
:1089A00000000000000000000000000000000000C7
:1089B00000000000000000000000000000000000B7
:1089C0000000000000000000000001FFFFE00000C8
:1089D000000000FFFFFC03FFFC000000000001FF9F
:1089E000FF00000000000000000000000000000088
:1089F0000000000000000000000000000000000077
:108A00000000000000000000000000000000000066
:108A10000000000000000000000000000000000056
:108A2000000000000000000000000000000001FF46
:108A3000FFE000000000007FFFFC03FFFC000000DF
:108A4000000001FFFF000000000000000000000027
:108A50000000000000000000000000000000000016
:108A60000000000000000000000000000000000006
:108A700000000000000000000000000000000000F6
:108A800000000000000000000000000000000000E6
:108A9000000001FFFF8000000000007FFFFC03FFDB
:108AA000FC000000000001FFFF00000000000000CB
:108AB00000000000000000000000000000000000B6
:108AC00000000000000000000000000000000000A6
:108AD0000000000000000000000000000000000096
:108AE0000000000000000000000000000000000086
:108AF00000000000000007FFFF8000000000007F72
:108B0000FFFE03FFFC000000000001FFFF0000006B
:108B10000000000000000000000000000000000055
:108B20000000000000000000000000000000000045
:108B30000000000000000000000000000000000035
:108B40000000000000000000000000000000000025
:108B50000000000000000000000007FFFF80000090
:108B60000000007FFFFE03FFFC000000000001FF8B
:108B7000FF000000000000000000000000000000F6
:108B800000000000000000000000000000000000E5
:108B900000000000000000000000000000000000D5
:108BA00000000000000000000000000000000000C5
:108BB000000000000000000000000000000007FFAF
:108BC000FF8000000000007FFFFE03FFFC000000AC
:108BD000000001FFFF000000000000000000000096
:108BE0000000000000000000000000000000000085
:108BF0000000000000000000000000000000000075
:108C00000000000000000000000000000000000064
:108C10000000000000000000000000000000000054
:108C2000000007FFFF0000000000003FFFFE03FF01
:108C3000FC000000000001FFFF0000000000000039
:108C40000000000000000000000000000000000024
:108C50000000000000000000000000000000000014
:108C60000000000000000000000000000000000004
:108C700000000000000000000000000000000000F4
:1099E0000000000000000000FFFFFFFFFFFFFFFF7F
:1099F000FFFFFFFFFFFFFFFFFFFFFFFFFFFFFFFF77
:109A0000FFFFFFFFFFFFFFFFFFFFFFFFFFFFFFFF66
:109A1000FFFFFFFFFFFFFFFFFFFFFFFFFFFFFFFF56
:109A2000FFFFFFFFFFFFFFFFFFFFFFFFFFFFFFFF46
:109CA000FFFFFFFFFF80000000000000000007FF33
:109CB000FFFFFFFFFFFFFFFFFFFFFFFFFFFFFFFFB4
:109CC000FFFFFFFFFFFFFFFFFFFFFFFFFFFFFFFFA4
:109CD000FFFFFFFFFFFFFFFFFFFFFFFFFFFFFFFF94
:109CE000FFFFFFFFFFFFFFFFFFFFFFFFFFFFFFFF84
:109CF000FFFFFFFFFFFFFFFFFFFFFFFFFFFFFFFF74
:109D0000FFFFFFFFFFFFFFFFFF80000000000000DC
:109D1000000007FFFFFFFFFFFFFFFFFFFFFFFFFF49
:109D2000FFFFFFFFFFFFFFFFFFFFFFFFFFFFFFFF43
:109D3000FFFFFFFFFFFFFFFFFFFFFFFFFFFFFFFF33
:109D4000FFFFFFFFFFFFFFFFFFFFFFFFFFFFFFFF23
:109D5000FFFFFFFFFFFFFFFFFFFFFFFFFFFFFFFF13
:109D6000FFFFFFFFFFFFFFFFFFFFFFFFFF80000080
:109D7000000000000000001FFFFFFFFFFFFFFFFFCC
:109D8000FFFFFFFFFFFFFFFFFFFFFFFFFFFFFFFFE3
:109D9000FFFFFFFFFFFFFFFFFFFFFFFFFFFFFFFFD3
:109DA000FFFFFFFFFFFFFFFFFFFFFFFFFFFFFFFFC3
:109DB000FFFFFFFFFFFFFFFFFFFFFFFFFFFFFFFFB3
:109DC000FFFFFFFFFFFFFFFFFFFFFFFFFFFFFFFFA3
:109DD000FF8000000000000000000000FFFFFFFF08
:109DE000FFFFFFFFFFFFFFFFFFFFFFFFFFFFFFFF83
:109DF000FFFFFFFFFFFFFFFFFFFFFFFFFFFFFFFF73
:109E0000FFFFFFFFFFFFFFFFFFFFFFFFFFFFFFFF62
:109E1000FFFFFFFFFFFFFFFFFFFFFFFFFFFFFFFF52
:109E2000FFFFFFFFFFFFFFFFFFFFFFFFFFFFFFFF42
:109E3000FFFFFFFFFF8000000000000000000000A7
:109E40001FFFFFFFFFFFFFFFFFFFFFFFFFFFFFFF02
:109E5000FFFFFFFFFFFFFFFFFFFFFFFFFFFFFFFF12
:109E6000FFFFFFFFFFFFFFFFFFFFFFFFFFFFFFFF02
:109E7000FFFFFFFFFFFFFFFFFFFFFFFFFFFFFFFFF2
:109E8000FFFFFFFFFFFFFFFFFFFFFFFFFFFFFFFFE2
:109E9000FFFFFFFFFFFFFFFFFF800000000000004B
:109EA0000000000003FFFFFFFFFFFFFFFFFFFFFFBA
:109EB000FFFFFFFFFFFFFFFFFFFFFFFFFFFFFFFFB2
:109EC000FFFFFFFFFFFFFFFFFFFFFFFFFFFFFFFFA2
:109ED000FFFFFFFFFFFFFFFFFFFFFFFFFFFFFFFF92
:109EE000FFFFFFFFFFFFFFFFFFFFFFFFFFFFFFFF82
:109EF000FFFFFFFFFFFFFFFFFFFFFFFFFF800000EF
:109F0000000000000000000003FFFFFFFFFFFFFF55
:109F1000FFFFFFFFFFFFFFFFFFFFFFFFFFFFFFFF51
:109F2000FFFFFFFFFFFFFFFFFFFFFFFFFFFFFFFF41
:109F3000FFFFFFFFFFFFFFFFFFFFFFFFFFFFFFFF31
:109F4000FFFFFFFFFFFFFFFFFFFFFFFFFFFFFFFF21
:109F5000FFFFFFFFFFFFFFFFFFFFFFFFFFFFFFFF11
:109F6000FF8000000000000000000000007FFFFFF5
:109F7000FFFFFFFFFFFFFFFFFFFFFFFFFFFFFFFFF1
:109F8000FFFFFFFFFFFFFFFFFFFFFFFFFFFFFFFFE1
:109F9000FFFFFFFFFFFFFFFFFFFFFFFFFFFFFFFFD1
:109FA000FFFFFFFFFFFFFFFFFFFFFFFFFFFFFFFFC1
:109FB000FFFFFFFFFFFFFFFFFFFFFFFFFFFFFFFFB1
:109FC000FFFFFFFFFF800000000000000000000016
:109FD000001FFFFFFFFFFFFFFFFFFFFFFFFFFFFF70
:109FE000FFFFFFFFFFFFFFFFFFFFFFFFFFFFFFFF81
:109FF000FFFFFFFFFFFFFFFFFFFFFFFFFFFFFFFF71
:10A00000FFFFFFFFFFFFFFFFFFFFFFFFFFFFFFFF60
:10A01000FFFFFFFFFFFFFFFFFFFFFFFFFFFFFFFF50
:10A02000FFFFFFFFFFFFFFFFFF80000000000000B9
:10A03000000000000003FFFFFFFFFFFFFFFFFFFF27
:10A04000FFFFFFFFFFFFFFFFFFFFFFFFFFFFFFFF20
:10A05000FFFFFFFFFFFFFFFFFFFFFFFFFFFFFFFF10
:10A06000FFFFFFFFFFFFFFFFFFFFFFFFFFFFFFFF00
:10A07000FFFFFFFFFFFFFFFFFFFFFFFFFFFFFFFFF0
:10A08000FFFFFFFFFFFFFFFFFFFFFFFFFF8000005D
:10A0900000000000000000000000FFFFFFFFFFFFC6
:10A0A000FFFFFFFFFFFFFFFFFFFFFFFFFFFFFFFFC0
:10A0B000FFFFFFFFFFFFFFFFFFFFFFFFFFFFFFFFB0
:10A0C000FFFFFFFFFFFFFFFFFFFFFFFFFFFFFFFFA0
:10A0D000FFFFFFFFFFFFFFFFFFFFFFFFFFFFFFFF90
:10A0E000FFFFFFFFFFFFFFFFFFFFFFFFFFFFFFFF80
:10A0F000FF80000000000000000000000000FFFFE3
:10A10000FFFFFFFFFFFFFFFFFFFFFFFFFFFFFFFF5F
:10A11000FFFFFFFFFFFFFFFFFFFFFFFFFFFFFFFF4F
:10A12000FFFFFFFFFFFFFFFFFFFFFFFFFFFFFFFF3F
:10A13000FFFFFFFFFFFFFFFFFFFFFFFFFFFFFFFF2F
:10A14000FFFFFFFFFFFFFFFFFFFFFFFFFFFFFFFF1F
:10A15000FFFFFFFFFF800000000000000000000084
:10A1600000003FFFFFFFFFFFFFFFFFFFFFFFFFFFBD
:10A17000FFFFFFFFFFFFFFFFFFFFFFFFFFFFFFFFEF
:10A18000FFFFFFFFFFFFFFFFFFFFFFFFFFFFFFFFDF
:10A19000FFFFFFFFFFFFFFFFFFFFFFFFFFFFFFFFCF
:10A1A000FFFFFFFFFFFFFFFFFFFFFFFFFFFFFFFFBF
:10A1B000FFFFFFFFFFFFFFFFFF8000000000000028
:10A1C0000000000000001FFFFFFFFFF801FFFFFF7E
:10A1D000F801FFFFFFF003FFFFFC0000000FFFFF8F
:10A1E000800FFFFFFFFFFFE001E000000000000024
:10A1F000007FFFE000000000007F801FFFFFFFFFE7
:10A20000F007FFFFE00000007FFFFF80000000007C
:10A21000003FFFE000000000000000FFFF800000A2
:10A220000000000000000000000007FFFFFFFFF833
:10A2300001FFFFFFF801FFFFFFF003FFFFC0000079
:10A240000003FFFF8003FFFFFFFFFFE003E00000CC
:10A2500000000000007FFE0000000000007F801F63
:10A26000FFFFFFFFF007FFFE000000000FFFFF8071
:10A27000000000000007FFE000000000000000FFF9
:10A28000FF8000000000000000000000000001FF4F
:10A29000FFFFFFF801FFFFFFF801FFFFFFF003FFE3
:10A2A000FF00000000007FFFC003FFFFFFFFFF80F3
:10A2B00003E000000000000000FFF80000000000C4
:10A2C000007F807FFFFFFFFFF007FFF80000000026
:10A2D00003FFFF80000000000000FFE0000000001E
:10A2E000000000FFFF8000000000000000000000F0
:10A2F000000001FFFFFFFFF801FFFFFFF801FFFF74
:10A30000FFF003FFFF00000000007FFFC003FFFF1E
:10A31000FFFFFF8003E000000000000000FFF800E6
:10A3200000000000007F807FFFFFFFFFF007FFF8C5
:10A330000000000003FFFF80000000000000FFE0BD
:10A3400000000000000000FFFF800000000000008F
:10A3500000000000000000FFFFFFFFF801FFFFFF0B
:10A36000F801FFFFFFF003FFFC00000000001FFFEB
:10A37000C001FFFFFFFFFF8007E0000000000000BA
:10A3800000FFE00000000000007F807FFFFFFFFF74
:10A39000F007FFF000000000007FFF8000000000D9
:10A3A00000007FE000000000000000FFFF800000D0
:10A3B00000000000000000000000007FFFFFFFF829
:10A3C00001FFFFFFF801FFFFFFF003FFF0000000B7
:10A3D000000007FFF001FFFFFFFFFF0007E00000A4
:10A3E0000000000000FFC00000000000007F807F30
:10A3F000FFFFFFFFF007FF8000000000003FFF802D
:10A400000000000000003FE000000000000000FF2E
:10A41000FF80000000000000000000010000003F7D
:10A42000FFFFFFF801FFFFFFF801FFFFFFF003FF51
:10A43000F0000000000003FFF000FFFFFFFFFF003F
:10A440001FE000000000000000FF8000000000008E
:10A45000007F807FFFFFFFFFF007FF00000000008C
:10A46000001FFF800000000000000FE0000000005F
:10A47000000000FFFF80000000000000000000035B
:10A480000000000FFFFFFFF801FFFFFFF801FFFFD3
:10A49000FFF003FFE0000000000001FFF800FFFFF5
:10A4A000FFFFFE001FE000000000000000FF800032
:10A4B00000000000007F807FFFFFFFFFF007FE002D
:10A4C00000000000000FFF800000000000000FE00F
:10A4D00000000000000000FFFF80000000000000FE
:10A4E000000000030000000FFFFFFFF801FFFFFF67
:10A4F000F801FFFFFFF003FFE0000000000001FF94
:10A50000F800FFFFFFFFFE001FE00000000000005A
:10A5100000FF800000000000007F807FFFFFFFFF42
:10A52000F007FE0000000000000FFF8000000000A8
:10A5300000000FE000000000000000FFFF800000AE
:10A54000000000000000000F00000007FFFFFFF800
:10A5500001FFFFFFF801FFFFFFF003FF8000000095
:10A56000000000FFF8007FFFFFFFFE003FE000005B
:10A570000000000000FF000000000000007F807F5E
:10A58000FFFFFFFFF007FE00000000000003FF8058
:10A5900000000000000007E000000000000000FFD5
:10A5A000FF800000000000000000001F000000030A
:10A5B000FFFFFFF801FFFFFFF801FFFFFFF003FFC0
:10A5C00000000000000000FFFC007FFFFFFFFC0018
:10A5D0003FE0000000000000007F000000000000DD
:10A5E000007F807FFFFFFFFFF007F8000000000002
:10A5F0000003FF8000000000000007E000000000F2
:10A60000000000FFFF800000000000000000003F8D
:10A6100000000001FFFFFFF801FFFFFFF801FFFF4F
:10A62000FFF003FF000000000000003FFC001FFFE0
:10A63000FFFFFC007FE000000000000000FF0000C2
:10A640000000000000FF807FFFFFFFFFF007F80021
:10A65000000000000001FF8000000000000007E093
:10A6600000000000000000FFFF800000000000006C
:10A670000000007F000000007FFFFFF801FFFFFFE8
:10A68000F801FFFFFFF003FF0000FFFFFFE0003FC6
:10A69000FE001FFFFFFFF000FFE003FFFFFFFFFFD3
:10A6A000FFFF000FFFFFFFFFFFFF807FFFFFFFFFA8
:10A6B000F007F00003FFFFFE0001FF803FFFFFFFF8
:10A6C000FF0007E007FFFFFFFFFFFFFFFF80000025
:10A6D000000000000000007F000000007FFFFFF886
:10A6E00001FFFFFFF801FFFFFFF003FF0000FFFF86
:10A6F000FFE0003FFE001FFFFFFFF000FFE003FF51
:10A70000FFFFFFFFFFFF000FFFFFFFFFFFFF807F47
:10A71000FFFFFFFFF007F00003FFFFFE0001FF80D7
:10A720003FFFFFFFFF0007E007FFFFFFFFFFFFFF07
:10A73000FF80000000000000000001FF000000009A
:10A740007FFFFFF801FFFFFFF801FFFFFFF003FEAF
:10A750000003FFFFFFF8001FFE000FFFFFFFF000E8
:10A76000FFE003FFFFFFFFFFFFFF003FFFFFFFFFD3
:10A77000FFFF807FFFFFFFFFF007F0001FFFFFFFDD
:10A780008000FF803FFFFFFFFFE007E007FFFFFFC4
:10A79000FFFFFFFFFF80000000000000000003FF3C
:10A7A000000000003FFFFFF801FFFFFFF801FFFF7F
:10A7B000FFF003FE0007FFFFFFFC001FFF800FFFFD
:10A7C000FFFFE003FFE003FFFFFFFFFFFFFF003F8E
:10A7D000FFFFFFFFFFFF807FFFFFFFFFF007F0009D
:10A7E0003FFFFFFFF000FF803FFFFFFFFFE007E0BC
:10A7F00007FFFFFFFFFFFFFFFF80000000000000DA
:10A80000000007FF000000001FFFFFF801FFFFFF2F
:10A81000F801FFFFFFF003FE001FFFFFFFFF001F17
:10A82000FF8007FFFFFFE003FFE003FFFFFFFFFFE5
:10A83000FFFF003FFFFFFFFFFFFF807FFFFFFFFFE6
:10A84000F007F001FFFFFFFFF800FF803FFFFFFF71
:10A85000FFE007E007FFFFFFFFFFFFFFFF800000B3
:10A860000000000000000FFF000000000FFFFFF8D5
:10A8700001FFFFFFF801FFFFFFF003FE003FFFFFB6
:10A88000FFFF801FFFC007FFFFFFC007FFE003FFC0
:10A89000FFFFFFFFFFFF001FFFFFFFFFFFFF807FA6
:10A8A000FFFFFFFFF007F001FFFFFFFFF800FF8051
:10A8B0003FFFFFFFFFE007E007FFFFFFFFFFFFFF96
:10A8C000FF8000000000000000000FFF00000000FB
:10A8D0000FFFFFF801FFFFFFF801FFFFFFF003FE8E
:10A8E000003FFFFFFFFF801FFFC007FFFFFFC00704
:10A8F000FFE003FFFFFFFFFFFFFF001FFFFFFFFF62
:10A90000FFFF807FFFFFFFFFF007F001FFFFFFFF6A
:10A91000F800FF803FFFFFFFFFE007E007FFFFFFBA
:10A92000FFFFFFFFFF8000000000000000000FFF9E
:10A93000000000000FFFFFF801FFFFFFF801FFFF1D
:10A94000FFF003FE007FFFFFFFFF801FFFC003FF3C
:10A95000FFFFC007FFE003FFFFFFFFFFFFFF000F48
:10A96000FFFFFFFFFFFF801FFFFFFFFFE007F00378
:10A97000FFFFFFFFFC00FF803FFFFFFFFFE007E05E
:10A9800007FFFFFFFFFFFFFFFF8000000000000048
:10A9900000003FFF0000000003FFFFF801FFFFFF82
:10A9A000F801FFFFFFF003FE007FFFFFFFFF801FA6
:10A9B000FFE003FFFFFF800FFFE000000000000149
:10A9C000FFFF000000000001FFFF8000000000000A
:10A9D0000007F003FFFFFFFFFC00FF803FFFFFFFCA
:10A9E000FFE007E0000000000003FFFFFF80000021
:10A9F0000000000000007FFF0000000003FFFFF8E0
:10AA000001FFFFFFF801FFFFFFF003FE00FFFFFF64
:10AA1000FFFFC01FFFE000FFFFFF800FFFE000000F
:10AA200000000001FFFF0000000000001FFF800089
:10AA3000000000000007F007FFFFFFFFFC00FF80A1
:10AA40003FFFFFFFFFE007E0000000000003FFFF03
:10AA5000FF800000000000000000FFFF0000000079
:10AA600001FFFFF801FFFFFFF801FFFFFFF003FE0A
:10AA700000FFFFFFFFFFC01FFFF000FFFFFE001FF2
:10AA8000FFE0000000000001FFFF80000000000068
:10AA900007FF8000000000000007F007FFFFFFFF36
:10AAA000FC00FF803FFFFFFFFFE007E00000000029
:10AAB0000003FFFFFF800000000000000000FFFF18
:10AAC0000000000001FFFFF801FFFFFFF801FFFF9A
:10AAD000FFF003FE00FFFFFFFFFFC01FFFF000FFBE
:10AAE000FFFE001FFFE0000000000001FFFF8000EC
:10AAF0000000000007FF8000000000000007F007D2
:10AB0000FFFFFFFFFC00FF803FFFFFFFFFE007E0CC
:10AB1000000000000003FFFFFF80000000000000B5
:10AB20000001FFFF0000000001FFFFF801FFFFFF31
:10AB3000F801FFFFFFF003FE00FFFFFFFFFFC01F54
:10AB4000FFF0007FFFFE001FFFE00000000000019B
:10AB5000FFFF80000000000001FF800000000000F7
:10AB60000007F007FFFFFFFFFC00FF803FFFFFFF34
:10AB7000FFE007E0000000000003FFFFFF8000008F
:10AB8000000000000007FFFF0000000000FFFFF8CA
:10AB900001FFFFFFF801FFFFFFF003FE00FFFFFFD3
:10ABA000FFFFC01FFFFC007FFFFC007FFFE00000F5
:10ABB00000000001FFFF80000000000000FF800097
:10ABC000000000000007F007FFFFFFFFFC00FF8010
:10ABD0003FFFFFFFFFE007E0000000000003FFFF72
:10ABE000FF80000000000000000FFFFF00000000D9
:10ABF00000FFFFF801FFFFFFF801FFFFFFF003FE7A
:10AC000000FFFFFFFFFFC01FFFFC003FFFFC007FB6
:10AC1000FFE0000000000001FFFFC0000000000096
:10AC2000007F8000000000000007F007FFFFFFFF2B
:10AC3000FC00FF803FFFFFFFFFE007E00000000097
:10AC40000003FFFFFF80000000000000000FFFFF77
:10AC500000000000007FFFF801FFFFFFF801FFFF89
:10AC6000FFF003FE00FFFFFFFFFFC01FFFFE003FDE
:10AC7000FFF800FFFFE0000000000001FFFFE00020
:10AC800000000000007F8000000000000007F007C7
:10AC9000FFFFFFFFFC00FF803FFFFFFFFFC007E05B
:10ACA000000000000003FFFFFF8000000000000024
:10ACB000000FFFFF00000000007FFFF801FFFFFF13
:10ACC000F801FFFFFFF003FE00FFFFFFFFFFC01FC3
:10ACD000FFFE003FFFF800FFFFE000000000000162
:10ACE000FFFFE00000000000007F80000000000087
:10ACF0000007F007FFFFFFFFFC00FF803FFFFFFFA3
:10AD0000FFC007E0000000000003FFFFFF8000001D
:10AD1000000000000000FFFF00000000007FFFF8BF
:10AD200001FFFFFFF801FFFFFFF003FE00FFFFFF41
:10AD3000FFFFC01FFFFF001FFFF000FFFFE000004C
:10AD400000000001FFFFFC0000000000003F800049
:10AD5000000000000007F007FFFFFFFFFC00FF807E
:10AD600000000000000007E0000000000003FFFFFB
:10AD7000FF800000000000000001FFFF0000000055
:10AD8000007FFFF801FFFFFFF801FFFFFFF003FE68
:10AD9000007FFFFFFFFF801FFFFF001FFFF001FF8D
:10ADA000FFE0000000000001FFFFFF0000000000C6
:10ADB000003F8000000000000007F003FFFFFFFFDE
:10ADC000FC00FF8000000000000007E00000000021
:10ADD0000003FFFFFF801FFFF0001FF80001FFFFCF
:10ADE000003FF000001FFFF801FFFFFFF801FFFF29
:10ADF000FFF003FE000000000000001FFFFF00073F
:10AE0000FFC001FFFFE0000000000001FFFFFFFEA8
:10AE100000000000003F8000000000000007F0007C
:10AE2000000000000000FF8000000000000007E0BC
:10AE3000000000000003FFFFFF801FFFF8003FFC41
:10AE40000001FFFF007FF800001FFFF801FFFFFF78
:10AE5000F801FFFFFFF003FE000000000000001FEC
:10AE6000FFFF8007FFC003FFFFE003FFFFFFFFFFBF
:10AE7000FFFFFFFFFFFFFFFC003F801FFFFFFFFF03
:10AE8000F007F000000000000000FF80000000005C
:10AE9000000007E007FFFFFFFFFFFFFFFF801FFF2E
:10AEA000F8003FFC0001FFFF007FF800001FFFF8E3
:10AEB00001FFFFFFF801FFFFFFF003FE00000000AD
:10AEC0000000001FFFFF8007FFC003FFFFE003FF3C
:10AED000FFFFFFFFFFFFFFFFFFFFFFFC003F801FA3
:10AEE000FFFFFFFFF007F000000000000000FF8000
:10AEF00000000000000007E007FFFFFFFFFFFFFF6B
:10AF0000FF801FFFF8007FFC0007FFF3007FF800C1
:10AF1000000FFFF801FFFFFFF801FFFFFFF003FE46
:10AF2000000000000000001FFFFF8003FF8003FF00
:10AF3000FFE003FFFFFFFFFFFFFFFFFFFFFFFFFF3C
:10AF4000003F807FFFFFFFFFF007F00000000000E0
:10AF50000000FF800000000000000FE007FFFFFF7F
:10AF6000FFFFFFFFFF800FFFF8007FFC0007FFF0EF
:10AF700000FFFE00000FFFF801FFFFFFF801FFFFD9
:10AF8000FFF003FE000000000000001FFFFFE003D1
:10AF9000FF800FFFFFE003FFFFFFFFFFFFFFFFFF4B
:10AFA000FFFFFFFF003F807FFFFFFFFFF007F00084
:10AFB000000000000000FF800000000000000FE023
:10AFC00007FFFFFFFFFFFFFFFF800FFFFE007FFF78
:10AFD000000FFFE000FFFE00000FFFF801FFFFFF82
:10AFE000F801FFFFFFF003FE000000000000001F5B
:10AFF000FFFFF001FF000FFFFFE003FFFFFFFFFF78
:10B00000FFFFFFFFFFFFFFFFC03F807FFFFFFFFF4E
:10B01000F007F000000000000000FF8000000000CA
:10B0200000003FE007FFFFFFFFFFFFFFFF8007FF7C
:10B03000FE01FFFF000FFFE003FFFF00000FFFF81E
:10B0400001FFFFFFF801FFFFFFF003FE000000001B
:10B050000000001FFFFFF001FF001FFFFFE003FFE4
:10B06000FFFFFFFFFFFFFFFFFFFFFFFFC03F807FEE
:10B07000FFFFFFFFF007F000000000000000FF806E
:10B080000000000000007FE007FFFFFFFFFFFFFF61
:10B09000FF8007FFFE01FFFF000FFFE003FFFF003F
:10B0A000000FFFF801FFFFFFF801FFFFFFF003FEB5
:10B0B000000000000000001FFFFFF001FF001FFF65
:10B0C000FFE003FFFFFFFFFFFFFFFFFFFFFFFFFFAB
:10B0D000C03F807FFFFFFFFFF007F000000000008F
:10B0E0000000FF800000000000007FE007FFFFFF7E
:10B0F000FFFFFFFFFF8007FFFE01FFFF801FFFE054
:10B1000003FFFF000007FFF801FFFFFFF801FFFF4B
:10B11000FFF003FE000000000000001FFFFFF00032
:10B12000FE001FFFFFE003FFFFFFFFFFFFFFFFFF2A
:10B13000FFFFFFFFC03F807FFFFFFFFFF007F00032
:10B14000000000000000FF80000000000001FFE0A0
:10B1500007FFFFFFFFFFFFFFFF8007FFFF01FFFF6C
:10B16000801FFFC003FFFF800007FFF801FFFFFF04
:10B17000F801FFFFFFF003FE000000000000001FC9
:10B18000FFFFF800FE003FFFFFE003FFFFFFFFFFB0
:10B19000FFFFFFFFFFFFFFFFC03F807FFFFFFFFFBD
:10B1A000F007F000000000000000FF800000000039
:10B1B000000FFFE007FFFFFFFFFFFFFFFF8007FF1C
:10B1C000FF03FFFF801FFFC007FFFF800007FFF89E
:10B1D00001FFFFFFF801FFFFFFF003FE000000008A
:10B1E0000000001FFFFFF80038003FFFFFE003FFF3
:10B1F000FFFFFFFFFFFFFFFFFFFFFFFFC03F807F5D
:10B20000FFFFFFFFF007F000000000000000FF80DC
:10B210001F00001FFFFFFFE007FFFFFFFFFFFFFF13
:10B22000FF8003FFFF03FFFFC03FFF8007FFFFC05A
:10B230000007FFF801FFFFFFF801FFFFFFF003FE2B
:10B24000000000000000001FFFFFFC0038007FFF2F
:10B25000FFE003FFFFFFFFFFFFFFFFFFFFFFFFFF19
:10B26000C03F807FFFFFFFFFF007F00000000000FD
:10B270000000FF803F80000FFFFFFFE007FFFFFFA0
:10B28000FFFFFFFFFF8003FFFF03FFFFC03FFF80C3
:10B2900007FFFFC00007FFF801FFFFFFF801FFFFF6
:10B2A000FFF003FE000000000000001FFFFFFC0095
:10B2B00038007FFFFFE003FFFFFFFFFFFFFFFFFFFF
:10B2C000FFFFFFFFC03F807FFFFFFFFFF007F000A1
:10B2D000000000000000FF803F80000FFFFFFFE044
:10B2E00007FFFFFFFFFFFFFFFF8003FFFF83FFFF5D
:10B2F000C03FFF800FFFFFC00007FFF801FFFFFF07
:10B30000F801FFFFFFF003FE00FFFFFFFFFFC01F7C
:10B31000FFFFFF001801FFFFFFE003FFFFFFFFFF3C
:10B32000FFFFFFFFFFFFFFFFC03F807FFFFFFFFF2B
:10B33000F007F007FFFFFFFFFC00FF803FF0000772
:10B34000FFFFFFE007FFFFFFFFFFFFFFFF8003FF9F
:10B35000FF87FFFFC0FFFE000FFFFFF00003FFF8B5
:10B3600001FFFFFFF801FFFFFFF003FE00FFFFFFFB
:10B37000FFFFC01FFFFFFF000001FFFFFFE003FF13
:10B38000FFFFFFFFFFFFFFFFFFFFFFFFC03F807FCB
:10B39000FFFFFFFFF007F007FFFFFFFFFC00FF804C
:10B3A0003FF80000FFFFFFE007FFFFFFFFFFFFFF89
:10B3B000FF8000FFFF87FFFFE0FFFE001FFFFFF0A1
:10B3C0000003FFF801FFFFFFF801FFFFFFF003FE9E
:10B3D00000FFFFFFFFFFC01FFFFFFF800003FFFF15
:10B3E000FFE003FFFFFFFFFFFFFFFFFFFFFFFFFF88
:10B3F000C03F807FFFFFFFFFF007F007FFFFFFFF69
:10B40000FC00FF803FFE00007FFFFFE007FFFFFF23
:10B41000FFFFFFFFFF8000FFFFC7FFFFE1FFFE0010
:10B420001FFFFFF80003FFF801FFFFFFF801FFFF18
:10B43000FFE003FE00FFFFFFFFFFC01FFFFFFF80D5
:10B440000003FFFFFFE003FFFFFFFFFFFFFFFFFF22
:10B45000FFFFFFFF003F807FFFFFFFFFF007F007C8
:10B46000FFFFFFFFFC00FF803FFF80001FFFFFE0AA
:10B4700007FFFFFFFFFFFFFFFF8000FFFFC7FFFF8A
:10B48000E1FFFE001FFFFFF80003FFF801FFFFFFD1
:10B49000F801FFFFFFE003FE00FFFFFFFFFFC01FFB
:10B4A000FFFFFF800003FFFFFFE003FFFFFFFFFF41
:10B4B000FFFFFFFFFFFFFFFF003F807FFFFFFFFF5A
:10B4C000F007F007FFFFFFFFFC00FF803FFF800059
:10B4D0001FFFFFE007FFFFFFFFFFFFFFFF8000FFF1
:10B4E000FFCFFFFFF9FFFC001FFFFFF80003FFF88D
:10B4F000003FFFFFF801FFFFFFC003FE00FFFFFF5B
:10B50000FFFFC01FFFFFFFC00007FFFFFFE003FFBB
:10B51000FFFFFFFFFFFFFFFFFFFFFFFE003F807FFA
:10B52000FFFFFFFFF007F007FFFFFFFFFC00FF80BA
:10B530003FFFE00007FFFFE007FFFFFFFFFFFFFF08
:10B54000FF80007FFFCFFFFFF9FFFC007FFFFFFCC4
:10B550000003FFF8000FFFFFF801FFFFFC0003FEF0
:10B5600000FFFFFFFFFFC01FFFFFFFC00007FFFF3F
:10B57000FFE003FFFFFFFFFFFFFFFFFFFFFFFFE015
:10B58000003F807FFFFFFFFFF007F007FFFFFFFF97
:10B59000FC00FF803FFFF00001FFFFE007FFFFFF1F
:10B5A000FFFFFFFFFF80007FFFFFFFFFFBFFF800B3
:10B5B0007FFFFFFC0003FFF8000000000000000018
:10B5C000000003FE00FFFFFFFFFFC01FFFFFFFE0C3
:10B5D000000FFFFFFFE000000000000000FF000080
:10B5E00000000000003F807FFFFFFFFFF007F00733
:10B5F000FFFFFFFFFC00FF803FFFFC0000FFFFE0BC
:10B6000000000000000000FFFF80007FFFFFFFFF41
:10B61000FFFFF840FFFFFFFC0003FFF80000000001
:10B6200000000000000003FE00FFFFFFFFFFC01F3F
:10B63000FFFFFFE0000FFFFFFFE000000000000041
:10B64000007F000000000000003F807FFFFFFFFF41
:10B65000F007F007FFFFFFFFFC00FF803FFFFF0048
:10B66000001FFFE000000000000000FFFF80007FDF
:10B67000FFFFFFFFFFFFF840FFFFFFFC0003FFF8A5
:10B680000000000000000000000003FE00FFFFFFBC
:10B69000FFFFC01FFFFFFFE0000FFFFFFFE0000004
:10B6A00000000000007F000000000000003F807FDD
:10B6B000FFFFFFFFF007F007FFFFFFFFFC00FF8029
:10B6C0003FFFFF00001FFFE000000000000000FF40
:10B6D000FF80003FFFFFFFFFFFFFF1E0FFFFFFFEE6
:10B6E0000003FFF80000000000000000000007FE5B
:10B6F00000FFFFFFFFFFC01FFFFFFFF8003FFFFF3E
:10B70000FFE000000000000000FF0000000000005B
:10B71000003F807FFFFFFFFFF007F007FFFFFFFF05
:10B72000FC00FF803FFFFF80000FFFE000000000F3
:10B73000000000FFFF80003FFFFFFFFFFFFFF3E17E
:10B74000FFFFFFFE0003FFFE0000000000000000FE
:10B75000000007FE00FFFFFFFFFFC01FFFFFFFF815
:10B76000003FFFFFFFE000000000000000FF0000BE
:10B7700000000000007F807FFFFFFFFFF007F00761
:10B78000FFFFFFFFFC00FF803FFFFFF00007FFE02F
:10B7900000000000000000FFFF80003FFFFFFFFFF0
:10B7A000FFFFF3C1FFFEFFFF8003FFFF000000006B
:10B7B0000000000000000FFE00FFFFFFFFFFC01FA2
:10B7C000FFFFFFFC007FFFFFFFE000000000000024
:10B7D00000FF00000000000000FF807FFFFFFFFF70
:10B7E000F007F007FFFFFFFFFC00FF803FFFFFF8BF
:10B7F0000000FFE000000000000000FFFF80001FCD
:10B80000FFFFFDFFFFFFC3DFFFFCFFFF8003FFFF24
:10B81000800000000000000000000FFE00FFFFFF9E
:10B82000FFFFC01FFFFFFFFC007FFFFFFFE00000E6
:10B830000000000000FF00000000000001FF807F0A
:10B84000FFFFFFFFF007F007FFFFFFFFFC00FF8097
:10B850003FFFFFFC00007FE000000000000000FF51
:10B86000FF80001FFFFFFDFFFFFFC3DFFFFCFFFFA7
:10B870008003FFFF800000000000000000000FFEBA
:10B8800000FFFFFFFFFFC01FFFFFFFFC007FFFFF68
:10B89000FFE000000000000000FF000000000000CA
:10B8A00001FF807FFFFFFFFFF007F007FFFFFFFFB3
:10B8B000FC00FF803FFFFFFC00007FE00000000075
:10B8C000000000FFFF80001FFFFFFCFFFFFFC79F7E
:10B8D000FFFC3FFFC003FFFFC000000000000000AE
:10B8E00000003FFE00FFFFFFFFFFC01FFFFFFFFE46
:10B8F00000FFFFFFFFE000000000000000FF00006D
:10B900000000000007FF807FFFFFFFFFF007F00748
:10B91000FFFFFFFFFC00FF803FFFFFFF80000FE005
:10B9200000000000000000FFFF800007FFFFFCFF99
:10B93000FFFF87BFFFFC3FFFC003FFFFF0000000D9
:10B94000000000000000FFFE00FFFFFFFFFFC01F20
:10B95000FFFFFFFE00FFFFFFFFE000000000000010
:10B9600000FF0000000000001FFF807FFFFFFFFFBF
:10B97000F007F007FFFFFFFFFC00FF803FFFFFFF26
:10B98000C00007E000000000000000FFFFC000074B
:10B99000FFFFF0FFFFFF8E1FFFF81FFFE003FFFF19
:10B9A000FE000000000000000007FFFE00FFFFFF98
:10B9B000FFFFC01FFFFFFFFF01FFFFFFFFE00000D1
:10B9C00000000000007F000000000000FFFF807FFB
:10B9D000FFFFFFFFF007F007FFFFFFFFFC00FF8006
:10B9E0003FFFFFFFF80001E000000000000000FF43
:10B9F000FFC00007FFFFF07FFFFF8E3FFFF81FFF34
:10BA0000E003FFFFFFE000000000000000FFFFFE7A
:10BA100000FFFFFFFFFFC01FFFFFFFFFC7FFFFFF8C
:10BA2000FFE000000000000000FF00000000001F19
:10BA3000FFFF807FFFFFFFFFF007F007FFFFFFFF23
:10BA4000FC00FF803FFFFFFFFC00007000000000D3
:10BA5000000000FFFFC00007FFFFF07FFFFF8E3FE9
:10BA6000FFF81FFFE003FFFFFFE000000000000001
:10BA700000FFFFFE00FFFFFFFFFFC01FFFFFFFFFF4
:10BA8000C7FFFFFFFFE000000000000000FF000014
:10BA90000000001FFFFF807FFFFFFFFFF007F007A0
:10BAA000FFFFFFFFFC00FF803FFFFFFFFC00007077
:10BAB00000000000000000FFFFC00007FFFFF07F54
:10BAC000FFFF3E3FFFE00FFFF003FFFFFFFFFFFF21
:10BAD000FFFFFFFFFFFFFFFFFFFFFFFFFFFFFFFF76
:10BAE000FFFFFFFFFFFFFFFFFFFFFFFFFFFFFFFF66
:10BAF000FFFFFFFFFFFFFFFFFFFFFFFFFFFFFFFF56
:10BB0000FFFFFFFFFFFFFFFFFFFFFFFFFFFFFFFF45
:10BB1000FFFFFFFFFFFFFFFFFFFFFFFFFFC000036F
:10BB2000FFFFE07FFFFF3C7FFFE00FFFF003FFFF21
:10BB3000FFFFFFFFFFFFFFFFFFFFFFFFFFFFFFFF15
:10BB4000FFFFFFFFFFFFFFFFFFFFFFFFFFFFFFFF05
:10BB5000FFFFFFFFFFFFFFFFFFFFFFFFFFFFFFFFF5
:10BB6000FFFFFFFFFFFFFFFFFFFFFFFFFFFFFFFFE5
:10BB7000FFFFFFFFFFFFFFFFFFFFFFFFFFFFFFFFD5
:10BB8000FFC00003FFFFE01FFFFF3DFFFFC007FFF7
:10BB9000FC03FFFFFFFFFFFFFFFFFFFFFFFFFFFFB4
:10BBA000FFFFFFFFFFFFFFFFFFFFFFFFFFFFFFFFA5
:10BBB000FFFFFFFFFFFFFFFFFFFFFFFFFFFFFFFF95
:10BBC000FFFFFFFFFFFFFFFFFFFFFFFFFFFFFFFF85
:10BBD000FFFFFFFFFFFFFFFFFFFFFFFFFFFFFFFF75
:10BBE000FFFFFFFFFFC00003FFFFE01FFFFE7DFF21
:10BBF000FFC007FFF003FFFFFFFFFFFFFFFFFFFF97
:10BC0000FFFFFFFFFFFFFFFFFFFFFFFFFFFFFFFF44
:10BC1000FFFFFFFFFFFFFFFFFFFFFFFFFFFFFFFF34
:10BC2000FFFFFFFFFFFFFFFFFFFFFFFFFFFFFFFF24
:10BC3000FFFFFFFFFFFFFFFFFFFFFFFFFFFFFFFF14
:10BC4000FFFFFFFFFFFFFFFFFFC00003FFFFE01F3D
:10BC5000FFFE7DFFFFC007FFF003FFFFFFFFFFFFB9
:10BC6000FFFFFFFFFFFFFFFFFFFFFFFFFFFFFFFFE4
:10BC7000FFFFFFFFFFFFFFFFFFFFFFFFFFFFFFFFD4
:10BC8000FFFFFFFFFFFFFFFFFFFFFFFFFFFFFFFFC4
:10BC9000FFFFFFFFFFFFFFFFFFFFFFFFFFFFFFFFB4
:10BCA000FFFFFFFFFFFFFFFFFFFFFFFFFFE00001C0
:10BCB000FFFFC01FFFFE7BFFFFC00FFFF003FFFF72
:10BCC000FFFFFFFFFFFFFFFFFFFFFFFFFFFFFFFF84
:10BCD000FFFFFFFFFFFFFFFFFFFFFFFFFFFFFFFF74
:10BCE000FFFFFFFFFFFFFFFFFFFFFFFFFFFFFFFF64
:10BCF000FFFFFFFFFFFFFFFFFFFFFFFFFFFFFFFF54
:10BD0000FFFFFFFFFFFFFFFFFFFFFFFFFFFFFFFF43
:10BD1000FFE00001FFFFC00FFFF839FFFF800FFFBA
:10BD2000E003FFFFFFFFFFFFFFFFFFFFFFFFFFFF3E
:10BD3000FFFFFFFFFFFFFFFFFFFFFFFFFFFFFFFF13
:10BD4000FFFFFFFFFFFFFFFFFFFFFFFFFFFFFFFF03
:10BD5000FFFFFFFFFFFFFFFFFFFFFFFFFFFFFFFFF3
:10BD6000FFFFFFFFFFFFFFFFFFFFFFFFFFFFFFFFE3
:10BD7000FFFFFFFFFFE00001FFFFC00FFFF803FF21
:10BD8000FF801FFFE003FFFFFFFFFFFFFFFFFFFF3D
:10BD9000FFFFFFFFFFFFFFFFFFFFFFFFFFFFFFFFB3
:10BDA000FFFFFFFFFFFFFFFFFFFFFFFFFFFFFFFFA3
:10BDB000FFFFFFFFFFFFFFFFFFFFFFFFFFFFFFFF93
:10BDC000FFFFFFFFFFFFFFFFFFFFFFFFFFFFFFFF83
:10BDD000FFFFFFFFFFFFFFFFFFE00000FFFF800707
:10BDE000FFF003FFFF001FFFC003FFFFFFFFFFFF88
:10BDF000FFFFFFFFFFFFFFFFFFFFFFFFFFFFFFFF53
:10BE0000FFFFFFFFFFFFFFFFFFFFFFFFFFFFFFFF42
:10BE1000FFFFFFFFFFFFFFFFFFFFFFFFFFFFFFFF32
:10BE2000FFFFFFFFFFFFFFFFFFFFFFFFFFFFFFFF22
:10BE3000FFFFFFFFFFFFFFFFFFFFFFFFFFE000002F
:10BE4000FFFF8007FFF003FFFF001FFFC003FFFF9E
:10BE5000FFFFFFFFFFFFFFFFFFFFFFFFFFFFFFFFF2
:10BE6000FFFFFFFFFFFFFFFFFFFFFFFFFFFFFFFFE2
:10BE7000FFFFFFFFFFFFFFFFFFFFFFFFFFFFFFFFD2
:10BE8000FFFFFFFFFFFFFFFFFFFFFFFFFFFFFFFFC2
:10BE9000FFFFFFFFFFFFFFFFFFFFFFFFFFFFFFFFB2
:10BEA000FFF00000FFFF8007FFF007FFFF003FFFEC
:10BEB000C003FFFFFFFFFFFFFFFFFFFFFFFFFFFFCD
:10BEC000FFFFFFFFFFFFFFFFFFFFFFFFFFFFFFFF82
:10BED000FFFFFFFFFFFFFFFFFFFFFFFFFFFFFFFF72
:10BEE000FFFFFFFFFFFFFFFFFFFFFFFFFFFFFFFF62
:10BEF000FFFFFFFFFFFFFFFFFFFFFFFFFFFFFFFF52
:10BF0000FFFFFFFFFFF00000FFFF8007FFF003FFD0
:10BF1000FC003FFF8003FFFFFFFFFFFFFFFFFFFF6E
:10BF2000FFFFFFFFFFFFFFFFFFFFFFFFFFFFFFFF21
:10BF3000FFFFFFFFFFFFFFFFFFFFFFFFFFFFFFFF11
:10BF4000FFFFFFFFFFFFFFFFFFFFFFFFFFFFFFFF01
:10BF5000FFFFFFFFFFFFFFFFFFFFFFFFFFFFFFFFF1
:10BF6000FFFFFFFFFFFFFFFFFFF000003FFE0003AA
:10BF7000FFE003FFFC003FFF8003FFFFFFFF1FFF09
:10BF8000FFFFFFFFFFFFFFFFFFFFFFFFFFFFFFFFC1
:10BF9000FFFFFFFFFFFFFFFFFFFFFFFFFFFFFFFFB1
:10BFA000FFFFFFFFFFFFFFFFFFFFFFFFFFFF3FFF61
:10BFB000FFFFFFFFFFFFFFFFFFFFFC3FFFFFFFFF54
:10BFC000FFFFFFFFFFFFFFFFFFFFFFFFFFFC000082
:10BFD0003FFE0003FFE003FFFC00FFFE0003FFFF46
:10BFE000FFFF0FFFFFFFFFFFFFFFFFFFFFFFFFFF51
:10BFF000FFFFFFFFFFFFFFFFFFFFFFFFFFFFFFFF51
:10C00000FFFFFFFFFFFFFFFFFFFFFFFFFFFFFFFF40
:10C01000FFFE3FFFFFFFFFFFFFFFFFFFFFFFFC3FB4
:10C02000FFFFFFFFFFFFFFFFFFFFFFFFFFFFFFFF20
:10C03000FFFC00003FFE0003FFE003FFFC00FFFEEB
:10C040000003FFFFFFFF0FFFFFFFFFFFFFFFFFFFEB
:10C05000FFFFFFFFFFFFFFFFFFFFFFFFFFFFFFFFF0
:10C06000FFFFFFFFFFFFFFFFFFFFFFFFFFFFFFFFE0
:10C07000FFFFFFFFFFFE3FFFFFFFFFFFFFFFFFFF91
:10C08000FFFFFC3FFFFFFFFFFFFFFFFFFFFFFFFF83
:10C09000FFFFFFFFFFFC00003FFC0003FFC001FFAC
:10C0A000F800FFFE0003FFFFFFFF0FFFFFFFFFFF92
:10C0B000FFFFFFFFFFFFFFFFFFFFFFFFFFFFFFFF90
:10C0C000FFFFFFFFFFFFFFFFFFFFFFFFFFFFFFFF80
:10C0D000FFFFFFFFFFFFFFFFFFFE3FFFFFFFFFFF31
:10C0E000FFFFFFFFFFFFFC3FFFFFFFFFFFFFFFFF23
:10C0F000FFFFFFFFFFFFFFFFFFFE00001FFC000030
:10C10000FFC001FFF801FFFC0003FFFFFFFF0FFF6F
:10C11000FFFFFFFFFFFFFFFFFFFFFFFFFFFFFFFF2F
:10C12000FFFFFFFFFFFFFFFFFFFFFFFFFFFFFFFF1F
:10C13000FFFFFFFFFFFFFFFFFFFFFFFFFFFE3FFFD0
:10C14000FFFFFFFFFFFFFFFFFFFFFC3FFFFFFFFFC2
:10C15000FFFFFFFFFFFFFFFFFFFFFFFFFFFE0000EE
:10C160001FFC0000FFC0007FF039FFFC0003FFFF51
:10C17000FFFF0FFFFFFFFFFFFFFFFFFFFFFFFFFFBF
:10C18000FFFFFFFFFFFFFFFFFFFFFFFFFFFFFFFFBF
:10C19000FFFFFFFFFFFFFFFFFFFFFFFFFFFFFFFFAF
:10C1A000FFFE3FFFFFFFFFFFFFFFFFFFFFFFFC3F23
:10C1B000FFFFFFFFFFFFFFFFFFFFFFFFFFFFFFFF8F
:10C1C000FFFE00000000000000000000003FFFF83C
:10C1D0000003FFFFFFFF0FFFFFFFFFFFFFFFFFFF5A
:10C1E000FFFFFFFFFFFFFFFFFFFFFFFFFFFFFFFF5F
:10C1F000FFFFFFFFFFFFFFFFFFFFFFFFFFFFFFFF4F
:10C20000FFFFFFFFFFFE3FFFFFFFFFFFFFFFFFFFFF
:10C21000FFFFFC3FFFFFFFFFFFFFFFFFFFFFFFFFF1
:10C22000FFFFFFFFFFFE0000000000000000000015
:10C23000003FFFF80003FFFFFFFF0FFFFFFFFFFFBF
:10C24000FFFFFFFFFFFFFFFFFFFFFFFFFFFFFFFFFE
:10C25000FFFFFFFFFFFFFFFFFFFFFFFFFFFFFFFFEE
:10C26000FFFFFFFFFFFFFFFFFFFE3FFFFFFFFFFF9F
:10C27000FFFFFFFFFFFFFC3FFFFFFFFFFFFFFFFF91
:10C28000FFFFFFFFFFFFFFFFFFFF000000000000B8
:10C2900000000000003FFFF80003FFFFFFFF0FFF5B
:10C2A000FFFFFFFFFFFFFFFFFFFFFFFFFFFFFFFF9E
:10C2B000FFFFFFFFFFFFFFFFFFFFFFFFFFFFFFFF8E
:10C2C000FFFFFFFFFFFFFFFFFFFFFFFFFFFE3FFF3F
:10C2D000FFFFFFFFFFFFFFFFFFFFFC3FFFFFFFFF31
:10C2E000FFFFFFFFFFFFFFFFFFFFFFFFFFFF00005C
:10C2F0000000000000000000003FFFF00003FFFF0F
:10C30000FFFF0FFFFFFFFFFFFFFFFFFFFFFFFFFF2D
:10C31000FFFFFFFFFFFFFFFFFFFFFFFFFFFFFFFF2D
:10C32000FFFFFFFFFFFFFFFFFFFFFFFFFFFFFFFF1D
:10C33000FFFE3FFFFFFFFFFFFFFFFFFFFFFFFC3F91
:10C34000FFFFFFFFFFFFFFFFFFFFFFFFFFFFFFFFFD
:10C35000FFFF80000000000000000000003FFFF031
:10C360000003FFFE03FF0FC03FFFFE00FEFFBE0FF6
:10C37000FF003FFFFFFFFE00FE7EFFFFFFFFE3FF2A
:10C38000C00FFFFE03FFFF003FFFDFC07FF00FFF86
:10C39000FF003FFFFFFE3F80FFFFF801FCFF7C0F27
:10C3A000FE00FC3EFFFFFFFFFBFFF00FF7F9F07F01
:10C3B000F003FFFFFFFFE0000000000000000000AE
:10C3C000003FFFC00003FFF8007F0F000FFFF000E9
:10C3D0003C3F080FF8000FFFFFFFF8003C3C7FFFD9
:10C3E000CFFFE1FF0000FFFC007FF8000FFF860099
:10C3F0000FC003FFF8000FFFFFFE3C001FFFE0002F
:10C4000030FC380FF8001C3E1FFFDFFFE1FF80010A
:10C41000E3F8C07FC0007FFFFFFFE00000000000E6
:10C4200000000000003FFFC00003FFF8007F0F0086
:10C430000FFFF0003C3F080FF8000FFFFFFFF80070
:10C440003C3C7FFFCFFFE1FF0000FFFC007FF800D6
:10C450000FFF86000FC003FFF8000FFFFFFE3C0038
:10C460001FFFE00030FC380FF8001C3E1FFFDFFF0D
:10C47000E1FF8001E3F8C07FC0007FFFFFFFE00025
:10C480000000000000000000003FFFC00003FFF0BC
:10C49000703F081C07FFE018043F085FF01C07FF0F
:10C4A000FFFFC0380C3E1FFF0FFFC3FC03003FF02F
:10C4B000703FF00C03FF860E078100FFF00C03FFB6
:10C4C000FFFE381C0FFFC0701CFC211FC01C0C3E5F
:10C4D0001FFF8FFFC3FE03C0E3F806FF80E03FFFAE
:10C4E000FFFFF0000000000000000000003FFFF828
:10C4F0000003FFF0FC3F007FC7FFC1FF803F03FF49
:10C50000E0FFC1FFFFFF81FF803E1FFF0FFFC3F869
:10C510003FF03FF0FC3FE0FFC1FF803F861FF0FF90
:10C52000E0FFC1FFFFFE01FF07FF07FE00FC03FF66
:10C5300081FF843E1FFF8FFFC3F80FFC63F81FFECF
:10C540000FFC1FFFFFFFF0000000000000000000D4
:10C55000003FFFF80003FFE1FFFF03FFE1FF8FFF54
:10C56000C03F07FF83FFF0FFFFFF07FFC03F0FFE45
:10C5700007FF8FF07FFE0FE1FFFFC1FFE0FF81FFAC
:10C58000C03FF07FC1FFF0FFFFFE03FF87FE0FFFFC
:10C59000C0FC07FF87FFE03F0FFE03FF87F87FFE29
:10C5A00003F83FFC1FFF07FFFFFFF800000000003B
:10C5B00000000000003FFFF00003FFE1FFFF03FF6A
:10C5C000E1FE1FFFE03F07FF87FFF87FFFFF1FFF30
:10C5D000F03F0FFE07FF8FF0FFFF07E1FFFF07FFB0
:10C5E000F07F81FFC07FF87FC7FFFC7FFFFE07FF62
:10C5F000E3FC1FFFE0FC1FFF0FFFF03F0FFE03FFF8
:10C6000087F0FFFF03F83FF83FFF83FFFFFFF800CD
:10C610000000000000000000003FFFF00003FFE109
:10C62000FFFF03FFE1FE1FFFE03F07FF87FFF87FEB
:10C63000FFFF1FFFF03F0FFE07FF8FF0FFFF07E137
:10C64000FFFF07FFF07F81FFC07FF87FC7FFFC7F00
:10C65000FFFE07FFE3FC1FFFE0FC1FFF0FFFF03FA3
:10C660000FFE03FF87F0FFFF03F83FF83FFF83FF54
:10C67000FFFFFC000000000000000000003FFF8002
:10C680000003FFE1FFFF07FFE1FC1FFFF83F07FF8B
:10C690000FFFF87FFFFC1FFFF83F8FFC07FF9FE3B2
:10C6A000FFFF07E1FFFF0FFFFC7F83FFF1FFF87F34
:10C6B0000FFFFC7FFFFE0FFFE3FC3FFFE0FC1FFED0
:10C6C0000FFFF83FC7FE03FF87E0FFFF83F8FFF887
:10C6D0007FFFC3FFFFFFFF0000000000000000001D
:10C6E000003FFF000003FFF0FFFF0FFFF1FC3FFFE3
:10C6F000FC3F0FFF0FFFFE3FFFFC3FFFF83F87FCB3
:10C7000031FE1FE3FFFF83F0FFFF0FFFFE1F83FFDC
:10C71000F1FFF87F0FFFFE1FFFFE0FFFE3FC3FFF5F
:10C72000F0FC3FFE3FFFFC3FC7FC21FF1FE1FFFF86
:10C7300083F8FFF1FFFFE3FFFFFFFF0000000000B1
:10C7400000000000003FFE000003FFF07FFF0FFF2E
:10C75000F0FC3FFFFC3F0FFE0FFFFE3FFFFC3FFFE3
:10C76000FC3F87FCE1FE1FE3FFFF83F07FFE1FFF1E
:10C77000FE1F87FFF1FFF87E1FFFFE1FFFFE3FFF3A
:10C78000E3F8FFFFF0FC3FFE3FFFFC3FE7FC21FF2B
:10C790001FE1FFFFE3F8FFF1FFFFE1FFFFFFFF8075
:10C7A0000000000000000000003FF8000003FFF858
:10C7B0000FFF0FFFF0FC3FFFFC3F0FFE0000003FAC
:10C7C000FFFC7FFFFC3FE3F8F0FC3F80000003FC30
:10C7D0000FFE1FFFFE1F87FFF1FFF87E0000001F06
:10C7E000FFFE3FFFE3F8FFFFFCFC3FFE7FFFFC3F47
:10C7F000E1F870FC3FC7FFFFE3F8FFF0000001FF26
:10C80000FFFFFF800000000000000000003FF80074
:10C810000003FFF80FFF0FFFF0FC3FFFFC3F0FFE90
:10C820000000003FFFFC7FFFFC3FE3F8F0FC3F808F
:10C83000000003FC0FFE1FFFFE1F87FFF1FFF87EC5
:10C840000000001FFFFE3FFFE3F8FFFFFCFC3FFE80
:10C850007FFFFC3FE1F870FC3FC7FFFFE3F8FFF00C
:10C86000000001FFFFFFFFC000000000000000000B
:10C87000003FF0000003FFFE03FF0FFFF0FC7FFF0F
:10C88000FC3F0FFE0000003FFFF87FFFFC3FE3F896
:10C89000F0FC3F80000003FE03FE1FFFFF1F87FF29
:10C8A000F1FFF87E0000001FFFFE3FFFE3F8FFFFEF
:10C8B000FCFC3FF87FFFFC3FE1F870FC3FC7FFFF47
:10C8C000E3F8FFF0000001FFFFFFFFE000000000C1
:10C8D00000000000003FE0000003FFFF81FF0FFFAA
:10C8E000F0FC7FFFFC3F0FFE1FFFFFFFFFF87FFF05
:10C8F000FC3FF0E1F8787F87FFFFFFFF80FE1FFF1E
:10C90000FF1F87FFF1FFF87E1FFFFFFFFFFE3FFFC6
:10C91000E3F8FFFFFCFC3FF87FFFFC3FF0F1FC7801
:10C920007FC7FFFFE3F8FFF1FFFFFFFFFFFFFFF807
:10C930000000000000000000003F00000003FFFFB7
:10C94000F07F0FFFF0FC3FFFFC3F0FFE1FFFFFFFDC
:10C95000FFFC7FFFFC3FF0E1F8787F87FFFFFFFFE0
:10C96000F07E1FFFFE1F87FFF1FFF87E1FFFFFFF16
:10C97000FFFE3FFFE3F8FFFFFCFC3FFE7FFFFC3FB5
:10C98000F0F1FC787FC7FFFFE3F8FFF1FFFFFFFF47
:10C99000FFFFFFFC0000000000000000003E000060
:10C9A0000003FFFFF83F0FFFF0FC3FFFFC3F0FFECF
:10C9B0001FFFFFFFFFFC3FFFFC3FF0C3FE39FFE717
:10C9C000FFFFFFFFF83E1FFFFE1F87FFF1FFF87E0E
:10C9D0001FFFFFFFFFFE3FFFE3F8FFFFF0FC3FFEFE
:10C9E0003FFFFC3FF8F3FE18FFE1FFFFE3F8FFF124
:10C9F000FFFFFFFFFFFFFFFC000000000000000042
:10CA0000003E00000003FFFFF83F0FFFF0FC3FFF78
:10CA1000FC3F0FFE1FFFFFFFFFFC3FFFFC3FF0C38B
:10CA2000FE39FFE7FFFFFFFFF83E1FFFFE1F87FFF6
:10CA3000F1FFF87E1FFFFFFFFFFE3FFFE3F8FFFF60
:10CA4000F0FC3FFE3FFFFC3FF8F3FE18FFE1FFFF65
:10CA5000E3F8FFF1FFFFFFFFFFFFFFFE0000000014
:10CA600000000000003C00000003FFFFFC3F0FFF40
:10CA7000F0FC3FFFFC3F0FFF0FFFFFFFFFFC3FFFFE
:10CA8000F83FF843FE39FFE3FFFFFFFFFC3E1FFFC7
:10CA9000FE1F87FFF1FFF87F0FFFFFFFFFFE3FFF45
:10CAA000E3FC3FFFF0FC3FFE3FFFFC3FF843FE107E
:10CAB000FFE1FFFF83F8FFF1FFFFFFFFFFFFFFFF35
:10CAC0000000000000000000003800000003FFFF2D
:10CAD000FE3F0FFFF0FC1FFFF83F0FFF0FFFFE7F31
:10CAE000FFFC3FFFF83FF807FE01FFE3FFFF87FF72
:10CAF000FC3F0FFFFC7F87FFF1FFF87F0FFFFE7FFA
:10CB0000FFFE3FFFE3FC3FFFF0FC3FFE0FFFF83F5F
:10CB1000FE03FE00FFE1FFFF83F8FFF87FFFC3FF86
:10CB2000FFFFFFFFE0000000000000000000000029
:10CB30000003FFFFFE3F0FFFF0FE1FFFF83F0FFF58
:10CB400007FFF87FFFFF1FFFF03FFC07FF03FFF029
:10CB5000FFFF07FFFC3F07FFFC7F87FFF1FFF87F28
:10CB600007FFFC7FFFFE3FFFE3FC1FFFE0FC3FFFF2
:10CB70000FFFF03FFE07FF03FFF0FFFF03F8FFF892
:10CB80007FFFC3FFFFFFFFFFF00000000000000079
:10CB9000000000000003FFFFFC3F0FFFF0FF8FFFCE
:10CBA000C03F0FFF83FFF0FFFFFF07FFC03FFC1FE9
:10CBB000FF03FFF07FFE07FFFC3FC1FFF0FF87FF91
:10CBC000F1FFF87FC1FFF0FFFFFE3FFFE3FE0FFF25
:10CBD000C0FC3FFF87FFE03FFE07FF03FFF07FFE43
:10CBE00003F8FFFC3FFF87FFFFFFFFFFF00000009F
:10CBF00000000000000000000003FFFFFC3F0FFFEB
:10CC0000F0FF8FFFC03F0FFF83FFF0FFFFFF07FF25
:10CC1000C03FFC1FFF03FFF07FFE07FFFC3FC1FF8B
:10CC2000F0FF87FFF1FFF87FC1FFF0FFFFFE3FFF3E
:10CC3000E3FE0FFFC0FC3FFF87FFE03FFE07FF035F
:10CC4000FFF07FFE03F8FFFC3FFF87FFFFFFFFFFC2
:10CC5000F800000000000000000000000003FFE7F3
:10CC6000F83F0FFFF0FF81FF803F0FFFE0FFC0FFA5
:10CC7000FFFF83FF803FFF1FFF87FFF83FF80FE3B1
:10CC8000F83FE0FFC0FF87FFF1FFF87FE0FFC0FF44
:10CC9000FFFE3FFFE3FF07FE00FC3FFF81FF803FF9
:10CCA000FF0FFF87FFF83FFC03F8FFFE0FFC1FFF9D
:10CCB000FFFFFFFFFF000000000000000000000079
:10CCC0000003FFE0F07F0FFFF0FFC078043F0FFF8D
:10CCD000F03E01FFFFFFC038043FFF1FFF87FFFC4E
:10CCE00003C03FE0707FF03E01FF87FFF1FFF87F58
:10CCF000F03E01FFFFFE3FFFE3FFC0781CFC3FFF5B
:10CD0000C03C043FFF0FFF87FFFE03C063F8FFFE38
:10CD100001E01FFFFFFFFFFFFF8000000000000099
:10CD2000000000000003FFF001FF0FFFF0FFF00024
:10CD30003C3F0FFFF8000FFFFFFFE0003C3FFF3FCD
:10CD4000FFC7FFFF0000FFF000FFF8000FFF87FFA5
:10CD5000F1FFF87FF8000FFFFFFE3FFFE3FFE00069
:10CD600030FC3FFFF8001C3FFFBFFFEFFFFF8001DB
:10CD7000E3F8FFFFC0007FFFFFFFFFFFFFF00000B1
:10CD800000000000000000000003FFF803FF0FFF99
:10CD9000F1FFFC007C3F0FFFFF001FFFFFFFFC00C7
:10CDA000FC7FFFFFFFC7FFFFC001FFFC03FFFF0089
:10CDB0003FFFC7FFF3FFFC7FFF001FFFFFFF3FFFA9
:10CDC000E3FFF801FCFC3FFFFC007C3FFFFFFFFF9F
:10CDD000FFFFC00FE7F9FFFFF003FFFFFFFFFFFFBB
:10CDE000FFF0000000000000000000000003FFF85A
:10CDF00003FF0FFFF1FFFC007C3F0FFFFF001FFF51
:10CE0000FFFFFC00FC7FFFFFFFC7FFFFC001FFFC2F
:10CE100003FFFF003FFFC7FFF3FFFC7FFF001FFF83
:10CE2000FFFF3FFFE3FFF801FCFC3FFFFC007C3FFE
:10CE3000FFFFFFFFFFFFC00FE7F9FFFFF003FFFF5A
:10CE4000FFFFFFFFFFFC00000000000000000000EB
:10CE50000003FFFFFFFFFFFFFFFFFFFFFFFFFFFFDD
:10CE6000FFFFFFFFFFFFFFFFFFFFFFFFFFFFFFFFD2
:10CE7000FFFFFFFFFFFFFFFFFFFFFFFFFFFFFFFFC2
:10CE8000FFFFFFFFFFFFFFFFFFFFFFFFFFFFFFFFB2
:10CE9000FFFFFFFFFFFFFFFFFFFFFFFFFFFFFFFFA2
:10CEA000FFFFFFFFFFFFFFFFFFFF8000000000000C
:10CEB000000000000003FFFFFFFFFFFFFFFFFFFF79
:10CEC000FFFFFFFFFFFFFFFFFFFFFFFFFFFFFFFF72
:10CED000FFFFFFFFFFFFFFFFFFFFFFFFFFFFFFFF62
:10CEE000FFFFFFFFFFFFFFFFFFFFFFFFFFFFFFFF52
:10CEF000FFFFFFFFFFFFFFFFFFFFFFFFFFFFFFFF42
:10CF0000FFFFFFFFFFFFFFFFFFFFFFFFFFFFF0003F
:10CF100000000000000000000003FFFFFFFFFFFF14
:10CF2000FFFFFFFFFFFFFFFFFFFFFFFFFFFFFFFF11
:10CF3000FFFFFFFFFFFFFFFFFFFFFFFFFFFFFFFF01
:10CF4000FFFFFFFFFFFFFFFFFFFFFFFFFFFFFFFFF1
:10CF5000FFFFFFFFFFFFFFFFFFFFFFFFFFFFFFFFE1
:10CF6000FFFFFFFFFFFFFFFFFFFFFFFFFFFFFFFFD1
:10CF7000FFFFFF0000000000000000000003FFFFB3
:10CF8000FFFFFFFFFFFFFFFFFFFFFFFFFFFFFFFFB1
:10CF9000FFFFFFFFFFFFFFFFFFFFFFFFFFFFFFFFA1
:10CFA000FFFFFFFFFFFFFFFFFFFFFFFFFFFFFFFF91
:10CFB000FFFFFFFFFFFFFFFFFFFFFFFFFFFFFFFF81
:10CFC000FFFFFFFFFFFFFFFFFFFFFFFFFFFFFFFF71
:10CFD000FFFFFFFFFFFFFF00000000000000000058
:10CFE0000003FFFFFFFFFFFFFFFFFFFFFFFFFFFF4C
:10CFF000FFFFFFFFFFFFFFFFFFFFFFFFFFFFFFFF41
:10D00000FFFFFFFFFFFFFFFFFFFFFFFFFFFFFFFF30
:10D01000FFFFFFFFFFFFFFFFFFFFFFFFFFFFFFFF20
:10D02000FFFFFFFFFFFFFFFFFFFFFFFFFFFFFFFF10
:10D03000FFFFFFFFFFFFFFFFFFFFFFF0000000000B
:10D04000000000000003FFFFFFFFFFFFFFFFFFFFE7
:10D05000FFFFFFFFFFFFFFFFFFFFFFFFFFFFFFFFE0
:10D06000FFFFFFFFFFFFFFFFFFFFFFFFFFFFFFFFD0
:10D07000FFFFFFFFFFFFFFFFFFFFFFFFFFFFFFFFC0
:10D08000FFFFFFFFFFFFFFFFFFFFFFFFFFFFFFFFB0
:10D09000FFFFFFFFFFFFFFFFFFFFFFFFFFFFFFFFA0
:10D0A000E0000000000000000003FFFFFFFFFFFFA3
:10D0B000FFFFFFFFFFFFFFFFFFFFFFFFFFFFFFFF80
:10D0C000FFFFFFFFFFFFFFFFFFFFFFFFFFFFFFFF70
:10D0D000FFFFFFFFFFFFFFFFFFFFFFFFFFFFFFFF60
:10D0E000FFFFFFFFFFFFFFFFFFFFFFFFFFFFFFFF50
:10D48000FFFFFFFFFFFFFC47E1000FC47FFFFFFF2F
:10D49000FFFFFFFFFFFFFFFFFFFFFFFFFFFFFFFF9C
:10D4A000FFFFFFFFFFFFFFFFFFFFFFFFFFFFFFFF8C
:10D4B000FFFFFFFFFFFFFFFFFFFFFFFFFFFFFFFF7C
:10D4C000FFFFFFFFFFFFFFFFFFFFFFFFFFFFFFFF6C
:10D4D000FFFFFFFFFFFFFFFFFFFFFFFFFFFFFFFF5C
:10D4E000FFFFFFFFEEEEEF7BBBBBB887F83D3F8849
:10D4F0007BBBBDF76EF7BDEF7BDEF777777BBDDEDD
:10D50000EF777777BDDEEF777DDDDEF77777777BB7
:10D51000EFBDDDDF77FFBDF7DFFFFFFFFFFFFFFFA1
:10D52000FFFFFFBFFDFFBFFFBDEF7DFFFFFDDDF78D
:10D53000BBF7F7FFF7FBF7DDDFBEF7BBBBDEFBDFBB
:10D540007BDEFBDEF7BDFBEFBF7FFDEFFDFDECC338
:10D55000FF0C1FC46EFDF7DFFBDEF7BDEF7BDFDFE7
:10D56000FFEFF7F77DFDFBBEF7FBFBFFF7FFFBDFF0
:10D57000BFBFFFEFBEF7FFFBFDB6F7DF7B6DB6DB8E
:10D580006DB6DB6DB6DB6DFB6F6DEDB5EF7BEFB5AB
:10D590006B6FFFBDFEDF5DB6BEDFBEFFFDF7BDFFFB
:10D5A000FEF7DEFBDEF7DF7BBDEF6FBBF7F777DE65
:10D5B000DFDFF847FC50BF88BFDFDEFBBFFFFFFFA8
:10D5C000FFFFFBFBBBBDDF7FF7DFBFFFFEEFBFBB96
:10D5D000BEEEEFFDFBFBBBBEFBFEEEFFBFFFFF7D24
:10D5E000FFFFFFFFFFFFFFFFFFFFFFDFFFFFFFFF6B
:10D5F000FFFFFFFFFFFEEFFFDFFDFFFFFFFDFDF77A
:10D6000077FFFFDDDFFFBFF7FFFFFFFFFFFFFEFF3D
:10D61000FDBDDEFFF776DC87FC80BFC47DF77FBDF4
:10D62000EDBB6EDBB6EDBDBEEEFF7BDDDEFBEEEBF4
:10D630006F7FFDDDEFBBBFB7EEEEEEF7FFEFBBADEB
:10D64000F6DDDBEFF7DEDBBDB6EF77BBDDEFDEFD52
:10D65000DDF777DFB6EEDB6FBDDBBD76FB77FBDD9D
:10D66000DB6EEFBDFF6EF6EEEDDEFBBF6DDB6DB783
:10D6700076DDDFEFDFFFFFEBBFFFF887F1CAFF8842
:10D680006FBFF7F7FFEFFDFEFFDFF7EFFFDBFFF701
:10D69000BFEF7DDFFBF5DFFFFBFFF5FEFFDFFFFFE9
:10D6A0005DBDFFFFDFFFBFFEDEFBFFEFFFFBFDFE0B
:10D6B000FFBDFBF7FBBEFDF6FFDFFFFDF7FFFBEF56
:10D6C000EFFF6EFBFFFFDFFFBBFBDFFFFFBBEFFDED
:10D6D000FF7FFFFEEFFBF77BF6EBBBBEFEEDDC430F
:10D6E000E9F9FFC4BBFDBB7FB77DDFF7DDFBBF7D85
:10D6F000DDFFB6BFFBBFDFFDDFDF777BBEF77F6FF0
:10D70000DDFBBB6DF7FFF77EFFBBFDBBFFFFEEFE52
:10D71000FBBFDFEFFBFFBFDFBFDFDF7FDDFB6EDFC8
:10D72000FF6F7FFF7FDBFFBF77BBFB77DFDFFBBBDD
:10D73000BBFFFF77F7F7BB6FFFBFBDFFFFDF777F53
:10D74000D7BF78C7D3FAFF887EDBFFDDFDF7BB6F5D
:10D75000F77EFDF7BBB6FFFAEF7BF777FDBFFFDF84
:10D760007FBDFFFB777EF7FFFEDB6FEFF6F7EFFF86
:10D77000B76EFFDBDFFDFB7DBF7776FDF7FBFFEFCD
:10D78000FFBFFBFB6FFDEEDBF6FFBBEFEEFEFFEE38
:10D79000FDFDBFFFFF6EDBDF7DDEFFFBBB76FFB66F
:10D7A000ADFFFFEDFDFBFC87EFF9FFC46FFFEEEF70
:10D7B000DFBFFFFEBFF7F7DFFFFFEDDF7FEF7DFF8E
:10D7C00077F6DAEFFBDFD5DFFFF7FFB76FFFFEFD80
:10D7D000DFFF7F6DFFFFDDFFFEEFBFFFF7FFFFFF06
:10D7E0007F7F76FEBBF7BFBFFDBFFFFFBFEEFEFE34
:10D7F000FFEF6EFFEF6FF77777FFFDFBEFFFF7BFF0
:10D80000EFFFDBFFFF76DDFF7FDFA847FFF5FB8C37
:10D810007DB6DFFEFBFAEEDBFBBF6F7DDDDDBFFF1C
:10D82000F5FDEFBBDEFFFFF006FBFFFDBBBF5DFEBE
:10D83000FBB6DBBBBDBDF7FFDDDBBFBEEFFEF7B761
:10D84000EFBBDF6FEDEFEFBBF77EFEF7BFF7777D46
:10D85000FB7FDFDBDBBFFFDBBFFEFEEEEEF77FFF14
:10D86000BEEDBDF6FDDDFEDFFBFFFFBBDB76FC435F
:10D87000FFF9FFC0BFFFFDBBBF6FF7FFDDEDFFEEA0
:10D88000EEEFFB75BFDFFFEEFF6DBD00012FBFB7F1
:10D89000EEEDFEEFDEFFFFFFFFEFBDDEFFFFFBF76C
:10D8A000FBB7FDFF7DDEFDFDFFFEFFFFFFEFDBFEB3
:10D8B000FB7FBBF7EFBDEDFFFFFDDDFFF6F7EFFFF1
:10D8C000FFDDF76DF77FDFFFDFEFB7EDB7BBB77FAA
:10D8D000FFFFF887FFF3FF8C6EEDB7EFEEFF7F766B
:10D8E000FFFFBBFFFFFEEFEFFEF6B5FFEFFFE2002D
:10D8F000000AF6FEFFFFEFFBFFDDBDDEEEFFFFF7E8
:10D90000EEF6EFFF7FFFBFEDFFFFEFBBBEF7DBDD06
:10D91000BDFDFFBBEFEDFFBEFFF7FF76EEEFFBBDFA
:10D92000FFBF7DBBBBFFBFFFFFF7FB6F7B7EFF7FB2
:10D93000FDDDFBEDB6DB6CC7FFF9FFC4BBBFFF7FAE
:10D9400077DDDBBFF75BFDBBBBBBBEFF77BFFFBBBC
:10D95000BAA9000BEA005FEFDDDBBDDF6DF7EEF784
:10D96000F7F6F77F77BFFEDBEF7DF77FF77BFBFFF7
:10D97000F7BDFEEFF7DF77DFFEFFDDEFB6FFB7BFE6
:10D980007F7BBFEEDBFBDFFFFFBBEEDEDDBF7FFD9E
:10D99000FFF7DDFBDFFFDFFFFFFFF847DFF1FF8869
:10D9A0007FF6EDF6FFFBFFFB6EFEDFF77FF7F7BBC1
:10D9B000DFFFD5444000017FFFD02BBDF77EF7BDD0
:10D9C000FFBF7FFF7F7FDFFBFFFFBBFFFDEFFFFFA1
:10D9D0007FEF7F6EFFFFBFFEEF7BFDFDBBDF7FFDB7
:10D9E000FFBB7FFBF7FF77FFFF6FFBDDDDFF7DF701
:10D9F000FFFBDDBFDDDFFBDFF7777DB6DB6EDC83B2
:10DA0000FEF9FFC4B77FBFDFDDBF6EEFFFF7FBBFDF
:10DA1000F77EFBFEFED4400000000FFFFFFC02FF7C
:10DA2000BFEFFFFFBBFBFBDBFBDDFDDFDF76FFFEB8
:10DA3000DFFFDDDBEEFFEFFFDB77FB777FFFDF77DD
:10DA4000FFFDF6DFFBDFFEEFBDB7FDBB77FDBEEEF2
:10DA5000EF77FFFBBBDDEFFBEFFDBFF7FDDDF7FF72
:10DA6000FFFBF887FFF3F7887DDDFB7BF7EFFDFE1B
:10DA7000DBBF777BBDDFBF6FEB40000004ABFFFF78
:10DA8000FFFF803BFBFDBB6FFEEFDF7FBFFFBFFDF6
:10DA9000FBFFEEDFFBBB7FFFDFDBFDDBFFEEEFFF1E
:10DAA000FBDEFFFEDDB7DFF75FFDDBFEFFFEDFFF26
:10DAB000FDDFEFFFFFDEDB7F777FFEEEFEF7EEFEA2
:10DAC0006FFFBEDB76DFBCC7FFFBFFC4BFF7DFFF26
:10DAD000BF7EDFDBFFFBBFDDEFFBEFFF500002FF90
:10DAE000FFFFFFFFFFFFF00EDEDFDFFB77FF77FDBD
:10DAF000EDBBF76FBFDDFFFB7FFFFBBEFDFEDFFF72
:10DB0000BEFFFFDDEEF7F6EFEFFFFFBFFF6FFFDFBA
:10DB1000DBEFF777EFFEFBBBBAFFFFEFFFF7B7FFD7
:10DB2000BBDF7F6FFEEFFFFFFFFDF847FFFFFF88C2
:10DB30006EFEFDB6FBF7F77F76DFFBFFFEEF7DDACB
:10DB40000007FFFFFFFFFFFFFFFFFE03FFF7FDDF03
:10DB5000DF7BFEDFFFF7DFFF76FFBBFFEEEFDFF7D8
:10DB6000F7FFFB7DEFDDBB7FBFFF7FDDFEED75FBCC
:10DB7000EDFEEDBBFEFBFFEEDEEFFFFFFFEDEEFB8C
:10DB8000DDDEFF77FFBDF7FBDBBD75BDDB6F6C83B3
:10DB9000FFF5FFC4776F77FFDFBB7BF7DFF6EF772B
:10DBA000BBFFDEE002FFFFFFFFFFFFFFFFFFFFC045
:10DBB0003B7F6FFDFBDDEFFBBEFEFFFBFFFBFFB717
:10DBC000FFFEFEFFBFB77FF7FDFFFFFBFDDDEDFFB3
:10DBD000B77FFFDF7FF7BFFF6FDF5EFFFF7BB777AA
:10DBE000777FBFDF7FFFFBBEEDFFBDDFFFF7DFEF1E
:10DBF000FFFFF887FFF3FF887FFDEF6EFDFFFF7DDE
:10DC0000FBBFDEEEFF76FA007FFFFFFFFFFFFFFFA7
:10DC1000FFFFFFE02FDBFEEF7FFFBDEF77DFFFFFB2
:10DC2000DF6FDEFEFBBBF7DDFDFFEFBF7FB7DDDFA4
:10DC30006FBFDF77FFF7BEFDF77FFBEFFDFDF7DB83
:10DC4000B7FFFDEEEFF77BBDEEF76FFBFFEFFFFFDA
:10DC5000777FFEFBB6DDBCC7FFF8FFC45DDFFFFFCB
:10DC6000EEEDD7EFBEFDFFFFF7BFE003FFFFFFFFC5
:10DC7000FFFFFFFFFFFFFFFE05FEF77FF777FF7F48
:10DC8000FFFDEFFEFBFEF7FF6FFFBFFFEFDDFEFFC7
:10DC9000DBFEEFFFFFF6FFFF7DBDF7EFBFEEDF7DA1
:10DCA000DF6FFDFFFBB76FFFFDBBFFFFFBBBFEDFC1
:10DCB000DBBB776DFDDDB7BF7FF7F847DF79F78C0A
:10DCC000FBB77BBB7FDFFDBEF7DBB7776FFD005F88
:10DCD000FFFFFFFFFFFFFFFFFFFFFFFF01F7BFF6A3
:10DCE000DDFDDBFBDDB77FFFFFDFFFB7FEEEFDF7FE
:10DCF0007F7FBBEDFF7FFEEDF5FFF6DBDFFFDF7F14
:10DD0000FBBDFDFFFBFEDFBDFFFEFEDBBFFFDDEE6B
:10DD1000DFFFBBFDBF7FDFFFEFEFFBF7FDBF6C83D6
:10DD2000FFF4FFC03FFDEEFFBBFBBFF7FDFFFDBDF6
:10DD3000FEF405FFFFFFFFFFFFFFFFFFFFFFFFFFF9
:10DD4000E03FFBBFFFEF7FEEFFFFFFFF6EFBDDFF5E
:10DD5000FFFFEFBFFBFBFFFF7FDBBF7FDF6FBFFD81
:10DD6000F7777DF6DEFFF7DBBFDBF7EF6EEFF7FF50
:10DD7000F6EF77BBFEEEFFF7FFEEFDBBDEFDDF7DCE
:10DD8000DBFBF887E5C17F8C76FFBFDDFEFEF77F0A
:10DD90006F6EEFFFDB803FFFFFFFFFFFFFFFFFFF27
:10DDA000FFFFFFFFF87DEEFF6EBFF6DFEEFDDFFF4A
:10DDB000FFFF7FFB6DBBFFFBDFDFDEDFEDFFF7F675
:10DDC000FFFBFBBFFFEFF7DFFFDB7F7F76FFBEFFD1
:10DDD000FFFDDF76FFDDFF7F77FFDDBEEBFFEFEFBF
:10DDE000F7BF7FEEFF6EDCC7F1D01FC4BFDBFDF7CE
:10DDF000F7D7FFDDFFFF77F77E80FFFFFFFFFFFF15
:10DE0000FFFFFFFFFFFFFBFFFE071105FFFEFFFF08
:10DE100077EFFFFDFB6FF7DFFFFFBEDEFEFEF7FDD6
:10DE2000FFF77FBFBDBEEFF76EFDBFFDEDFFEFF764
:10DE3000FFBDFFBDDDDFFBFFEDFFDBF7FDDDF7EF36
:10DE4000FDBB7EFFFFEFEDDFEFFFF847EB8F3F8875
:10DE50007BFEDBBEDF7F5BFBDBB7FDBFE80FFFFFB9
:10DE6000FFFFFFFFFFFFFFFFFFFF407FFE080001F6
:10DE700077DBBB77FF7EFFF7BFFDFEFFDFEEF7FF2F
:10DE8000F7F7FFB7BEDFEDFFEFFFFDFFFBDFFB772F
:10DE90007FBEFBDEDFEFDBEF7BBB7FBB7FB6FFDE52
:10DEA000DFBBBF7DBFFFF7DBDB76FEFBBDDDDC83C9
:10DEB000FFE53FC4BFB7FFFFFBFBFDBFFDFDDFDD9F
:10DEC000A03FFFFFFFFFFFFFFFFFFFFFFFFA001F65
:10DED0003F8009201F7FDFFDBBF7EDBFF7FF6FF627
:10DEE000FB7FFFF7BFBFDDFFF7FEFFF6FBEDDF6E49
:10DEF000DFFBDFBFFBF7BEFFFAFEFEFBFFFFEDEF30
:10DF0000DBFFF77FFBFFFBFFF777BDFFFFFFB7FFEF
:10DF1000FBF77887FD487F886DFF6EDBBFBFEFEEB4
:10DF2000EFDF7EFF01FFFFFFFFFFFFFFFFFFFFFFB0
:10DF3000FFF0090C3F817FF40BFDFDDFFFBF7FFD8C
:10DF4000FEDFFF7FFFFBBDBEFDFDFFFDFFBBDEDF94
:10DF5000FF7FBFFDFDBEFDFDDF7FFFEDEFDBEFFFD0
:10DF6000DEEFFFFEFF7B7EF77F6EEFB77FEEFFBD3C
:10DF7000BDDDFFAEDFBFFC47F0053FC4BF6DFFFD59
:10DF8000EDEDBEFF7F7BFBFA07FFFFFFFFFFFFFF0B
:10DF9000FFFFFFFFFFC03E861FCFFFFF02EFEFF73F
:10DFA000EDFBFBEF6FEDFBDBEDDFEFFFEFEF776FEF
:10DFB000DDFFF7FFB7FBEDDFEFF7F7F77FEEDBBF36
:10DFC0007FFF7F6EF7FEB7B7F7EFEFFBB7FFFDFB05
:10DFD000EEFFDBF7EFBFDDFDFDFBA8C7E508FF881F
:10DFE0007BFFB777FFFFFBB7F7F7AFA83FFFFFFF58
:10DFF000FFFFFFFFFFFFFFFFFF03EBC70FC7FFFFA1
:10E00000C1FEFEFDBFDFBF7FFDFFBFFF7FFEFFEF55
:10E01000FF7FFFFEFFEEFFB6FEDEFFFBBEFF7F7F52
:10E02000EDFBFFFBF6F7F7FFFF77FEFF7EFEDDBFA0
:10E03000FEF77FDFFDDBFF7FFBFB7F7F77DEFC836F
:10E04000FEA477C4BFDBFDBF5EDEDFFDDEDFFDE0EB
:10E050007FFFFFFFFFFFFFFFFFFFFFFFFFC7BEE1E7
:10E060008FC7FFFFF037BBDFFEFEF7FBBFBFF77FB9
:10E07000FF77FB7DBBFDDEF7F77FDDFFDFEFFBBF4B
:10E08000F7DBDBDFFFDFF6DFBFBDBDDDDFBBDFFDC5
:10E09000EFBBFFEEEFDFB77EDFFF77EFFEEFEFD7EF
:10E0A000EEFFF847FC43CF8876FEDFFDF7F7FDDF94
:10E0B0007DFDFF01FFFFFFFFFFFFFFFFFFFFFFFFF2
:10E0C000FD5EEBE18FC3FFFFFC3FFFFEEFEFFFBF05
:10E0D000F7F6FFEDDBFFBFFFFFDFFBDFBFF7BFFBA7
:10E0E000FBFF6F76FF7FFFFFDEFDBFFEFBFFFF77CD
:10E0F000BBFF7BB7DDFFB7FFFBFBFFF7FB7DFEFB45
:10E10000AF7EF6FDFFBB6C47FCE9C7C4BFEFF6F777
:10E11000FF7F777BEFEF6D07FFFFFFFFFFFFFFFF45
:10E12000FFFFFFFFFFFFBEB1C7C7FFFFFE0B777703
:10E13000FB7BDDEF7EFFDEFFFFDDEDDBEEF77FFD3E
:10E14000FDBDF6DF7FBDFFFFDDF777FFFBEFDF7B78
:10E15000DF77F7FFFEEFFFFFFFEDFDBDDFBEEEFB5C
:10E16000BFEFEFBFFFF7DFFF7BEFF887B9C31F8873
:10E170007B7DFFBEDDEDEFF7FF7FF81FFFFFFFFFA9
:10E18000FFFFFFFFFFFFFFFFFD7EEBBF0FC7FFFF9E
:10E19000FF07EFFF7FFF7FFDEFDFFBFB7EFFFFFF52
:10E1A0007FFFEEFFEFFFFFFFDDF7FBDDFFDDFFFF92
:10E1B000BF7EFBDFFFEEBEFB77FDDDDDB77FFFF748
:10E1C000BDF7FBBFEFDF7DFDFDDDFDABEF7EDCC30B
:10E1D000D1E84FC4AFDFDBEFFFFFFDDF5DFB607F0A
:10E1E000FFFFFFFFFFFFFFFFFFFFFFF57FBFBEFF4A
:10E1F0000BC7FFFFFFC0FDDBB7EFFBBFFBFB7FDF04
:10E20000F7F7BF77FBDDFFB77FF7DFEDEF7FDEFFCF
:10E21000BBFFDFFFF7F7FDFF76FFEFDFFFDFFF7FDD
:10E22000FFDED77FFF7FDFEF7EFBDFEFAFBF77FF44
:10E23000BFF7F847E7827F887EF6FEFDB776DFFD01
:10E24000F7BF81FFFFFFFFFFFFFFFFFFFFFFFFFDA6
:10E25000FEFCEBFE1F8FFFFFFFE17FFFFDBDDFF741
:10E260007F7FEEFFDFBEF7FFBF7FBBFFFB7EFB7F45
:10E27000FFEDFFEF77777FFFDEDF6FB7FFBBFDFDC1
:10E28000DDFB77EEFBF7FFEDEFDDBEFDF7FFFB7F7C
:10E29000FBF7BF7EF6DDBC87D7D53FC4BBFFB7DF3A
:10E2A000FBDFF76FFFF707FFFFFFFFFFFFFFFFFF3A
:10E2B000FFFFFFD75F7A2DFC17AFFFFFFFF817BDF9
:10E2C000DFFFFF7FEFEEFFF6FDFFFDDDEFF7FEFE68
:10E2D000DFDFFFFBBDFFBBFBFFDFFFFFFFFBFFFE41
:10E2E000DBFFBF6FFFBFFDF7EF7FBEFFBDFFF7BFD7
:10E2F000BF6DBFBBFEFFFBDBFFFFF887FFCF2A88A8
:10E300007F6FFF76DFFB7EFEDDDC1FFFFFFFFFFF81
:10E31000FFFFFFFFFFFFFFF5FFFC0BF07FFFFFFF9D
:10E32000FFFE0FF7FEEEEDFBFDFFFBBFFFEFDFFF94
:10E33000FDFEEFDBFFFBBDDFF7BFF77FDDFDFFFF7E
:10E3400077FFBB7BFFDDF7FEEEF7BF7F7EFBF7BB02
:10E35000FBEEFFF7FBFFF7FFB7EEDDFFDB776CC3EC
:10E36000FFD781C4B7FEDDFFFEDFEFFBEEF81FFF36
:10E37000FFFFFFFFFFFFFFFFFFFFFFDE1FFF07F0B5
:10E380005FFF5FFFFFFF857F77FFFFDFBFBBDFFF23
:10E39000B77EFF77BFDFFBFFFFFFEFFF7FFB7FEE67
:10E3A000FFBFFFFFFB6DFFEFEF7F7DF7F7FEF7BBD2
:10E3B000DFEF7BFF7F77EEFEDEF77EF7FF7BFFB6BA
:10E3C000FFFDF847FFFFFF887DDBF7DDB7FDFBB7FB
:10E3D000BFC0FFFFFFFFFFFFFFFFFFFFFFFFFFF0DB
:10E3E0003FFFC3F5FFFF07FFFFFFC3EFFF777BFD95
:10E3F000F7FF7EEDFFFBF7FEF77BBF7FFFB6FF77F2
:10E40000EDDFEEFFEFF7FFFFBFFFDDFEFDF7EFBF34
:10E410007F6FFFFFF7BEFFDEEFFF7DDFFFBFEFBFC8
:10E42000DDDFBBFFB6EFBC87FFFFFFC4BEFF7F7F12
:10E43000FDB6DFFFFBA2FFFFFFFFFFFFFFFFFFFFB8
:10E44000FFFFFFC0155FE1FF7FFF03FFFFFFE0FD60
:10E45000BBFFDF7FFEEFF7FFFDDFBDDFFFFFFFED5F
:10E46000FFFFFBFEFFFEFFDB7B7FFFFFEEDEEFDF4C
:10E47000DFFDFFFBBBFB6EF77EFFEEF7FDBBDFFBB7
:10E480007BDEFBFDFBFDEEEFFFBFF887FFFFFF88A4
:10E490006FEFDDF6EFFFFADDEE07FFFFFFFFFFFF97
:10E4A000FFFFFFFFFFFFFF817DDFF1D5FFFD41FF94
:10E4B000FFFFF87FFFBBFFEF7FFDFFBF6FFFFFFB9D
:10E4C000DDEEEDFFFFFF6FBBDEEFDBFFFFFFFFFFCA
:10E4D0007FF7FEF77B6FBB6FFFDFFFDEFBEDFFFF1C
:10E4E000BFFFF77FDFFBDFDFBF6FFF7ADBFD6C4332
:10E4F000FFFFFFC4BB76FFDF7EDBDFFF7D0FFFFF8B
:10E50000FFFFFFFFFFFFFFFFFFFFFF85B743E1F7BF
:10E51000FFF7F0FF81FFFC1BEFFF7DFBDBBFDDFBA7
:10E52000FF76EF7FFFFFFFB7FFFBFFDFF77DFFBB4E
:10E53000B7FFFFFFFB7FB7FBFFFFFFFEEEFFDDFF37
:10E54000DFFFDDDDFB777FEDF77FFF77EFFEDBFFA2
:10E55000FEDBF8C7DEFF7F887FFFEEFDF7FEFF6F73
:10E56000F03FFFFFFFFFFFFFFFFFFFFFFFFFFF1F6A
:10E57000FA83E35DFFED587E03FFFD2F7B6FEFBF56
:10E58000FFF77FEFFBFFFDEEF77BBFFFEFFFDBFE4B
:10E59000FFFFFDFFFFFFFFFFDFEDFF7FDEF6EEFB7E
:10E5A000FFF6FBB7FDBB7FBFDFFEFBFFFEEEEDFF1F
:10E5B000FDBBFFB7B7FFBC87FFF7EFC4BDDDBBEF07
:10E5C000DF6FEDF6D07FFFFFFFFFFFFFFFFFFFFFD5
:10E5D000FFFFFFFF80E0E3F7FFF7EC3C01FFFF07E1
:10E5E000FFFEFFEF7EFFF77EDFDFBFFFBFDFF6FD41
:10E5F000FDFFFF77DDF76FF77FFFFFFFFEFFFBEE0D
:10E60000F7DFFFDFDBBF7FFF6FFFFBF6EEEFDDB76E
:10E610006FFF7FDDF7F776FEFF6FE847FFFFFF88AC
:10E6200077BFFF7EFBFB7FDF81FFFFFFFFFFFFFF69
:10E63000FFFFFFFFFFFFFFFE0050C55FFFAD5A3039
:10E640007FFFFF85DFDBFBFDEFDDFFFFFEFBF7BBA1
:10E65000FDFEFFDFFFFF7EFFFFBFFEDEFFFFFFFFD0
:10E6600077DEDFBFFFFDB7FEFFFFEEFDFEDEEF7FD3
:10E67000FFFFFFFFFDB7F77FDEFFBFEFDDFD7C4350
:10E68000FFFFFFC4BFFB77FBBFBFDEFD07FFFFFF40
:10E69000FFFFFFFFFFFFFFFFFFFFFFFE143C07EF41
:10E6A000FFF7EE20FFFFFFE176FFFDBFFBFFDDDBA5
:10E6B000F7FEFFFFEFF7DBF7FFFFF7DDBBEEF7FF3E
:10E6C000FFFFFFFFFFFBFDFDDDBFFDBBEEEDFFEF3D
:10E6D000FFF7FFDFBBBB77DEDFFBBFF7FFBDFBBD97
:10E6E000F7BBF887FFFFFF887DEFDDBFF6F7F7F494
:10E6F0001FFFFFFFFFFFFFFFFFFFFFFFFFFFFFFC0D
:10E700001AF80D5FFFDD7A03FFFFFFF0FFFFFFF751
:10E71000BF777FFF7FBFDDEEFF7FFF7FFFEFFFFF54
:10E72000FF7FBFB7FFFFFFFFBB7F77EFBFEF7FF735
:10E73000BFFF777FFFFFFBFBFFFFFEFBFBFFFBDF66
:10E74000BBF7EFFFBFFFDCC7FDFFFFC4B7BDFFF79F
:10E750007FFEBFD03FFFFFFFFFFFFFFFFFFFFFFF79
:10E76000FFFFFFFF0EA80FFFFFF7AD02F7FFFFFC53
:10E770000FB7FEFFFFFFF77FDDFBFF7FBBDF7FFEF5
:10E78000FFFFFFF777FDFDFFFFFFFFFFDFF7FF7BD9
:10E79000F6FDF77FFBBBBFFFFFFFFFFEF777DF7FD5
:10E7A000FF6EDF7DEF7F7DDBFB6EF847FFFFFF8CA9
:10E7B0007EFBEF7EEDBBFA81FFFFFFFFFFFFFFFF58
:10E7C000FFFFFFFFFFFFFFFF15FA3AAFFFFD761FC8
:10E7D000A0FEFFFE13FFFBDDEDDDFFEDFFEF77FB9E
:10E7E000FFFBEDDBFFFFFFBFEEDBDFFFFFFFFFFF08
:10E7F000FDBFBDFFFFF7DFEDEF7FFFFFFFFFFFDF97
:10E80000BDFEFBEEB7FFFDF7FFDBDF7F6FFFBC82D6
:10E81000020000846FEFBBEFFFEFFE05FFFFFFFF7D
:10E82000FFFFFFFFFFFFFFFFFFFFFFFF87AD7FF54C
:10E830007FFFDC0AE07B7FFFC07FFFFF7FFFDDFF04
:10E84000F77FFFDFEF7FFFFFFFFFFFFFFFFFF7FF18
:10E85000FFFFFFFFFFDDF7F76FBFFDFF7FEFFFFF5C
:10E86000FFFFFFFBDFEFFFFFFDBB77FFDBFFF7F7EE
:10E87000FDB7F8C0000000087BBEFFDDBBFED01F67
:10E88000FFFFFFFFFFFFFFFFFFFFFFFFFFFFFFFF98
:10E890008FFBFAAEFFFFFD7FA87EFFFFD097FEF74C
:10E8A000FF777FBF7FFDDDFEFDEEFF7FFEFFBFFF39
:10E8B000FFFEFFFFFFFFFFFFF7FFDF6FFBFDBFBFA7
:10E8C000FDFFFFFFFFFFFFFFFB7DB6DBDFFFFF5D0F
:10E8D000FDB77DBEDFFEEC600000080CBFFFEF7FE0
:10E8E000EF5FA0BFFFFFFFFFFFFFFFFFFFFFFFFF87
:10E8F000FFFFFAFF07DFFFFBFFFFFFAADE1BFFFFA3
:10E90000FE0977BFDBFFF7FBFDEFFF77BFFFDBF60D
:10E91000EFFFFBFFFFFFFFFFFFFFFFFFFF76FFFDA6
:10E92000BF6FFBFDFFFFFFFFFFFFFFFFFFFFFFFECE
:10E93000F7EDDBFFEFFDEFFBF6EDF8FBFFFFFFF878
:10E940007DB77BF77FFA02FFFFFFFFFFFFFFFFFFAF
:10E95000FFFFFFFFFFFFEFFE1FFFF557FFFFFFFF6A
:10E96000B437FFFFFD005FFDFFDDFEEFDFBF77FF88
:10E97000F7BBFFDFFFFFFFFDFEFFFFFFFFFFFFFF16
:10E98000FFFFF6FFF7FEEFDFFFFFFFFFFFFFFFFFD9
:10E99000DFB76F7FFEFFFFEFBF6FFFEFBFBFDC6F23
:10E9A000556FF6ECB7FBBFBDFAE807FFFFFFFFFFAF
:10E9B000FFFFFFFFFFFFFFFFFFFFB57A1FFFEFFF26
:10E9C000FFFFFAAADF1BFFFFFFE005EF7EFFDFFE80
:10E9D000F7FBFFDEFFFF7EFFFFF7FFFFFFFFFFFFFD
:10E9E000FF7FFFFFFFEFBFDBFDBBFEFFFFFFFFFF72
:10E9F000FFFFFFFFFDFFFDDBDFB7B77BF7FEDB7D32
:10EA0000F7FB7800000000007EDFF6FFBFA07FFF6D
:10EA1000FFFFFFFFFFFFFFFFFFFFFFFFFFFFEFC055
:10EA20007FFF55FFFFFFF0FFB43FFFFFFFFE02FF38
:10EA3000EFF77BBFFEFFDDFBDDFFEFF6FFFFFFFF24
:10EA4000FFF7FFFEFFFFFFFFFFFDFDFF7FFFBFFFA3
:10EA5000FFFFFFFFFFFFFFFFF7DDFFFEF7FEFDFFFC
:10EA6000FEDBFFDFBEDFFE00000000006FFF7FDB8C
:10EA7000F781FFFFFFFFFFFFFFFFFFFFFFFFFFFF2C
:10EA8000E02FB540FFF0007FFFFFF8AADE3C7FFFDC
:10EA9000FFFFE03BFBBFFFFBDFEEFF7FFF6DFFBF34
:10EAA000FFFFFFDFFFFFFFFFFFFFFBFFFFFFEFEFBA
:10EAB000DBEFFFFFFFFFFFFFFFFFFFFFFEFFDB7F3F
:10EAC0007EEFFFB7BBFFBDFBFBFDDC0000000000DD
:10EAD000FDEBDBFEFC07FFFFFFFFFFFFFFFFFFFF7C
:10EAE000FFFFFFFF00076FF7FEA0003FFFFFF07F73
:10EAF000F430FFFFFF83F83F7FFDEEEF7BBFF7EFC2
:10EB000077FFBBFFFBFF7FFF7FFFFFDFFBFFFFFF09
:10EB1000FFFFFF7DFF7FFFFFFFFFFFFFFFFFFFFF07
:10EB2000FFEEFFEFEFFDB7FDDFFDF7BEDFEEEFFF1E
:10EB3000FFFFFFFFDFBDFF77D41FFFFFFFFFFFFFDA
:10EB4000FFFFFFFFFFFFFFFE0001BAFFFB74940F02
:10EB5000FFFFFC155E00FFFFFF83FE17FEEF7FFF48
:10EB6000FFFBBFFBFFFFFEEDBFFFF7FFFFFFFFFF58
:10EB7000FFFFFFFFFFFFFBFF7FFFFFFFFFFFFFFF29
:10EB8000FFFFFFFFFFF7F7FDFDDFFEDFFEDFEF77A3
:10EB9000FDBFFFFFFFFFFFFFFBFFBDDFE07FFFFFCC
:10EBA000FFFFFFFFFFFFFFFFFFFFE3FC1FE36FFF20
:10EBB000FEDDB70FFFFFFC0FF447FFFFFF0EDF0F77
:10EBC000B7FFFBBDEEFFFDBFDDB7EFFFFFFFFFFBB4
:10EBD000FDFF7FFFFFFFFFFFFFFFFFFFFFFFFFFFC7
:10EBE000FFFFFFFFFFFFFFFFFDBF7DBF7FBBDFFF1D
:10EBF000FBFBBFFFEFFBDDBBBFFDDBBDBF77F7FD61
:10EC000081FFFFFFFFFFFFFFFFFFFFFFFFFFF0FCA4
:10EC10006AF1BBFFEB76DDC3FFFFFF81580FFFE119
:10EC2000FF0DBBC1FFBBDFFFFFEEEFFEFFFF7FBFAE
:10EC3000FFF7FFFFFFFFFFFFFFFFFFFFFFFFFFFFEC
:10EC4000FFFFFFFFFFFFFFFFFFFFFFFFFFFBEFF7F0
:10EC5000DBFEFBBBDF6F7BB6FEEEFBEFEADFBFEF59
:10EC6000EFFDDEFE07FFFFFFFFFFFFFFFFFFFFFFE0
:10EC7000FFFFF0F8BFE16FFFFEDDB747F7FFFFA131
:10EC8000F03FFF007E1A07C3FDFFFEEF7BFFFFEFA3
:10EC9000F7FDFBF6FFBFFFBFFFFFFDFFDFFFFFFF3D
:10ECA000FFBFFFFFFFFFFFFFFFFFFFFFFFFFFFFFB4
:10ECB000FEEFBEFFFF77FFF7F7FFFEFFB77F7FFF97
:10ECC0007FFBFEF77EEF7FDA17FFFFFFFFFFFFFFFF
:10ECD000FFFFFFFFFFFFFC7C5571B7FFEB77DDE324
:10ECE000E1FFFFF02ADFFD801E2E02E16FEF77FBD0
:10ECF000FFBBBB7FBF6FDEFFFFFFFFFFFF7FFFFF9D
:10ED0000FFFFFFFFFFFFFFFFFFFFFFFFFFFFFFFF13
:10ED1000FFFFFFFFFFFEFFDB77FFB77FFEF6DFDBC6
:10ED2000FFF7EEFBFF776FDEF7FFFFF03FFFFFFF20
:10ED3000FFFFFFFFFFFFFFFFFFFD003C7EE2EFFF55
:10ED4000EEED7743C1FFFFF87BBF7B550E3820F017
:10ED5000FF7DFFBFDFFFFFFBFDFFFFDF7DFFBFFF8D
:10ED6000EFFFFFF7FFEFFFFFFFFFFFFFFFFFFFFFDB
:10ED7000FFFFFFFFFFFFFFFFFF7BEBFFFDDDFEEE71
:10ED8000AFDFEDFEDDDDFFDFB5FFFDFFFBBDFBE02F
:10ED9000FFFFFFFFFFFFFFFFFFFFFFFFFFF8003C4C
:10EDA0000BF1BFFFF7F7DDC3E07FFEBE0EFE7FFF76
:10EDB000070C50787BFFDDFEF6EEEFDEFFFB77FB06
:10EDC000DFFFFFFFFFF7FFFFFFFF7FFFFFFFFFFFFB
:10EDD000FFFDFFFFDFFFFFFFFFFFFFFFFFDF7FBE46
:10EDE000EF7FEFFFFBBDFF77FFFF777DFFBDDF7795
:10EDF0005FFFFF43FFFFFFFFFFFFFFFDFFFFFFFF81
:10EE0000FFF0501F0EA76FFFFFED7757C0FFF83ED2
:10EE10001BBC3FAAC238747C6FDFFFEFFFFFFDFF12
:10EE2000DF6FFEFFFFFFFEFDFFFFFFFFFFFFFFFFA6
:10EE3000FFFFF7FFFFFFFFFFFFFFFFFFFFFFFFFFEA
:10EE4000FDFFFDEFDFEEFDDBFFFFBBBFF777DDEF83
:10EE5000EFF7F7FBFFEFBF03FFFFFFFFFFFFFFF63B
:10EE6000BFFFFFFFFFF1FA1F81FDBFFFFFFFDDBF07
:10EE7000843FFC0F8EFC7FFFA22E1C3C3EFB777F65
:10EE8000BFFBBF77FBFFDFEEFFF7FFFFFFFFFFFFDB
:10EE9000FEFFFFF7FFFBFFFFFFFFFFF7FFFFFFFF97
:10EEA000FFFFFFFFFF7DEEFDFDFBDFFFB6EEFFFB8B
:10EEB0007EFEFFFEFB7EFFBFFBFFFC1FFFFFFFFF91
:10EEC000FFFFFFADFFFFFFFFFFF7FEBFC2AF7FFFFA
:10EED000FFAAFFFF8C17FF0F1BB8FFEAE2383E1CAA
:10EEE0007FFFFFFBF6DFFFFEFFFB7BBFFFFFFFEFB8
:10EEF000FFFFEFFFFFFFFFFFBFFFFFFFFDFFFFFF74
:10EF0000FFFFFFFFFFFFFFFFFFEFBFF7BF7FBB7DEF
:10EF1000FFFBF6EFEFB7F6DBDFEFBDFFFFFFE81F0C
:10EF2000FFFFFFFFFFFFFFF6AFFFFFFFFFFFFF5FEA
:10EF3000F075BFD7FFFFFFFF8B00FDC78EF8FFFF07
:10EF4000B00F170E1BEFDDDEFFFEFBDFEEDFFFFB7A
:10EF5000B77F7FFFFBFFFFFFEFFFFFFFFFFFFFFF1D
:10EF6000FFFFFFFFFFFF7FFFFFFFFFFFFDFBFBBF7B
:10EF7000FBEDFFEFEEDFBFBEFBFF6FFFBDFFFFFF4F
:10EF80007F7DF0FFFFFFFFFFFFFFFF5DEFFFFFFF54
:10EF9000FFFFF007F86F7800FFAFFFFE1681E14733
:10EFA00015E1F7FD603E0F9E7F7DFFFFDFF7DFFB82
:10EFB000BFFFDEFFFFFFFBFFFFFFFFFEFFFFFFFFC7
:10EFC000FFFFFFDFFFFFBFFFFFFFFFEFFFFFFFFFC1
:10EFD000FFBF7FFDEFFFEEFFBFFDEFF7DFEFFFFFAE
:10EFE000FFFFFFF7EFFFC1FFFFFFFFFFFFFFFFEE98
:10EFF000BFFFFFFFFFFFF001FC3DD0001FF7FFFE4A
:10F000001B7861461EE1C2FFBC3B85EFFFFF777BAB
:10F01000FDBFFF7FFBFEFFEEFFFFFFFFBF7DFEFF9B
:10F02000FFFFFFFFFFFFFFFEFFFFFEFFFFBFFBFF36
:10F03000FFFFFFFFFBEFEEEF7FBBBFDBF777FB7F51
:10F04000FEFFFEEFFFBDEFBFFFFF07FFFFFFFFFF6C
:10F05000FFFFFFDBEFFFFFFFFFFFE3E0FE2B60D8CA
:10F060001FAFFFD036D0C38E3F82021EE81F87FD40
:10F07000B7B7FFEF7FFDF7EFFF6FF7FFDFFDFFFF94
:10F08000FFFFFFFFFFDDFDFFFF7FFFFFFFDFFFFF54
:10F09000FDFFFFFF7FFFFFFFFFFDFFFFFB7F77FF10
:10F0A000FBBFBFDF7FFFFFFDFFFFFFFDFDEF07FFA2
:10F0B000FFFFFFFFFFFFFFF0BFFF1FFFFFFFFFF896
:10F0C0003E1DE16F07FF80005B7802C03F800803B0
:10F0D000B806E3BFFDFFDDFFF7FFBDFB6FFBBFBB66
:10F0E000FFFFFFFBFFFFDFFFFFFFFFDFFFFF7BFFF8
:10F0F000FFFFFFFEFFFFFFFFFFFFFFFFEDBFDDDDB7
:10F10000DFF7FB77DFFB7DFFFFFDFFFFEFFFFDFF7D
:10F11000FFFC1FFFFFFFFFFFFFFFFFE0DFFE15FF0C
:10F12000FFFFFFC03F3757DA83FF0003F7D00F0020
:10F130007F805003E105FFF7FFFDFFBDFEDFFFBF4E
:10F14000FDFFFDFF7EFFFFBFFFFFFFF7FFFFFFFF9C
:10F15000FFFFFFFFFFFFFFFFFFFFFFFFFFFFFFFFBF
:10F16000FFF77FBFFDDEFFFFFEEFEFFFFFFFF7FFC3
:10F17000FDEFBFFFDFF83FFFFFFFFFFFFFFFFFF8DF
:10F180003FFF86BFFFFFFF801F0DF557E1FF095FBF
:10F19000DD701D800FFB71F0C1C0BFFFB76FF7EFCF
:10F1A000DFF6EFFFFFDEEFEFEFFFBBFFFFF7FFFF45
:10F1B000FBFFDFFFF7EFFFFFFDFFFFDFFFFBFFFFC1
:10F1C000FFFFFFFFF77FFBF76FFFEFDDEFDFFFFFD5
:10F1D000FFDFFF7FFFFFFFDFFF60FFFFFFFFFFFF9E
:10F1E000FFFFFFFC3FFF85DFFFFFFE000E1F5F05F7
:10F1F00051FE36FF77C06B020FFEDFF003F0445D77
:10F20000FFFF7EFF7BFFFDEDB77FFF7DFFEFFFFF81
:10F21000BFFFFFFFBFFFFFFF7FFFFF7FDFFDDFFFC0
:10F22000FFFFFFFFFFBFFFFFFFEDDF7FFEF77B7FED
:10F23000BDFDFFFFFBFFBFEF7FFDFFFEF7E1FFFF1F
:10F24000FFFFFFFFFFFFFFFE1F57C37FFFFFFE1FF4
:10F250008F1FEA00B07F1B5FDD603F8B43FF7D5C4B
:10F260000FFC0007FDFBDFFBFEDFFF7FFFFBBBFFAB
:10F27000BFFFFFFFFBFFBEFFFFFFFFF7FFFFFFFB2F
:10F28000FFFFFFFFEFFFFFFFFFFFFFFF6EFFFFDE50
:10F29000F7BBDFF7FBBFFFFBFFFFFFFFFF7FF7FFC2
:10F2A000FF83FFFFFFFFFFFFFFFFFFFF1E01C6DF22
:10F2B000FDFFFC35073F5C0028FEF6FD7781EAAED6
:10F2C000C7FC340D3FFE8001DFBFFBBFEFFB6FFFCC
:10F2D000FDEFFFDFF7FFFFFFFFFFFFFFFFFDFFFF7A
:10F2E000FFFFFFFFFFEFFFFFFFFFDFFFFFFEFFFF5F
:10F2F000FFDEEDF7DFFFFDDFDFFFFFFFBFFFFFFFFB
:10F30000F7FFFEF7FF0FFFFFFFFFFFFFFFFFFEBF4F
:10F31000860043EFC77FFC5FC21FFA000C3F5BFF14
:10F32000DEC3BFDBA3FE5803FFFFF5A077FEFFEFB0
:10F330007FFFFBFB6FFEEEF6FFFDFFFBFFDFFFFD38
:10F34000FFBFFEFFFFFEF7FFFFFFFFFFFEFFFFDE39
:10F35000FFFFFFFFBDF7FF7DFEEF6FFDFEFFFFBF6D
:10F36000FF77F7FDFFEFBFFFBC1FFFFFFFFFFFFFB2
:10F37000FFFFF00F0D500EBF85DFFC75A43FFC00B2
:10F38000147FEE84B5AEEAB6C7FC74A1FFFFFFF8A8
:10F390003EEFDEFFFB6FFF6FFF7FFFFFDEFFDDBF96
:10F3A000FFFFF7EFFFFFF7FFFF7FFFFFFFFFFFFB11
:10F3B000FFFFFFFFFFFFFFF6F7BF7BFFBBFDFEF781
:10F3C000F7FFFFFFFFFEFDDFFFFFFFFFFC3FFFFF3B
:10F3D000FFFFFFFFFFFFC00387BE037F877FFF5E46
:10F3E000C07BFC00023FB7005FFBBFDB43FC1FD0CC
:10F3F000FFD7FFFE0FFBF7FDDFFEDFFFFBFBBBDFF1
:10F40000FFFFFFFFFFFBFFFFFFFFFFFFFFF7FFBF58
:10F410007FFFFF7FFFFBFFFFFBFFFFFFFFFFDFDB48
:10F42000FFDFF7BFBFFFFFFFFFFFFFFFBDFDFFBD1A
:10F43000F07FFFFFFFFFFFFFFFFF01430D6A0FFF9C
:10F440008AEAFFF5B080F80000FFFE103556F5B7E8
:10F4500087FC75747E07FFFE1FBF7FBFFFFBFBFBB2
:10F460007FDFFF7BF7EFFFFFBEFFFFFFDFFFFFFE4A
:10F47000FFFFFFFFFEFFEFFFDFFFFDFFFFFFFFBD11
:10F48000DDEDFEFF6EFB7FFDDFFFFFFFF7FFFFFF00
:10F49000FFFFFBFFF0FFFFFFFFFFFFFFFFFF07F096
:10F4A00087BFA7FFC7601FDED8003C00003FFFFEFC
:10F4B0000FFBFEFACFFE1FD87C03FF0785FFFDF789
:10F4C00076DFFFDFEEFEEFFFBFFFFFEFFFFFFEFF88
:10F4D000FDFF7FDFF7FFFFFFFFFFFFFFFFFFFFFFE6
:10F4E000FFFFFFEFFF7F77F7FFBFEEEFFFFFEFFBC1
:10F4F000FFFFDFFFFFBFDFF781FFFFFFFFFFFFFF22
:10F50000FFFF3DF01D6ADFFFC5D00FB7A0000C0064
:10F51000001FFFFF0AAFFDAF0FFF1574707FF801EA
:10F52000C7DBDFFFFFFF7EFFFFF7FDEEFFFFFFFF03
:10F53000FBFFBFFFFFFFFFFFFFFF7FFFF7EEFFFFB8
:10F54000FFDFBFFFFFFFEDFF77F7FF7EFBF7BDFF9C
:10F55000FFFFFFFFFFBBFFDDF7FFFFFFC7FFFFFF61
:10F56000FFFFFFFFFFFFD77C07BF6FFFC36F07DA07
:10F57000E0000402AA07F0FF87FFFEF58FFF0FDE11
:10F5800070BFF80043FFFFDDDFFBF7FDBFBFBF7FAC
:10F59000F77F7BFDFFFFFFFFFFFFFFFFFFBFFBFBD1
:10F5A000FFFFFFFFFFFFFFFDFFFF7FBBFFBFDBEFA5
:10F5B000DEFDFFBBFFFFFF7FBFFFFBFFFFF77EFE10
:10F5C00007FFFFFFFFFFFFFFFFFFEDFEBD6A9B7F11
:10F5D000E2DAC1F780000C2A5287803F8D5FF5BECA
:10F5E0001EBF8AB4610FF0F8477EF6FFFB6FDFB7EE
:10F5F000F7FDFFFBFFFFFFFFFFDFFBEFDFDFFFFF9D
:10F60000FFFFFFFFFFFFFDEFFDFFFFDFFF6FFFFFCE
:10F61000BBFB7FBDFFDFEFFFBFFFFFFFFFFFFFFF74
:10F62000BEFFFFDF1FFFFFFFFFFFFFFFFFFF82BBEC
:10F6300057B800DFE36F60DF80000A294907000741
:10F64000C7EFFEEA181F87DC7187F1FE03F7BFF7EB
:10F650007FFEFDFFFEEFFBDFDFF7FFFFFFFBFFFDA0
:10F66000FFFFDDF7BFFFFFBFFFFFFFFEFFFFFFFF55
:10F67000F7FDB6F7DF7FFDFF7BF7BEF7FFFBFFFF70
:10F68000FBFF7F7FFFFFEFF83FFFFFFFFFFFFFFF65
:10F69000FFFFC1FEFDE00037E1DAD1F70002804A4A
:10F6A00012440E07855FF5B82007C5704343E3EDAC
:10F6B00003DFFFBFEFFFFFFEFFFF6F7EFFFFFF7F58
:10F6C000BFFFFFFFFFFDFFFFFDFFFFFF7FFFDFFF2E
:10F6D000FFFDFFFF7FFBFFBEFEEFDFEFEF7EFBDEF8
:10F6E000FFFFFFFFFFF7FFFBFFDDFFF87FFFFFFFDF
:10F6F000FFFFFFFFFFFFF07B56A0000FF0EF787FCA
:10F70000000A400000003BC3C3FFFEEC0087C3D8E3
:10F7100045A3F17E81FDEDFDFEDBF7B7DBFBFFF7D7
:10F72000FBBFF7F7FEFFFFFFFEFFFFFFFFFBBFFF83
:10F73000FFBDFFFFDFFFFEFBDEDFFBFFF7FEF7BDD8
:10F74000FFDFFFFFFFFFFFF7FFBFF7FFF7FFFDD072
:10F75000FFFFFFFFFFFFFFFFFFFFF87DFD80000BB6
:10F76000F15AD87F0021400000006EE1C6BFF5B01D
:10F7700007A3E2B08761F1FF83FFFFEFBFFF7FFFC9
:10F78000FF7FFBFFBFFEFFFFFFFF7EFFFFFFFFFFCF
:10F79000FFFFFFFFFBFFFFFFFFBFB7DFFBFEBFDB8E
:10F7A000BFBBFEFFBBFBB6EFFFFFFBFFBFFFFFFFD3
:10F7B0007FFFBFC1FFFFFFFFFFFFFFF07FFFFE1FC7
:10F7C00056800005F86F6E3F80AA000000003BB134
:10F7D00083FFFFD81AE1F1D015F1F0FBC1B7BFFFED
:10F7E000FBFFDEFF7FEEDFDDFFFFFFFFF7FFFFEF39
:10F7F000EFEFFFFFFFBFFBFBFFFFFFBFFFF7FFFFC9
:10F800007FF7EEFFFDFFDFF7FF7FFF7BFFFFFFFFCF
:10F81000FFFFFFBFFEFFFF07FFFFFFFFFFFFFFF040
:10F820001FF5FE15F500000378D2FA3F824800006C
:10F830000000EEE146FFFAB56FA3E2F01EF3F1DF40
:10F8400087FEF6FBEF6FFFDBEDFFFEFFFFFFFFFF25
:10F85000FFEFF7FFFFFFF77EFFFFFFBFFFFFFBFF9D
:10F86000FDFEEDB7EEBFFFEEEFEEFBBEEFEDDFFF0F
:10F87000BFFFFFFFFDFFBFF7FFDBEE0FFFFFFFFF47
:10F88000FFFFFFFA07F03F0F50000000FC60563FFB
:10F89000C010000000002BB08BFFFFDBF571E148CA
:10F8A0006B71F8FFF7FFFFDF7FFEFBFFFFBBF7F792
:10F8B000EEF7DFBF7FFFFFFEFFFFFFFFEFFFFFFF62
:10F8C000DFF7FFFEFFDFFFFEFFFDBB7FFF7FFFFFD8
:10F8D000FEFEFDB7FFFF7FBFFFF7FBFFDFFFF83F37
:10F8E000FFFFFFFFFFFFFFFE87C01F9AF000000130
:10F8F000FC403C37E820000000000EE187FFFEF7E7
:10F90000D2A1E381BEE1F0F6EEDBDFFFFDFBDF7E9F
:10F91000FFFF7FBEFFFFFFFBFEFFFFFFFEFEFFFFBF
:10F92000FFFDFFFFFFFFBFF7DF7BBFFDDBDFFFF763
:10F9300077FBB6EDBBFFEFFDFFBFFFFEFFFFFFFF55
:10F94000F7FFF8BFFFFFFFFFFFFFFFFFE3C2038FDB
:10F95000D40000003C340E43FC000000000003B85B
:10F9600085FFFFFF8018E142EB43F0FFFFFFFB7DC7
:10F97000EFDFFFF7EDEFDDFFFFFFFDFFFFFBBFBF99
:10F98000FFFFFFEFFFFFDFFFFF7FFFFFFBFFFB6FCF
:10F99000FEF6F7FBFDDFFFFFFFDBFFDFFFFFFFFFF3
:10F9A000EFBFFFFDFFFEC0FFFFFFFFFFFFFFFFFAFE
:10F9B000A187810ABF4000007C421FC2BF00000037
:10F9C000000006E0AFFFFFDE0021C3AF5E87E3DF8C
:10F9D000BFFDFFEFBF7F7BDFBFFDFFEFFFDEFFFF60
:10F9E000EFFFFFFFFFFFFFFFFDDFFEEEFBFFFEFF70
:10F9F00077DDEFFF7FFFDEDFBFFDDF7FDEFF76FF1E
:10FA0000D7FFF7FFFFFDEFDFFFDFC3FFFFFFFFFFC4
:10FA1000FFFFFFE1D20AE00FDFFE800038280FCBA6
:10FA2000EF800000000003B8DFFFFFC41F08C2FD25
:10FA3000EBDFE1FDFBAF6FFFFFFBFFFFFFBFFF7BD6
:10FA4000BDFFFFFFFFFFFFFBEFEFDEFFBFFFFFFF8D
:10FA5000FFFDFFDBFEFF7FFBDBDFFFFDF76EFBF64D
:10FA6000F7EFFFFBFFFFFFFFFFFFFEFFBDFB07FF01
:10FA7000FFFFFFFFFFFFFFE3601EB83FBFFDF00089
:10FA800070000F86BBC0000000000EE177FFBF8052
:10FA90006D588FAB7EFF87B7EFFFFDBBEDEFDEF656
:10FAA000F6F76FFFFFFFEFBEFF7FF7FFFFFFFFFDE2
:10FAB000FFFFFFFFFFFFEFFFDFF7FB6FFF7B77BF6E
:10FAC000DFFFFFBFFFBDDDB7BDFFFFFBFDFFFFFF9A
:10FAD000EF7C0FFFFFFFFFFFFFFFFFE5B02BD62FEF
:10FAE000FFF75D0000000F808BC00000000007BE24
:10FAF000DFF003C0B7A8057DABAF03FF7EFDFFFFBE
:10FB00007FFEF7FFFFFFFDDFFFF7FFF7FFFFFF7F40
:10FB1000FFFFFFFFFFFEF7FFDFEFFBBEFBBFDFFED8
:10FB2000F7FFFDF6FDF76DFDDDFFFFFFF7F7FF7F48
:10FB3000FFFFBFEDFFE83FFFFFFFFFFFFFFFFFE11C
:10FB4000E1FEFDDFFFFBF74200000F000280000036
:10FB500000101FF5FF8003C1EDF01FFFFEC007FF7F
:10FB6000FFEFBFEFFF7FFFBFBFDFFFFFF7BFFDFF6F
:10FB7000EFEEFFFF7DFDFFDFF7F7FFBFFEFFFFF7B3
:10FB8000FFFDFEFFDEEEDFFFFFBFFFDFFFEEEF7DDD
:10FB9000FF5FBFFFDFF7FDBFBDE0FFFFFFFFFFFF20
:10FBA000FFFFFFF0BEAB577FFFF00AE100000F80C0
:10FBB00000E0000000000FFFFF82A0E2B6B83FFFA8
:10FBC000FFE0016DDBFFE0005BFBBDFDF6FDB77EF6
:10FBD000FFFF7FFFFBFFBFFFFFBFFDFFFF7FFFFDBD
:10FBE000FFFF6F7F6EEF77DBFFFFF7DFB7FDDEF71D
:10FBF000777F7BEFBDFDF7FFFF7EEFFBF701FFFF98
:10FC0000FFFFFFFFFFFFFFE0ABFEFC97FFE005B04B
:10FC100080000F000080000000003C3FFE0BF1E37D
:10FC2000EFFEFFFFFFC0E07FFEF400009FDFFFEF6D
:10FC3000FFFFFFFFFFFFFFFEFFFFFDEFEFFFBFFF37
:10FC4000FFFFFFFFFBFFFDFDFFFFFFFF77BBFEFB9D
:10FC5000FEEFFBFFFFFBFFDFF7FFFEDB7BDFFEEFCF
:10FC6000BE07FFFFFFFFFFFFFFFFFFF81003F800D5
:10FC70007FC000F80000070000600000000074076B
:10FC8000FE2C10C2BFF2BFFFFFFFF8177F920048A3
:10FC900003FEF77FDFB7FFF7FDF7FF77FF7FFFFF7B
:10FCA000FFFFFFFBBFFFDDEFFFFDFFEFFBBDDF7FD2
:10FCB000FDFEDFFEDFFFBFDDDDDFEEFBFF6EDFFF02
:10FCC000DFF76FFEF01FFFFFFFFFFFFFFFFFFFFEED
:10FCD0000007F0005FC0007C00000E000010000074
:10FCE0000401C005FEB001C5FE000BFFFFFFFE00D2
:10FCF00080003FFF41F7FFF6FBFEDBFFBFFFDFFFAA
:10FD0000FFF7F7FDFFF7F7BFFDF7FFFFBFB7B77FBF
:10FD10006FF7FBEDDFEFFBB7FBBBF77FFFFEFFFFEE
:10FD2000EFF7FB76F77BFDDFE87FFFFFFFFFFFFFCD
:10FD3000FFFFFFFF4480F9741FE0000E00000E007B
:10FD4000001C0000290000017BD001C77F0002FFDA
:10FD5000FFFFFF800002FFFFD03FDFFFFFFFFF7FBD
:10FD6000FFFFFBFFBFFFFFFFFFFFFFFFFFFEFFFFE8
:10FD7000FFFFFFFBFEFF7FFFFF7BFFFF7FFEFFF725
:10FD80007777DDEFBDFF7FFFFEFFB77B01FFFFFF52
:10FD9000FFFFFFFFFFFFFFFFFFF07FDF0FC00A0C39
:10FDA00000000C00000C00014A0000003EA5AF85D9
:10FDB000FC15407FFFFFFFE8017FFFFFF85DFB7F41
:10FDC000BEDBFFFFFFBDFFFFFBFF7FBFFBBF7FFF72
:10FDD000FFFFFFFDFEEEFDDFFBDFEEFF77FF6EFDB9
:10FDE000EEEFDDFFFFFFFBBDFFDDEDDBDFEDFFFE37
:10FDF00083FFFFFFFFFFFFFFFFFFFFFFFFFC3E173B
:10FE00008AF009000000080000070004528000008A
:10FE10001DFAFF0FFF7FF83FFFFFFFFFAFFFFFFF60
:10FE2000FE0F7FEDF7FF7FDEFBFFFFF7FFFFFFFF1A
:10FE3000BFFFFDFEEFBFFDDFF7FFEFFEDFFDFFDBE6
:10FE4000FDEFFFEFFFFFFFDDDDDDBFFFEEFFFF7E1C
:10FE5000F7BFEDD80FFFFFFFFFFFFFFFFFFFFFFF23
:10FE6000FFFE1400C7B8640000021000000E00126C
:10FE7000948000001B5FAE1FFFFEAA1FFFFFFFFF65
:10FE8000FFFFFFFFFF1FEEDFFFFFF7FFFFFFDF7F3B
:10FE9000FF7BF7F7FFFFFFDFFFFFDFFFFFBBBF7752
:10FEA000FEF7BBFFDFBDDBBF7BBB777FFFFFF76FDD
:10FEB000F776DFEF7EFF7FFC3FFFFFFFFFFFFFFFD7
:10FEC000FFFFFFFFD17F0D0002FE100000090000C0
:10FED00000020055400008000C75781FFFEBFF0F73
:10FEE000FFFFFFFFFFFFFFFFFF85B257DF6FFFF749
:10FEF000DFF7FFFEEFFFFFFFFFFBDFF7FDFDFFFF7B
:10FF0000BDFFFBFFF7BFFFBEFFFFFFFBDFFFFFF7FC
:10FF10007776FFFBBFFFF7FFEFEDFED0FFFFFFFFA0
:10FF2000FFFFFFFFFFFFFFFF001F0E0004BC0000EC
:10FF300000040000000601220005656A0CAFD87FAE
:10FF4000FF80EA87FFFFFFFFFFFFFFFF0FC00005F5
:10FF5000FBFFFEFFFEFF7DFFFFFFBEFEFBDFFFFF9F
:10FF6000FFEFFFFBF7EEFFBDBFFDEEF7F6EF7DFF06
:10FF7000FEEEDDDFFFFFDDFFFDEF7B6DFB7FB7C03A
:10FF8000FFFFFFFFFFFFFFFFFFFFFFFE00078B00EC
:10FF9000003F000000140000000205480054928A4F
:10FFA0008C757FFFFF40FFC3FFFFFFFFFFFFFFFEDA
:10FFB00001E00002FFFDDFFFFFBFFFEFFBEFFFBF30
:10FFC000FFFFFDFFDFFFFDBFFF7FEDEFFDEF7FFFD9
:10FFD000BFFBEF6F77FFFFFDDDEFFF6FEFBDFFFFB3
:10FFE0007FF7FF03FFFFFFFFFFFFFFFFFFFFFFFCA8
:10FFF0003E818E00003F000000A400000004149029
:020000040801F1
:100000000A92A8A90C5FFFFFFE0DFAA7FFFDFE7F75
:10001000FFFFFFFD01F15FF0DFFFFFFEFBFFFFFFD2
:10002000FFFFFFFFDFFEFFFDFF7F6FFF7FFBBFFFD7
:10003000DFFFFBBDFDBFFFFDFFBBEEFFFFBDB7FD5B
:10004000FFFFEEDBB7BEED0FFFFFFFFFFFFFFFFF80
:10005000FFFFFFF82BA08A00000F800000A800001F
:100060000002120052AA02000875FEBFFF0FFFE156
:10007000FFE01F3FFFFFFFFFF0FEFFF87BBFFFDF4A
:10008000FFFBEF7FBF7EF7FBFF7FEFDFFFFFFFEFA1
:10009000EDDFFFBEF7BDDFEFEFFEDDBFDDFF7FB7BA
:1000A0007BFFFDFFB6EEDFFFFDFFDC1FFFFFFFFF65
:1000B000FFFFFFFFFFFFFFFC7EE80C0000BF80009A
:1000C0000A480000000024012800000018AFF80FC3
:1000D000FE1FFEA3FFC0061FFFFFFE0158E03FF812
:1000E0007FF7F7FFDFFFFFFBFFFFFFFFFFF7FFFFDC
:1000F000F7F7FFFDFFFDEDF7FEF7FEFF7FEFFFF7E0
:10010000FFDFF7FFEF6F7FB7FFFBFDEEDF75F83F17
:10011000FFFFFFFFFFFFFFFFFFFF57FC2BB41600A1
:10012000000FC0000520000000001004A500000022
:100130000FFFF003FF87FFF0FFE5031FFFFFFF0046
:10014000EC001FFE3FFFBEFBFFDF7FFFF7F7FFDE88
:10015000FBFFFEFF7FFFF77FB7BF7FFFDFFF77FB70
:10016000FF7B7BFFBBF6FEFDFFFBF7FFEDBF777B61
:10017000FBEFE0FFFFFFFFFFFFFFFFFFFFF495FC3A
:100180007EEF6C0002A7800055400040000140094E
:10019000400000000FFFE141FF47FF51FFEBC21F8E
:1001A000FFFFFA51B80507BC3EFEFFFFFBFFFBDF78
:1001B000FFFFBDFFFFFEFFF7FEFEFFFFFEF7FEDDC8
:1001C000FBBFFFBFDBFFEF7DFF7FDFDFBBFFDEFDA0
:1001D000FFF7FFBFBFFF60FFFFFFFFFFFFFFFFFF56
:1001E000FFE8005FABB3F6000147C000124000001B
:1001F000202C80252000000007FFFEF0FF87FFF87D
:10020000FF1D701FFFFFFFE86C17860E1FFFFFBF6B
:100210007EFFFFFF7FBFFFFFEFDFBBFFFFDFBFDB27
:100220007FFDF7FF7FEDDDFEFDEFFFF7F7FDFDF74B
:10023000FF6EFFEFB77DBDFEF6BDC3FFFFFFFFFF03
:10024000FFFFFFFFFF8000B77EC9FC000A078002A6
:10025000D4800000005200A8000000001FFFE3A8A7
:10026000FF07FFA8FE07A83FFFFFF558D82D44065B
:100270003FDFFFFFFFF7DF7FFDFDF7F7FEFFFFBF6B
:10028000DFFFFDFFEDDFBFF7EEFFFFEFFFBDBBBF01
:100290007FB7B7BEEFFFF77FFBEFF7DBFFEF07FF9F
:1002A000FFFFFFFFFFFFFFFFFFC0001FEBA07E006F
:1002B000054380014A0000000014004A00000000CD
:1002C0000FAFE0F47F07FFF8FE03F81FFFFFFDE824
:1002D0006D77F82B1BF7BBFBDFFFFFFBFFFFFFBFBB
:1002E000BFFBFFFEFBFBFFFEFFFFFDBDFFFF777BBC
:1002F000B7FFFFEFDDFFFFFFFDBDDFFBFFDEEFFF21
:10030000BBFE8FFFFFFFFFFFFFFFFFFFFF0000159A
:10031000FE407C002902001528000000016002A0B8
:10032000200000001807E15C7C3E8F80FC21D43F58
:10033000FFFFFF51DBEBF0FE3FFFFFFFFFBEFBFFC8
:10034000DFEFDFFEFFFFEFF7FF7FEF6FDEF6EFFF80
:10035000BBB7FFFFFEEEEEFDFFEEFDEF7FF7BDDF6B
:10036000EF7FFF77DEDE1FFFFFFFFFFFFFFFFFFFD7
:10037000FF000007FA801F001400000AA40000001C
:10038000008802A8040000003001F8743C280781AE
:10039000FC507C3FFFFFFF796FE1F8FFAEFDFFDF10
:1003A000FBFFFFDFFFFFFDFFFBDEFEFFFFFF7FFD2B
:1003B000F7BFFFF7FFFDDDDEFFFFFFBF777FEF7BBE
:1003C000DBFFFFFFBDF77BFDFFF83FFFFFFFFFFFF8
:1003D000FFFFFFFFFE000002F4801E00A4000024C7
:1003E000900000000AA01481000000016001F8588C
:1003F00078F03F07F870F47FFFD03EDBDF00E1FFCD
:10040000FFFFEEFEFFFBFFFEFB7EFFEFFFFFFFFFA8
:10041000BFEFFBFBFFFFBB7EEEFFFFFBDBBBBBF7D2
:10042000FFFBBFFFFF6DEEEDFFFBDDDF7BB87FFF66
:10043000FFFFFFFFFFFFFFFFFE200001F5000700A9
:100440004800001240000000250015400000000593
:1004500081507C6C30D0FFFFF85C3E7FFF0007EDE1
:100460007F0861FF7FDFFFFFFEFFEEFFFFFFFFFF63
:10047000DF7FF7DDEDFDFEDFDEEDFFDFFFF7777FEE
:10048000FFFFFFFFDDDFFDEF77FF77FFEEBFFFFF31
:10049000EF60FFFFFFFFFFFFFFFFFFFFF8600001BE
:1004A000CA000701200000AA80000000490049009E
:1004B0004000000E04A8787861A3FFFFF1D41FFF6D
:1004C000FF0007FBBE1C43DFFFFF7FF7DFDF7FF787
:1004D000EFEFDF7DFFF7BFFFFFBFDFFEFBFFEFFBAF
:1004E000BBBFFFEEFEEEEEDDFFFEEFBDFEFFFF7FCA
:1004F000FBEF77B6FFF1FFFFFFFFFFFFFFFFFFFFFF
:10050000F87C0000E8000700A8000052400000004E
:100510002A0024090000001805243C2CA3E3FFDF77
:10052000E17F1FFFFFAFC1AEFC3E07FBF6FBFBBF49
:10053000FFFFFFFFFFFBFBFFFBFFFEFFFFFFFBF7E4
:10054000FFBF7B7FFFFDDDFFB7FFFFFF7777FFFF7B
:10055000DFEDFBDBBFFDFDFFDBC3FFFFFFFFFFFFA9
:10056000FFFFFFFFFEF80000920004054000012499
:1005700080000002D201500000004040294878F875
:100580000751FF8F82D60FFFFEBAE0FBFC7C0FFF06
:10059000DFFFFFFEF7FFFBBF7DFFFFEFFFDEFFEF9B
:1005A0007FF7FF7F6FF7FFEEEEEFFFBBFF777BF785
:1005B000FFFFBB77FBBFBFFFF7BFEF7BFF87FFFFEF
:1005C000FFFFFFFFFFFFFFFFFFF8000048000202F0
:1005D000800000AA000002016800A00000012000C5
:1005E000A52430AE03E1FFC0037B8FFFFFEFB856B9
:1005F000FEBE0FFFFFDFDFFFFF7DDFFFFFBFBFFF9F
:10060000DEFFFBFBFB7F6FDBFEFDEFFFFFFF77FFF6
:10061000FFBFDFBFDDDDFFFDBFFFEF6FFDEEDFDF03
:10062000768FFFFFFFFFFFFFFFFFFFFFFFF00000E0
:1006300020000408000002900000000AE00500000D
:10064000100A800214A8617807A3FFC01EDE8FF78E
:10065000FF5AE83DFFFF3EEF7EFBFEEFFFEFFFF7A7
:10066000EFFDFEFDFFFBDFBFDFFFFDFFFBDFBDBBDF
:10067000BBBBFEEEDBFBFEFDFFFFEFBFF6EDFDFDBE
:10068000EEFBFDF7FF0FFFFFFFFFFFFFFFFFFFFF89
:10069000FFF800009000000A800002A8000000059A
:1006A00070054000002A55288000A1AFD1F1FFF06D
:1006B000ABEB8FC0FFEF5E57FFDFFFFFABFF77FFB6
:1006C000BBFFFF7DFFEFF7FFF7FFFFFFFFDDFFFE43
:1006D000DFFFFFFFFFFFDFFFFEFF77EF77777DF79D
:1006E0007FFFBFFFBFFFBFFEDC1FFFFFFFFFFFFF5E
:1006F000FFFFFFFFFFF000002000001200000920B4
:100700000070001540080000009152400000077A78
:10071000B1C3FFD7F6BE8F007FBAF41FFF1FFFFCE7
:1007200001FFFFFBFFFEF7FFBDFFFFBF7FBF7DFDAA
:10073000FDFFB76FFEF6EFDDEEEEFBBBBFDFFFBFE9
:10074000FFFFFFFFEF77F76FFBB7F76FFE3FFFFF8E
:10075000FFFFFFFFFFFFFFFFFFF00000400000145E
:1007600000000240007800088002000000A6480057
:10077000000000EFF163FFE95FDB8E143FEF5E1FC7
:10078000FF83FBE8005FFFBFFFBFBFDFFF7FBFF757
:10079000FDF7EFEFEFF7FFFBF7BFFEFF7FFFFFFF78
:1007A000FBFDDDFDDDDDF6DDFBFEFFFBEFFDEFFB21
:1007B000707FFFFFFFFFFFFFFFFFFFFFFFF0000065
:1007C000800000480000148000F000AA0000000033
:1007D000065C9000000001BAA087FBF0F5B61C1A79
:1007E0003EBBF53FFF85FF50A813DEFEEFF7FDFF90
:1007F000FFFBFFFFFFFFFFBF7FBFFDFF7FFF7BEF23
:10080000FBBBBDEEEF77FFEFFFFFBFFFBFBFDDFF1D
:10081000FEDF7DBFF87FFFFFFFFFFFFFFFFFFFFF52
:10082000FFF80004400000300000054000300012D6
:1008300080000000093D0000000000EFF88784F808
:100840005EDF982E1E3D5E1FFFE02502FE007FFF4B
:10085000FEFFFFFEF7DFFFFEEFFEFFFFFFFF6F6F04
:10086000DEFBDFFDDFFFEF7FFFFF777F7777FF7B2B
:10087000EFFBFF6FBBFFFFF7D1FFFFFFFFFFFFFFA6
:10088000FFFFFFFFFFF80009000000A000002900A3
:10089000004000BC0000080052BC0000000000BA8C
:1008A000A10E0078B7BFF0FA3E3FF43FFFF000071B
:1008B000FF80F7EFFFFEEFB7DFFEFFDFFEDFDBFBC2
:1008C000F6FDFFFDFBDFFEFFFEEEFFF7BDDFFFFBEA
:1008D000FFFEEDEFFDEF77FDFFEDDBFF61FFFFFFBB
:1008E000FFFFFFFFFFFFFFFFFFF800054000009044
:1008F00000000A000000003E00000000155A000041
:10090000000000EFE01C001C3AFFF8D71F1F5E1F1D
:10091000FFFE001FFEF43FFFBBEFFFFFFEFFFFFBEC
:10092000FFF7FFDFBFEFFDFFFFFF77B777FFFDFDAD
:10093000FFFDDDDFDDEFFFFFBF7FFFBFEEFFFF5BF2
:10094000C3FFFFFFFFFFFFFFFFFFFFFFFFF80009EF
:100950000000012000005200000002F80000000129
:100960006AA00000000000BBC0387E38EFFFFBBD6E
:100970003E3FF07FFFFFEDFFFB5E3DBBFFBFFBFF98
:10098000FFEFFFFFBBFFFEFFFFFF6FB76F77FFFFBC
:10099000FFBBB7BFEF77FFFDFFBDBF7BF7F7DDF70D
:1009A000FFB76FFF07FFFFFFFFFFFFFFFFFFFFFF27
:1009B000FFFC000200000080000029000000013C54
:1009C00000000004AE800000000000FFE078ABB83B
:1009D0007FFFFFD7FE3FE07C03FFFFFFF8161FFFFE
:1009E000EFFBBF7DBBFDDFFFFFFF6FFEFBBFFFFF28
:1009F000FBFDDEFDDDFFFFF77BFF776F77FFFBDFA2
:100A00007FBEFFFFDBFFFDEE0FFFFFFFFFFFFFFFDE
:100A1000FFFFFFFFFFF800148000050000009400B6
:100A200000000AA0000000029F000000000001FF7B
:100A3000E1F0FFF1FFFFFFFD7C7FD0E0007FFFFFD3
:100A4000F0071FFEFEFFFFEFFFBFFDBBFEDDFFDF78
:100A5000EFF7FBFDFFDFFBDFFFEEFDFFFFDFFFFF3B
:100A6000FEEFEFFFFDFFF77DFEFEDF7E1FFFFFFFC6
:100A7000FFFFFFFFFFFFFFFFFFFC000A00000280F7
:100A80000000520000000290000000152700000046
:100A9000000003A0FFF17FE1FFFFFFFBF87FFBE019
:100AA000003FFFFFF80187EFFFFFF7FFFFFF7FFE2B
:100AB000EFFFFEFBFEFEDF6FDEFF7FF7777FEFDDF0
:100AC000EEFDDDFBDFFB7EFDEFFBBFEFFFDBF7F4B1
:100AD0003FFFFFFFFFFFFFFFFFFFFFFFFFFC0012D5
:100AE00000000480000148000000154000000029BB
:100AF0005C00000000000E003FFFFFC3FFFF81FF0E
:100B0000F0FFFFEFFC3BFFFFF1C30EFFBBDDFEFF7D
:100B10006EF7F7EFFFFFDFFFBFFFFFFF7BF7EF7F12
:100B2000FFFBBF7FBFF7FFBF7BBFFFDFBF6FFDFFD7
:100B30006BFF7DB87FFFFFFFFFFFFFFFFFFFFFFFA2
:100B4000FFFE0009000002000001240000000A501E
:100B50000000000F40000000000008001FFFC0EF71
:100B6000FFFF007FF0FFFEFF17E1FFFFF8718FBB73
:100B7000FFFFDFFBFFFFFFFFBF76FBFFFFDB7DBB60
:100B8000FFBDFBFFDDDFFBF7FBBF77EFFFEFDBF721
:100B9000FBFEEFBBFF77EFE0FFFFFFFFFFFFFFFF75
:100BA000FFFFFFFFFFFC002A0000150000025000BD
:100BB00000002940000000AF80000000000020017C
:100BC0000FFE003FFFFE00FFF3FF801E2D43FFFFDF
:100BD000F80197FFFF7F7FBFFFBDDEFFF7FFFF6ECE
:100BE000EDFFEFFFDFFFBFDBFFFEFFFEFFFFFEFDC0
:100BF000EEFDFF7EFFFBFFFFDFFEFBE1FFFFFFFFE0
:100C0000FFFFFFFFFFFFFFFFFFFE000400000400E7
:100C10000000A8000000952004000057C00000005C
:100C20000000000187FE041FFFFB5C7FFF8E0007B2
:100C300017FBFFFFFE04002F77F7FBFFDDFFFFB67A
:100C4000FFFFFFFFFFFFFFEEFEF7FEFF7777EEDF10
:100C5000EEEDDFFF7FFF77FFEEDFB6EFFBBFBE837A
:100C6000FFFFFFFFFFFFFFFFFFFFFFFFFFFE00147F
:100C70000000150000054000000057400000012B57
:100C80000000000000000001CFFC3A0FA7FEF47F37
:100C9000FF8815070D57FFFFFF80000FFFFFFFEED6
:100CA000FFF7FBFFFDDDB7FBFF76FB7FF7DEEFFF16
:100CB000FFFFBFFBBFFFFBB7FBB7FEDBBFFEFFFDC8
:100CC000FDDBEFC7FFFFFFFFFFFFFFFFFFFFFFFFA2
:100CD000FFFF001400000400000550000001278001
:100CE000000000A40000000000000001EFFEAF873C
:100CF00081FF5C3FFF082FC397FBFEFFFFE9550113
:100D0000BEDEEF7FF7FFBFFFDFFFFFDFDBFFDFFBB5
:100D1000BFFFFBEDDDDDFBFFFBBF7FFFDFFFDFFF85
:100D2000FBF7FFDFB7FEFB0FFFFFFFFFFFFFFFFF3C
:100D3000FFFFFFFFFFFF80080000B1000009200057
:100D40000020AF80000005500000000000000001FE
:100D5000FFFDF54703FDF47FFE18FAE30D57F83F5A
:100D6000FFFF7FC2F7FFFFFBFF7DFFDFFF77FDFE89
:100D7000FFDDFFBFFDF7BF7FFFFFFF6EFFF7EEFD5B
:100D8000FEFDFBFDFF7F6DFFFF7FBE1FFFFFFFFF2F
:100D9000FFFFFFFFFFFFFFFFFFFFC0080000DC00B9
:100DA000000240000001278000000248000000000F
:100DB00000000001FFFF5FC62BFEAC7FFF30AFA13C
:100DC00017FFFC0FF955FFF07FFBBDFFDFDFEEFBE8
:100DD0007BFFDF7FFFFF7DEEEFBDFFFF77776FFFCC
:100DE000EEFDFFEF77EF7F6F6FDBFFBBEFEDFC3FBB
:100DF000FFFFFFFFFFFFFFFFFFFFFFFFFFFFC02819
:100E0000000370000015400000054F000000155061
:100E10000000000000000001FFFDF5421FFDF8E9A1
:100E20007F1BFAD21D7FD507F1FD5FF8FF7FFFBE64
:100E3000FDFFFFFFFFFDFFF7DDF7EFFFFFFFEDDB3E
:100E4000FFFFFDFBBFDFBBBFFF7FEFFFFDFFDEFF4F
:100E5000FDFFD83FFFFFFFFFFFFFFFFFFFFFFFFF8B
:100E6000FFFFF02000015A00000A80000002550038
:100E7000000004800000000000000003FFFF5FE0AE
:100E80002BFEA8003F0EAF6217FFFFC3F85401FC12
:100E90001BEFF7EFFFF77BDFEFDF7BFFFFBFF7BB5A
:100EA000BEF77FFFDDDDFFDFFBFFFFFDDBFDFDFDAF
:100EB000FFFEF7F7BFB770FFFFFFFFFFFFFFFFFF6A
:100EC000FFFFFFFFFFFFF8140002F40000292000DD
:100ED00000155200000055000000400000002207ED
:100EE000FFF5F54043FBE0000F15F5C03FFFAAA159
:100EF000F8C000FE3FFEFFFFDFFFFFFBFEFFFFBD70
:100F0000F7FDBEFFF7DFFF7EFFFFB77EFF76EEF750
:100F1000FFB7BFB7B76FFFBFFBFBC0FFFFFFFFFF10
:100F2000FFFFFFFFFFFFFFFFFFFFFC08000128009E
:100F300000128000000A4800000029400001600003
:100F400000109487FFDF5FE041E5400F078F5F608F
:100F50003FFFFF70F800681E1EFFDF7DFBBDEF7FC7
:100F6000BFFBEFFF7FEFFFEEFFFDDBF7F777FFF74C
:100F7000EFFFFFFF7FFFFBFFFFFBDDFBEFFF83FFCB
:100F8000FFFFFFFFFFFFFFFFFFFFFFFFFFFFFF0070
:100F900000002000005480000012A800000095000E
:100FA0000000C0000140550FFFF5F540E1E3C07AB5
:100FB000870AFFC0FFFFF400F807FC1F1FDFFBFFDD
:100FC000FFFFFFFEFBFFFEEFFDFFEFFFDDFFFFDF9B
:100FD000BFFEFDFFBDDFBBBFEDEEEFFDFDFF7FEF11
:100FE000FF6F07FFFFFFFFFFFFFFFFFFFFFFFFFF99
:100FF000FFFFFF8000001400002540000004940063
:1010000000005200000060000A50201F7FAF5FA068
:10101000B8C3FB57E30FFFE0FFFFF800781FFF871F
:101020001BF6FFF7DEEFBDF7FF6FBFFFEFBB7DBB2A
:10103000FFB77EFDFDDFEFDDFFFDFFEDFF7FFF6F03
:101040006F6FF77FBBFA1FFFFFFFFFFFFFFFFFFF81
:10105000FFFFFFFFFFFFFFE000002800005500003A
:10106000001AA0000002A40400000000A92000381B
:101070003F7AF581F8C7FEFD431FFFDFFFFFC00089
:10108000F8BFDF421FFFFEDEFFFFFFDFDFFDF7FBE4
:10109000FFFFFFFF77FFEFFFEFFBBF7FEF77EEFF75
:1010A000BFFBBBFFFFFDFFFBFEDC5FFFFFFFFFFFA2
:1010B000FFFFFFFFFFFFFFFFFFFFFFF8000024001F
:1010C00000124000000954000000940000000002DB
:1010D000354100701FEFDF42B887FB55F10FFFFF6E
:1010E000FFFFE2E878FDFFE01F7FEFFFFBFEF7FF69
:1010F000FFFFFFDFBEEFDBEFFF7DFBB77F7FFBF77F
:101100007BFF7FFFEDDFFFFDFDFFDDDFEFF07FFF0A
:10111000FFFFFFFFFFFFFFFFFFFFFFFFFFFFFFFCE2
:101120000000100000D480000025280000055000B9
:1011300000000004FA83ABC01D5AB587F80FFEFF0C
:10114000413FFFFFE07FF5B461EFBDF03FEF7FFF70
:10115000FFB7FF7B76EFBDFEFBFDFF7DDDEFBFFF41
:10116000FBEEFFFFFFDFFBB6FFFEEEDFB7B77FFF53
:10117000BDE0FFFFFFFFFFFFFFFFFFFFFFFFFFFFE0
:10118000FFFFFFFF8000000000254000002AA000B4
:101190000086A800000000127A60FE800E348EAF38
:1011A000F81FFFAB703FFFFFA03FFFDA61FFEFF8D2
:1011B0001DFBFBBB6FFFDFFFFFFFFF7FFFBF7FFF5D
:1011C000FFFFFF7FDFFFEEDDEEFDDFFFFF77FFF7C5
:1011D000FFFFF77BFF83FFFFFFFFFFFFFFFFFFFF27
:1011E000FFFFFFFFFFFFFFFFE000000000AA8000FD
:1011F00000494840001F8000000000157A91540506
:101200001C6003FFF81FFFFDC07FFFFF021FFFF8F8
:1012100007FBFF787FFFFFFFFEFEFDEFFFBBEFF751
:10122000DFF7EDDF77BBEDEDFEF7BFFFBFF7FEFFAA
:10123000B7FFBBFEFDFDFFEFF707FFFFFFFFFFFF5F
:10124000FFFFFFFFFFFFFFFFFFFFFFFFFD00055454
:1012500000924000002A5000000FD000000000540F
:10126000AAA00015060081FFF01BFFF7607FFFFEBC
:101270000D0FFFFE03DF7FFE37BFEFEFFFEFFFFD38
:10128000DBFEFFFFFDFFFFFBFDFF7FFF77BDFBF7F1
:10129000FBBF77EDFDDDFEDFEF6FDEFFDC0FFFFF55
:1012A000FFFFFFFFFFFFFFFFFFFFFFFFFFFFFFFF4E
:1012B000FF557FFE00548000004A9000001FA000F0
:1012C000000000A524A800491C07E0FFF063FFAA66
:1012D00081FFFFFC370FFFF81F7FFBDEFFF6FDFEEF
:1012E000DFFFEF7FFFFFFBBDFFBDBF7FDFEFFF7FB6
:1012F000FFFFFF7EFFFFFFBFFFFFEFFBBFFF7BDDB9
:10130000FC3FFFFFFFFFFFFFFFFFFFFFFFFFFFFFB0
:10131000FFFFFFFFFFFFFFFE804A80000029400023
:101320000017C00080000054A9554152085FF83FE3
:10133000E020FE05C1FFFFFC5D8FC3FC0FFBDFFF5C
:10134000FEFFBFBFFDBB7FFF7F6FBFFFB7EFFBEEB1
:10135000FF7DDBEDDEF76FDFEEFDDDFFB7777FBFF3
:10136000FDFBFFFFE87FFFFFFFFFFFFFFFFFFFFF2A
:10137000FFFFFFFFFFFFFFFFFFFFFFE0012900006E
:10138000014A5000002D00000000032A95252D1071
:1013900018FDFC3FE0F0F8010FFFFFFDF74E03FCE6
:1013A0007FFFFEF7EFFFFFFBF7FFFBDBF7FDFEEF35
:1013B000FFFFEFFFF7FFFFFFFBDFFDFBBFDFFFF6E8
:1013C000FFFFFBFEF7BFDEF7E0FFFFFFFFFFFFFFC2
:1013D000FFFFFFFFFFFFFFFFFFFFFFFFFFFFFFE03C
:1013E00000AA400000A94000002280000000014A3D
:1013F000A4AA5140107FFE1FF0587C31FFFFFFFF71
:101400005D8E00FFBEDF7FFF7FDBF6FF7FFFFFFF0C
:10141000FFFFEFFEFF7B7FBBBDF7BEDF7FFDFF7FE2
:10142000FBF777BFFDDDDEF7BFEEF7BF83FFFFFF02
:10143000FFFFFFFFFFFFFFFFFFFFFFFFFFFFFFFFBC
:10144000FFFFFFC0004A800001250000009500005A
:10145000000014AAAA92950061F7BF1FA5F470FFBF
:10146000FFFFFFFF7748387FF7FFEFBFFBFFFFEF7E
:10147000FEEEDEFFBDDFFFFFDBFFFBFFFFBEF7FB86
:10148000EF7FB7EEFF7FFEFFB7FFFFDFFDFFFFFD42
:1014900083FFFFFFFFFFFFFFFFFFFFFFFFFFFFFFD8
:1014A000FFFFFFFFFFFFFFC00090000000AA400009
:1014B0000054000000000A54A9554A0403FFEF1F1E
:1014C000F75C71FFFFD57FFFDD80FC3FFFFDFDFD79
:1014D000FF7EDFFFEFFFFFDDFFF77BBBFFEFDEEE01
:1014E000EFFFFFFFFBF7FFFFEFFDDFFDFF777BFE69
:1014F000EFBBDEEF0FFFFFFFFFFFFFFFFFFFFFFF71
:10150000FFFFFFFFFFFFFFFFFFFFFFE00000000006
:101510000292800000EA0000080012AA94A4A42805
:1015200007DEFF1FADF461FFFFFDFFFFF700FC3F8B
:10153000BF77FFEFDFFFFDFDFFBFF7FFEF7FFFFF8F
:10154000FEFDFFFFFFEFBB6EFFDEFDFBBDDFFBDF40
:10155000FFFFEF77FFFF7BFF3FFFFFFFFFFFFFFF77
:10156000FFFFFFFFFFFFFFFFFFFFFFFFFFFFFFE0AA
:101570000000000001548000017A000001C00F4902
:10158000652A90000FFFFB8EF75E23FFFF535FFF7E
:10159000FD83F71E7BFFB7FFFFDBFFDFBDFBBFF760
:1015A000FFFDEFEF77FF77BFBB7DFFFFEEFFEFDFC4
:1015B000FFF77FF76DDDFFFFBEEFFFBF7FFFFFFF90
:1015C000FFFFFFFFFFFFFFFFFFFFFFFFFFFFFFFF2B
:1015D000FFFFFFF0000A800004AA000001FC0000E9
:1015E00003C05F5554AAA0C03EF7FE1FBDE863F8D4
:1015F0007FD2FFFFD701E41C3FDFFEFDF6FFBF7F78
:10160000FFFFFDBEFBFFFDFFFFBFFFF7FFFFDFFB9F
:10161000BFF7BF7EEF7FEEFFFFFFBBDDF7FDDEF71D
:10162000FFFFFFFFFFFFFFFFFFFFFFFFFFFFFFFFCA
:10163000FFFFFFFFFFFFFFFC0160800002928000C0
:1016400000F4000003E03FD2AA925062FFFFBA1AF2
:10165000D6BE07E00761AFFFFB00F31E3FFEFFEFC2
:10166000BFFFFBFDF7EEFFFFBFEFBFBDDFFBDEFE01
:10167000EFF7F6DFFBBDFBF7FBFDFFBDFF77FEFFDE
:10168000FFBFF7FDFFFFFFFFFFFFFFFFFFFF6BFF48
:10169000FFFFFFFFFFFFFFFFFFFFFFFBBF8000001B
:1016A00004AA000003F400E00100BF2A492903DF77
:1016B000FBFFC03FBDE80F8005D0EFFFAE98C29C96
:1016C00076FBEFBFFFEEFFEFFEFFEFF7FEFFFFFF42
:1016D000FBEF7BDFFDBEFFFEFFFFFFFFBFDFBBF7C2
:1016E000B7FEEFEF7BF77FBFFFFFFFFFFFFFFFFFBF
:1016F000FFFDBEFFFFFFFFFFFFFFFFFFFFFFFFFF3D
:10170000FF420000052480000028007000005FA553
:10171000554A83FFFFDDC06AD6BC0F87A178BFFFA3
:10172000FBD8E3187FFFFBFDF77FEFFFDFBFFF7FF5
:10173000EFBEFDF7FF7FFFFBBFFFDFF7EEEF6EDDD4
:10174000FEF7FFFFFDDFFFFBDEFFFDF7FFFFFFFF03
:10175000FFFFFFFFFFEB6BFFFFFFFFFFFFFFFFFF41
:10176000FFFFFFFFFC0D8000094A0000054001F06B
:101770000000AD2924AA0FF76F7F83DF1DF81E1F1D
:10178000E0D0EFFF56B0C210FFBF7FFFFFFBFEFDB2
:10179000FFFBBDFDFFF7DFFF7FFDEF7FFFEFFB7F6F
:1017A000BFFFFFFFEFFEFEDEFFFBBB7FFFDDDFFFC6
:1017B000FFFFFFFFFFFFFFFFFFBDBD7FFFFFFFFF3D
:1017C000FFFFFFFFFFFFFFABFE16800004A9000034
:1017D000015401F00000929555240FFFFFF7C1530B
:1017E00087FC1E1FF878BFFFFBD8E390DDFBFF7777
:1017F000DDFFBFDF7DFFFFDFBDFFF7DFFBFF7FEE1C
:10180000FFFB7FDDFBBDFBF77BDFF7FFB77FFFEF64
:101810007BFFF7DBFFFFFFFFFFFFFFFFFFEB6FFF2C
:10182000FFFFFFFFFFFFFFFFFFFFFE00F87A8000D2
:10183000152400000A5003E0000254A54AA83EFF08
:10184000FDFFC04387F87C3DF870FFFFAEF1C50394
:10185000FFEFDFFF7FDFFBFFF7DEF7FFFFFEFF7D20
:10186000DF6FFBFFFFBFEFFFFFF7BF7FFF7BBFF720
:10187000FFEEEFFDFFF77EFFFFFFFFFFFFFFFFFF24
:10188000FEBDF57FFFFFFFFFFFFFFFFFFFFFFC0037
:101890007C30000009550000028800C000012A5475
:1018A00094A07FDDDFFDF001E3FE7E3FBE78EFFF19
:1018B000FB50F603B7FFFDDFFFFEFFFBFFFFFFFD61
:1018C000F7B7FFFFFFFFDFBBFFFFFB776EFFEFDD2B
:1018D000EFFFFDBDFDFFFDBFEFBFFFFFFFFFFFFF00
:1018E000FFFFFFFFFBD75FFFFFFFFFFFFFFFFFFFD4
:1018F000FFFFFC583C700000152400000CA0000005
:10190000000292955281FFFFFFBFFD0FC3FFFC3F16
:10191000FC6183FFD6C3FC0E1EFEF7FDEEF7EEFF63
:10192000BF77BDBFFFFFBBEFFFFBFEFF7EEDBFFF3D
:10193000FFDEFDFFBDEEEFFFBFBBFFFFFDFDDBB731
:10194000FFFFFFFFFFFFFFFFED7DEAFFFFFFFFFF50
:10195000FFFFFFFFFFFFFF6E1C7C0000095200002D
:1019600005500000000255492A42FDFF7BFFDFFFC2
:10197000F1FFFF1EFC61E1FFFBE3FE1F07F7FFFF26
:10198000FFFFFFEFFBFFFFF7DEFFFFFF6DBEF7EF8F
:10199000F7FFFFDDFBFFFFF7FFFFFFF7F7FFEFFBB1
:1019A000BFFFFFFFFFFFFFFFFFFFFFFFDBD77AFF58
:1019B000FFFFFFFFFFFFFFFFFFFFFEDA3C3E0000DF
:1019C0002A94000012400000000949554907DFBB76
:1019D000FFEDFFFEE1FFFE1BEA43E0FFFFFFFF7F9D
:1019E000815FBEEF7BBF7FBEFFFDEFFEFFEDEEFB35
:1019F000FFFFFFFDDFFFEDFFBF77B77EFF7BBB7F04
:101A0000FFFEFDDFFFB7FFFDFFFFFFFFFFFFFFFF53
:101A10006D7DD87FFFFFFFFFFFFFFFFFFFFFFFEFA1
:101A20000F7F800012520000055000000002AA94AF
:101A3000AA17F7FFEF7FF6F7F8FFFF8FFC43F8FFD9
:101A4000FFFFFFFF400BFFFFFFFBFBFFEFDFFFBFD1
:101A5000FBFFFFBFFFF7DFBFFEDB7FF7EFFDFFDF21
:101A6000DBDFFFFEDEEFBFFEFBFF6EDFFFFFFFFFF2
:101A7000FFFFFFFEDFD770FFFFFFFFFFFFFF81FFCC
:101A8000FFFFFFBA8FFF80002A9400002A40000069
:101A9000000CA525241EFFEFFFFF7FFFB1D57F0FB0
:101AA0007E0FB8FFFFFFFFFDE803EFFBDFFFDFFB6B
:101AB000FEFF7BFFBF7F7FFF7BFFFBF7F7FFFF7E14
:101AC000FDDFFDFBFFFEEFDFFFFFFFFFEFFFFFFF8F
:101AD000FFFFFFFFFFFFFFFB757DD0FFFFFFFFFF55
:101AE000FFFF007FFFFFFFEF8FC040000AA2000052
:101AF0000920000000052AA9505FFF7FBDF7DFDD48
:101B0000E0FBAFC7FC07FC7FFFFFFFFEBB407DBFD4
:101B1000FEEFFFBFBFF7FFFBFFF7FDF7DEDF7EFF46
:101B2000BFFFDBDFFFFF6FFF7FFFFEFBFBFBF777F6
:101B3000FFDDFFF7FFFFFFFFFFFFFFEEDFD771FFC6
:101B4000FFFFFFFFFFFE09FFFFFFFFBABE0000001F
:101B5000295400002A8000000012A4AE907FEDFB03
:101B6000FFDFFDFFE3AEDF87DEBEE87FFFFFF7FFAD
:101B7000F6D0FFFEF7FEFBFFFBFFEEEFEFFFDFFF10
:101B8000FFFBFFFDFDB6FFFBBF77FF7FEDB7FFFF5C
:101B90007F7FFFFF7DFFDBFFFFFFFFFFFF7FFFBBBF
:101BA000757A9FFFFFFFFFFFFFFC37FFFFFFFFEE90
:101BB000F80000001244000012A00000000A552F97
:101BC00040F77FFFF7FDFF7FC1702BC3FFFFFC3F96
:101BD000FFFF803FFB7837EFFFFFFFEEFFDEFFFEEA
:101BE000FDDDF7DEFFFFF7EFEFFFFFFFFBFFFBDBA6
:101BF000FFFFBBDFEFDEDFDFFFFFFFBFFFFFFFFF0A
:101C0000FDDFFFD6DFDC3FFFFFFFFFFFFFFC5FE8EC
:101C100001FFFFD8200100002A940000248000006A
:101C2000002AA95F43FFFFDEFEFFBFEF47C00FC7DB
:101C30007BFFBC78FFFE002FCFD41FFFBEDFBEFFAF
:101C4000EF7FFFFFFFFFFF7FEDFEFF7F7FEF6DFE6A
:101C5000EFDDBFFF7FFDFFFBFFFFFBFDEF777FFDAC
:101C6000FFFFFFFFFEB7FF7F75763FFFFFFFFFFF20
:101C7000FFFE6F8000FFFFEE0000400004A80000A0
:101C800015418000081554A703FFEEFFDFBFFBFFDF
:101C9000868107C3FF7BFE785FF80A0F842F0F7BD6
:101CA000FFFBF7FBFFFBBBBBEF7FBFFBFFB7DFFF1C
:101CB000FB7BFFFFFEFFFFFFEEDFEF7FFDF7FEFF89
:101CC000FFFFFEEFFFFFFFFFFDEEFDD5DFDC7FFF37
:101CD000FFFFFFFFFFFC3E0157FFFFFA00028000FD
:101CE00050020000524700001025CA940FBBFFF7B6
:101CF000FFF7EFF41D07C7C7EFEFF840B7F07B071A
:101D0000800A0FEFEFFFFFBFBBFFFFFFBFF7FBFF37
:101D1000BFFFFBEDFFFFFFFBBFFFEDDFFFFF7FFE20
:101D2000DFFF7FEFBDFDEFFFFFFFFFFFFEB87B7F13
:101D300075761FFFFFFFFFFFFFFE1606BDFFFFEFDB
:101D40004C010000000000002503C000002BE555F9
:101D50000FFFBBFEFBFF7ED01A1FC3C37FFFDC411A
:101D6000DFF0ADC3E001C3FEFBBFDFFFFFEFFFEF1E
:101D7000FDFEFFEFFDFEFFFFEFFFB7FFF7F6FFFBF6
:101D80007BFBFDEFFFDFEFFFFFEFFFFFFFFFFFFF3D
:101D9000FBE0EED5DFDC0FFFFFFFFFFFFFFE2C3D7A
:101DA000E8FFFFFAF80100000200000029470000E8
:101DB000004B9A503EFEFFBFFFBFFFA0703DC7CF54
:101DC000FBFEF80777F3FB41C7A187BFFFF6FDEEE7
:101DD000FEFEEDFEFFBFEEFEF7DFEEFF7EDDFFFF56
:101DE000FF7FFF7FFFBFFFFFF77DFDFBEFBF7BBBEB
:101DF000FFFFFFFD7D70BB7F757707FFFFFFFFFFD4
:101E0000FFD716B6B87FFFFFDC0080000FE40000AC
:101E10000A8100000014AA941FF7FFFFEFFDFBC02A
:101E2000807FE387FFB7F00D5BFAAE01E1F0C3FFFF
:101E3000DFFFFFFFEFFFFFBFF7F7FFBFFFFBFFF77E
:101E4000FFFFFF777FDFB7FFEFFFB77B7FFFFFBEAF
:101E5000FFFFFFFFFFFFFFFBFFF72ED5DFDD9FFF3B
:101E6000FFFFFFFFFFBF85EFD47FFFFFF8020000F9
:101E70003F5E00017400000A00A54AA87BBFEEED9A
:101E8000BDEFDFE001EF470FBEFFE03C37FFF0039F
:101E9000E3F147F7FDFFBF7FFFBBFFFBDFFF7FFBEA
:101EA000DF7FBFBFEFF7DBFFEFFDFFDDFEEEFFFFE4
:101EB000FDEF7FFFFBF7DEFFFFFFFFFEAFFC1B7FA9
:101EC0006FD6FBFFFFFFFFFFFFD7C2BD7C3FE3FFE5
:101ED000FC014000FEC00000BD40002E002A525010
:101EE0007FFFFFFFFFFFFFFC07FF861DEFFF60BEC8
:101EF0001DFEA061E379C37F7FDBFBFB7BFFBBFFA4
:101F0000FFBFFBFFFFFFFBFF7F7FFFFDFEFFFDFF2E
:101F1000BFFFFFEFEFFFEDEFBF7DFFF7FFFFFFF527
:101F2000C3E037D5FF0DA1FFFFFFFFFFFFFFD0EBA1
:101F3000D47F01FFFC028001FD000000FA80001C3C
:101F40000092AA90FFEDBFFFFF7DFEFFFFFB883FE1
:101F5000FFEFC1FE17FFC1E3C3FF07FFEF7FEFDF16
:101F6000FFEFFF7EFBFBDF7EF7DDFFFBFBFDFEDF10
:101F7000FFEFDFF7FBFBEDFEFF7BFFFFFFFFF7DF70
:101F8000FFFFFFF76000DD7EBFC2F1FFFFFFFFFF35
:101F9000FFA8781D7C3C01FFFF004007FF00000008
:101FA000FC40001C002AA550FEFFFDB777FF77BF5D
:101FB000FEDF00BF7F7BFFF78DFFC3E3C3EFC7DD0D
:101FC000FFFF7FFFDEFEFFF7FEFFFFF7FEFFEFDF05
:101FD000FFDFEFFFBBFEFF7FFFBFFFBFFFFF7F7D88
:101FE000F7DF7FFFFFFFFFFDF00377D7FBC183FF24
:101FF000FFFFF5FFFFF81817D47C3FFFFF82800F2B
:10200000FE000381F280000000CA94A1EFFFEFFF01
:10201000FFDFFFFBFFFE00F7EDFFF77F0BFF8FC336
:1020200087FF0FFFFBFFFDFFFFFFDFDFBFEF7FDF5E
:10203000BFF77DFF6FFF7FF7FFBFF7FDDFFEFFFB01
:10204000BBDFF7FFFFFFFDFDFFFFFFF6BD2DDD7AD4
:10205000A9F043FFFFFFEF5FFFD60F0D7EF87FFF74
:10206000FFC0401FFF0000F17A8000000052A9412C
:10207000FFB77FFDDDF7DDFFB7FF83FFFFFF7FFFCA
:1020800087FF87E38FBF0F7FBFEDFF76F7BBFDFFB5
:10209000EFFFEDFFF7FFFFFFFEF7FBBFEFFBFFDFFB
:1020A000FEEFDDFFFFFFFFF7DF7BFFDFFFFFFFFD41
:1020B000EEDB77D7D0F007FFFFFFBADFFFFD8F0B16
:1020C000D6F0FFFFFFE0007FFF010020448000000A
:1020D000012A5543FBFFFDEFFFFEFFDFFF77FFFD0A
:1020E000FFDFFDDB0DFF8E861EF73FF7FEFFB7FF1C
:1020F000FFFFF7FDFDFBFFFDFF7FFF77FFFFFFFD0C
:10210000FEFFBDFF77FFFFBFEF76DDDF7DFFBFFF87
:10211000FFFFFFF6B86DDD7D787D15FFFFFFC97706
:10212000FFEBC7C6AFA0C7FFFFFC007FFFD6801044
:1021300029000000004AA525BFFDFF7FFFBFFFFE6D
:10214000FFFFFF6FEEFDDFFFC7FF8FC02FFFDDFE3C
:10215000F7FFFFFFBDFF7FEFFFDFFFEFFFDDDBFFDF
:10216000BBDEEFFF7FEFFFF7FFFEFFEEFFFFFFFF9E
:10217000FFEFF777FFFFFFEDE0DB77D7D47FADFF11
:10218000FFFF80DFFFFEC30D82838FFFFFFF45FF50
:10219000FFFE0000A640000001A49483FFFFB7FEED
:1021A000EDFBDB77EFDDBFFF7FF7FFFF87FF1F0052
:1021B0007FFDFFDFFFBBFF6FFFDFFEFF7FFEDDBFA9
:1021C0006FFFFFDDFFFFFEEFF7FEEF7FFEDFEFFFAC
:1021D000FBFFFFFDF7FDFFFFFFFFFF56B97DDD7E33
:1021E000BC0FC7FFFFFFC02BFFFBE5074002C3FF8B
:1021F000FFFFFFFFF7FE00002B860000009552A3B3
:10220000F76FFFF7FFFFFFFFFEFFEDFFFBFFF77725
:102210008FFF0F82FEDFF7FFDFFEFBFDEFFDEFFF1D
:10222000F77FFFFFFEFF7FFFFF7BBFFFFFBFFFFFCB
:10223000B7FBFEFBBFB7776FFFBFDFFFFFFFFAC340
:10224000EBD777EBEA0305FFFFFFD45FFFF45A3DBE
:10225000A82FA7FFFFFFFFFD50FE0000AF0D0000FD
:102260000764AA07FFFFFEFFBFBEFFFDBBFFFFBB6A
:10227000FF7F7FFE0FFF87D7DFFF7F7BFDFFDFFF45
:10228000FEFFFFBBFFF7F7FBFBEFF6FFB7FFFBBD62
:10229000DEFBFBDDFFFF7BFFFFFFFFFFBEFFFBBBA6
:1022A000FFFFEFC7FEBDDAA82F83C07FFFFFFE2B25
:1022B000FFE02FD6F7FA87FFFFFFFFFF803E000009
:1022C00057C201400BAA4AC3BFFEEFDFFDEFEEEF9E
:1022D000FFF6FFFFEFFBFDFF1FFFC17FFBF7FFFFD7
:1022E0007FEFFFDFBFF77BFFDDFF7EFFBFFDFFED71
:1022F000FFEFFFFFFFFFBFFFFFEFFFEFEEFDFDFF73
:10230000FFF77FFFFFFFFAAFE0577F800AFEA0EFE5
:10231000FFFFFE1FFF802AFDAD570FFFFFFFFFFAF3
:10232000800F00009500028016EAA487FBBBFFFB2C
:10233000F7FFFFFFFF7FDDEEFFDFDFDC1FFF402F3A
:10234000FFBFDDEFEF7FFDFBFBDFFFFEFFDFFFDF0A
:10235000FF7FDFFFFDFEEFEFFBEFFEF7BB7FDF7ED2
:10236000FFFFBFEDEFFFFEFFFFFFD7FFB81DDFC090
:1023700005AB1A00FFFFFC17FF05BF56F7DF0FA2E2
:10238000FFFFFFFFF8070000548003E00B68950B88
:10239000FFFFBEFFBFFBBFBEF7DFFFFFBDFFFFFEBE
:1023A0003FFFF8016FFFFFFFFFFB6FFFFFFFDEEF57
:1023B000FFFDEFFEF7EFFFBFDFBFFEFFBFFDEFFF4B
:1023C000FFFDFFFFFFB7F77FFDDDEFF7FFFFFD5FCD
:1023D0007077FFFFC37C37C0FFFFF07FFF1F6AFDF0
:1023E000BD1F7D03FFFFFFF570070000920007800F
:1023F00006D552877EEFF7FEFEFFF7FFDFFBF7BF44
:10240000FFFB7770701F5601FEF6FFBDFBFFFF7EDE
:10241000EF7DFFFFEEFFFDF7FFFDF6FBFFFBFFFB90
:10242000FEFFFFBDFFDFF7EFB7FFFFFF7FFFFFDF1F
:10243000FFFFD7C1DFDFFFFFF0D70151FD7FF82F8E
:10244000FF0DAF56D787FA01FFFFFFFDDC03000049
:10245000248003C00BF52A47F7FFFFEFFFDEFEFBEA
:10246000FEFFBFFBF7BFFFF8C0077BD03FFFFBFFBE
:10247000BFEFFFEFFFFFF7BF7FF7BFFFDF7F7FFFFC
:102480007DFFBBBFEFDF7BFFEDFF7EFBFEFFBFF7F6
:10249000FF7FBDFFFFFFFD42357FFFFFF1BD03F76B
:1024A000807EF87FFF0F08FDBD0FA03FFFFF5FF6A6
:1024B0003D060000800007800689548FDFFB7EFF09
:1024C000DBFFFFEFFFFEFDFFFFFFFFC00107CEE8D0
:1024D0005FDFBFEFFEFEF7FFFDEF7FF7FBDFFF7F64
:1024E000FDFFFFEFF7DFFFFEFFFBFFEF7FF7FFFFD3
:1024F000FFEDFBFFDBF7FFFBFFFFD3E00FFFFFFF6D
:10250000F877E55FC03BFE17FF8F8057D5C0807F0F
:10251000FFFFF7FB1F0000004000010081555286BD
:10252000FFDFFFBDFFFBB7FFBBB7FFDEDEFDEEE069
:102530000FE3C13E2DFFFEFFEFBFBEFDDFFFFDFF3E
:10254000FFFDF7FB7FDBEEFFFFFEEFF7FEFFEEFF89
:10255000FF7FEFBF77FFFEDDFFFEF7BFFFFFE55810
:102560001BFFFFFFF8DD5BF583FEBE1FFFFFC1FF12
:10257000FF4003D7EBFF5FFE3E00000006000003B4
:1025800005524A0FFDFFDBFFFEFFFEFEFFFFEFFFE0
:10259000FFEFBFC05FC380150FFBEFFBFFFBFFDF4B
:1025A000FF7BEFFDDEFFFFDFF7FFFFFDDF77FEFFC5
:1025B000BBFFFFFBEFFDFDFBFEFFBFFFFF7FFFFF4C
:1025C000FFFFF0EF6FFFFFFFFC27ED5FE3EBFF1F67
:1025D000FFFFEDFFFFF82F7D63FFB5FF0F800000C9
:1025E0000F8002B1804AAA87EF7EFFF76FEFFFF7F7
:1025F000EFFF7F7BFBFFFBF2FFE1C4078FBEFFBF56
:102600007BFFFFFFF7FFFFDFFFFFDDFFFFFFBBDF0C
:10261000FBFFFFDFFFEDBFBFFBDF7FFFFFBBF7FF70
:1026200077F7DEF7FFFFF15BDFFFFFFFFC0D1FF425
:10263000C07D7F3FFFFFFFFFFFF6FFD6C1FD6FFEAE
:102640001F0000007F8015E900A9520FBFF7FF7F30
:10265000FFBEEFBFFEEFFBFFBFBFFFEFFDE38F034A
:102660008FFFFBFFFF7F6DF77FDEFEFF7BB77FFDF8
:10267000DEEEFFFFFFFEDFFDEFBFFBFEFFFFFFBF54
:102680006FFFFF77FFDFFFFFFFFFF8ED7FFFFFFF2B
:10269000FF07055A7017FF5FFFFFFCFFFFFFFFFFFB
:1026A00070FFE91F0FC00000BEC0AEB4500AAA8D73
:1026B000FFFFDBFFFDFFFFFF7FFDFFEFEFFB7EFF77
:1026C000BFF187E08BEFBFF7DFDBFFFFFDFFF7F721
:1026D000FFFFFFEFFFFFFEF6DFEFFB7FFFFFFFEFE8
:1026E000BEF7DBF7FBEFBFFFFDFF7BDFFFFFF8BBB4
:1026F000FFFFFFFFFFC70BF46AFAFFFFFFFFF8FFC2
:10270000FFCFFFFED07E820F9FC00005FDD1FBE909
:10271000FC54920FFB7DFFDDDFFFFBFBF7BFDFFD0E
:10272000FEFFEFFFF7C31FF08F7FFEFEFFFFFF7D71
:10273000EFF7BFFFEFFDEDBFF7BFDFFFFDBFFFF717
:102740007BFBBEFFFFFFFFFFFFFEF7DDDFFBFFFBB5
:10275000FFFFF86FFFFFFFFFFFFFC55C3DA7FFFF17
:10276000FFABFC7FFF47FFFF7C0E800787F8001759
:10277000FF6AC7241612A907DFEFFFFFFFEDDFDFB7
:10278000FFFFFDBFFFDFFFF6FE870FFC0FFDEFBF72
:10279000FDFFF7DFFF7FFFBEFEDFFFFFBFFDF7DFBF
:1027A000FFFDDFFFFEDFF7FDFBDF7FBDDFBFFDFFCE
:1027B000FFBFEF7FFFFD78FFFFFFFFFFFFFBC3F6CB
:1027C0000AC7FFFFFC01FC7FFAC7FFFFD40F0A8393
:1027D0008FFD007FFEDF8C00042A4A0F7FFF76F713
:1027E000F77FFEFF7DEEFFFF77FDFDDFFE043FF884
:1027F0001FFFFFFFEFBDBFFFBFFDF7FFFFFFBFFBE9
:10280000FDEFFFFDDFFFFDDFDFFFFFBFDFFBF7FFBA
:10281000FDFBFFFF77FFFFFF7FF7DC7FF5FFFFFF8B
:10282000FFF0F15B0003FF7FF000FC3FEF43FFFF91
:1028300057838EE187FFA5FFEF6F8000000ABD0F71
:10284000FBBFFFFFBFFF7FFFDFFFF7F7FFFFDFFFEC
:10285000DD0C3DBE17B77BFB7FEFFDFBFBDFFEF71B
:10286000BBFBFBDFFFFFBF7FF7777FFDFFFDBFF700
:10287000FF7FFEEF7FFFDF77FEFDBDF7DFED60FF3F
:10288000EFFFFFFFFFE061F6C01FFF1F80507C3F9E
:10289000FBC1FFF805431BA38FFFFFF07EDF0000A5
:1028A0000032BD1DFFF7DFBDFDEFF7DBFF7BBFFF94
:1028B000FDDFFFFDFA307FFC3EFFFFBFFDFFFFFFA6
:1028C000FFFF7FFFFFBFFF7EEFBFFBF7FFFFF7FFBD
:1028D000F7BFFBFF7FFEDFFFF7BEFBFFFFDFFFDF82
:1028E0007F5701FFFAFEFFFFFFF4115BB47FFF0E7D
:1028F00001BC3C7FED71EFE803F18EF0C7D5FFF826
:102900003F438000004A7D07EFFEFFFFFFFDFFFF12
:10291000F7FFFEDFFFF776DFF800F7FE5FFFDFFF70
:10292000DFFFEF6F6EF7F7DDEFFEEFFFFFFEFFFF5C
:10293000BFDFFF777DF7FFBFEDF7FFFDFFEFFFFD87
:10294000DBF7F7FFDF1C00FEAFFBFDFFFFFD02F62C
:102950002FDFFF0C0F6C78FF9BD1BFE0FEA21BA006
:102960008EBEFEA03D8F00000552FE1FBDDFF6F7B4
:10297000B7BFBDFEFFDFEFFFFF7FFFFF7C03FF6FF1
:10298000FFFEFDEFFFBB7FFFFFFFDFFFFEEFFFEF6F
:10299000BDEFDF7DFBFDDFFFFFFF7EFBFFDFF77F8E
:1029A000DDFFDF6FFFFF7F7BB80B050083FD7F7FBF
:1029B000D7F681DE070FFFC6B5B6387F0F78D7C0D0
:1029C000ABF30EF80FEB78021F83C00001293D0F17
:1029D000FFFFFFFFFFFFFFEFBDFEFFFFFFFFFFF762
:1029E000DFAFDFFFEFFFFFFEFBFFFBFDFFBDFF7F64
:1029F0007FFFFEFBFFFBFFDFFF7FFBDFEFFFEFFF54
:102A0000FFFF7FF7FFFEFFFF7FBFFFFFE0840A00AD
:102A100007F7F5FFEFFD8374001FFF8FBF6871FE9E
:102A200015D1BF857EA03FF01D5EE0007D0FC04048
:102A3000024AA81EFF777FBDFDEDEF7FFFF7FBBFCA
:102A4000FFEDDFBFFFFFFBFBBFFFEF7FFFFFFFBF20
:102A5000DDFFFBF7F7FBBBFFEF7FF7FFBFF7FFFDE6
:102A6000FEDDFFDEDDFBFDFF7F77F7FFF7FBDDEF30
:102A7000A1C0094007FAFF5FBBFF75DC401FF78765
:102A8000EA1860BF1F600F842BC03FF07EEBE0A010
:102A90007C15F0100154A51FFBFFFBFFDFFFFFFBC0
:102AA000F77FDFFFFF7FFFFDFBFEFFBFFFFF7FFB29
:102AB000EEEEEFF7FFEFBFFFFFBFFFBEFFFF7EFBB6
:102AC000FBFFBEFFBFFFFDFFFFBFEFDFF7FFFDDD39
:102AD000FEFFFFFF030455557EAFF5DF62FDDF7497
:102AE00031FFE38DFC20C3FE2AC11F085E807FF901
:102AF000FF96C7EA803FF80002A52A1FBFFDDFEF5F
:102B0000FF7F7BFF7FFEFEEFFFFF7FFFBF77FFFFB3
:102B1000FFFFFDEF7FFFFEFF7FFFFF7DDEFEFFFF7C
:102B2000FBDFFFFFEFBDFFEFFBF77FF7F7FF7FFD59
:102B3000FFDEDFFFDFDEF77D0709112A1035FD6FAD
:102B4000B87C75DE1FFFE1173C50015F1F401F82FC
:102B50002B80FFFFFFC3F7BBC0503E000029540D80
:102B6000EFDFFEFF77F7FFEFFFF7FFFFFDF7FFFF58
:102B7000FFFFEEF6EFFFFFFFFFBFBFFFF77EF7DFC0
:102B8000FFEFEDFBBFFDF7EF7FFFFBFDFF7FF7BF23
:102B90007FFBFF7FDEFFFF77FFFFFFFF1812D548A7
:102BA000007FF05FE870DF7505FFE1DC30A000FE1C
:102BB00015807F840E03FFFC1782FFEE85C00F0097
:102BC00001AA923FFEFF7FFBFFFFDEFFDDDFDBFFA1
:102BD000FFFFFFFBEFDEFFFFFFFDDFBFDBF7FBDDEE
:102BE000FFF7FFFFF7FFFFDFFEFFDF7FFDEFBFBF58
:102BF000BFFFDFFFFDDFEFEFFFF7FFFF7BF7BFDF7B
:102C00002C3A001300AFF017AC3175DE801FF8745A
:102C100030FC003E1F40FFC20103FFFE01E0FEFB4F
:102C2000868003800092A41FFFF7FBBFFDDDFFBD80
:102C3000FFFFFFBBFFDFBFFFFEFFFBDFFBFFFBFD77
:102C4000FFFDFFFFBDFFBDF77FFBBFFFEFF7FFFD00
:102C5000FFFFEFFFFBDDFEFDDFFFFDFF7BFEEDFF76
:102C6000FFBFFEF770F0002A551FE02FFA21DF7535
:102C7000201FF83061BC00143AD7AFE0001FFFF806
:102C800001F8FFFE850402800054A83DBBBFDFFFB2
:102C90007FFFF7FFF7FB7FFF6DFDFFFEFBFBBFFD37
:102CA000BF6FFFF7FEFFDF7FFFDFFFFFFDBFFBFB17
:102CB000FFBF7BFFDF7BFEF7EFFFFFEFFF7B7FFBBD
:102CC000FF7FFFDBDEFDEFFFDAF80004A507E00F72
:102CD000EE2175AC1C0FFE00F2F400005FFA03F168
:102CE000000DFFFDF0787FFF061201C0004A963FFD
:102CF000FFFDFFFBF77FBFEF7FBFFEEFFFFFFFFF93
:102D0000BFFFFF7FFFFEDF7FEFDFFFFBF7FDF7DF9A
:102D1000DFFEFFBFBBFFFFB7F7FF7FFEFEF7BBFF86
:102D2000F7FFFFBFEFF7BFFFFFFFFBFFBEF9400557
:102D30002907C00F9A03DF78003FFE81E1B0000051
:102D40000FE001F00001FFFFA870FFBC1414018028
:102D50000092503FEFFFF77FDFF7FDFFFDFFDBFF46
:102D6000FF77BFF7FF6FEFF7EFFFFFFEFFFBF7EF18
:102D70007F7FFF7DFFEFEFFEFFF7EFFEFFDFF7BF87
:102D8000FFFFFFBDFFDFDBFFFFDFFB7EF7DF7F6DB8
:102D9000EBFFE002A567C0018E0575D4007FFFEC54
:102DA00070F0000003E001F080007FFFEC21FFFEE7
:102DB000005200C00055543B7EEFBFEFFFFEFF7D89
:102DC000DFEDFFFDDBFFFFFFF7FEFDFEFDBBFDEFCF
:102DD000BEFF7EFFFFF7DFFFFEFFFEEFFFBEFEFF41
:102DE000FDFFFFF7F7DEEFFFDDFDFFEDBEFEFFF7B6
:102DF000FFF7FFFFBEFFE004894780019E0FDF78E9
:102E0000D3FFFFFC70F0000003C000E10000FF7F73
:102E10008A23EAFC009481800029287FFFFFFDFEC1
:102E2000FDDFDFFFFFFFFFBFFFDEEFDEFFFFFFDFA6
:102E3000FFFFBFFFFBFFFFFFDDFF7DF7B7FBBFFF1E
:102E4000DDFFFFEFBFF6DDFEDFFFFEEF7FFFFEFFE2
:102E5000F7FFDFFFBDFFDFFFEBFBE0010007000036
:102E60008C1575AC3FFFEFFC3EF0000001C000E0A8
:102E700080007C078523A05F004A01C0000AA42FC0
:102E8000FBBEFFFFEFFFFBF7FBBFDDEF7FFFFEFFAA
:102E9000BDBBEFFFEFEFF77BFFDBF7DDFFDFFFFFF2
:102EA000FFBFFBFDFFFFBBFFEF7FFFFFFF7BFFFFD0
:102EB000FF776FFFFFBBFDDFFFBEFDB7BEE0600524
:102EC000001E00001E2FDF7A1FFD00FD3FF00020D6
:102ED00003C001C20000F003C3E6001F00A5018B80
:102EE0000052907EDFF7DF6FBF77FFBF7FFBFFFFF2
:102EF000F6FBFBFBFFFFBEFBBF7EFFFF7FFFBFFFBD
:102F0000F7FDF7BEFFFEFFBFF7B7FFBBFFFFFF6F89
:102F1000FDFF6FFBEFFFFFBBBDFFF7FBEFF7F7FF19
:102F2000EBF00000087C00000FF575AF05F0007EA7
:102F3000BFF0000003C000814000E041E2F302075F
:102F4000801A81868014AC3FFFFFFBFDFFFEDFFF90
:102F5000EEFF77FDFFFFDFFFF7EFFFFFFBFFFFDF78
:102F6000F77FFF7F7F7FBFFFFDEFEFF77FFDEFFE76
:102F7000FBDBBBFDEFEFFEDFFBDFFDFFFFEFBF7F06
:102F80007EFFFFFFBFE0000287E000000FEFDF7F62
:102F90008000387B7FF000000780000A8001C0338A
:102FA000E3FFFF0F006E800F002A90F7F6FEFFFF91
:102FB000F7FFFBEDFFEFFF7FDFBEFFBFFF7EFBBE36
:102FC000FFF7DDFFFFF7F7EFFFF7FEEFB7FFFEFFBD
:102FD000FDFFFEFFFFFFFFFFBFFFFBFEFFFDDFEE7C
:102FE000EFFDFFEFFBFDBEDBEBF00001000000009A
:102FF00007FD6BFFE002FE3DBFF00000078000050B
:103000002000C01FFEFFBDC7003F400F8004A83F47
:103010007FEFDFEF7EDBFEFFFFFFFFF7FFEFFFEE4F
:10302000DFFFFFEFFFBFFFFDDDFF7DFDDDFFFFFDEC
:10303000FF7BBFFFDFDFBFF7EF7FEFDFFFBEDFFF0D
:10304000DF7FFFFFFFBFFDFFDFEFF7FFBFF00000F7
:10305000A000000007FFFFFFFD0BBEF77FF00000A0
:103060000E0000094003000FFFFFFF45003E401F18
:10307000802AA87FFFBFFB7FFFFFBFFF777BBBDE00
:10308000F6FFDBFFFBF7BFFFB7FDF7BFFFDFFFFF7B
:10309000FFDEEFFFFFFFFBBBFFFBFBDF7FF6FDFB70
:1030A000FBF7FF77FBF776FFFBFF6FBBFF7FFFFFB1
:1030B000EBF800004881000007FFFFFFFF86BFF824
:1030C000BFF000000C000004A0030001FFBFFC5093
:1030D000001F2007000A447DDBFEFFFDDBFFEFF74A
:1030E000FFFFFFFFFFFDFF7FFFBFEEFBFEFF7FF750
:1030F000FFFDEFEFF7FFFBB7EFDEFFFEF77FFFFF10
:10310000FDFFFF7FDEFFFBFF7FFFFFB6DEFBFFFF64
:103110007BFEDFDBBFF800009507800007FFFFFFA5
:10312000FF8D1FC0FFF000001020000520061003D7
:10313000FFFBFCE0003A80040012A8EFFFF7FFDF7E
:10314000FFBBFDBFDDDEEEFFBFDFFFF77FFDFFFF53
:10315000FFEFFEFEEEFFFEFEFF77BFFF7DFFEFEF0E
:10316000FFFEEF7DEFBFBFFEFFFDBFDFEF7FDFFFA5
:10317000FFDFFBEFFFDBFB7FEFFE00005207C0002D
:1031800003FFFFFFFF8785003FF0000000200002E3
:1031900090040801FFFFFC38000450000054907FA9
:1031A000FFBFB6FF7FFF7FFEFFFFFFFBFDFFDDFFE1
:1031B000EEFFFBDEEFFFEFFFFFF7BFBFDFFFFEFF1E
:1031C000FFFBFEFFDDEFFFFFFFFBFBF7FFEFFFFD68
:1031D000FFEEFDFFFFFFDF7FEEFFFFFFDFFE0000E2
:1031E0009507800007FFFEAFFF8A8007FFF0000011
:1031F0000148000140182003F57FFE000015400043
:1032000001F550FEDDFFFFF7F6EFFFFFFFF7FFBF11
:10321000EFF6FFDFFFEF7FFFFDBDFFBFBFBFF7F79B
:10322000FDFDF7EDFF7FBFFDFFFFBDDF7DFFFF7FF2
:10323000DBBFEDFFFBFFFFB6EDF6FFFB7FFF7FDBA4
:103240007F7F80005202C00007FFFF78FF87601D6C
:103250007FF800000050000250085400D00FEF002B
:10326000000AA80001FA4877FFEEFFFFFFFFEDDB41
:10327000BBBF6DFEFFBFF7FB7FFFDF77BFFFFBFB31
:10328000FBFEFFFFFFDFFFFFB7EFFBDFFFBDFFFB35
:10329000FFEEEFDFFFFEFF77DF7BF7FFFF7FFDFF36
:1032A000FBDBF6FF7DDF0000950100000FFFFAD089
:1032B000FF8ADFF7FFF8000000200000A000900167
:1032C000C01F7F400012200007F9507FF77FDDBD4F
:1032D000DFFBFFFFFFFFFFEFFFFFFF7FEDFBFFFFC8
:1032E000FFF77FFFFFF7FDFDBFFF7EFFFFFEFFFF44
:1032F00077FFEFFFDF7FFFFB7EFBFFFEFFFF7FFF20
:10330000BFFFB7BFDFFFDFFF1B63C000AA000000E5
:103310000FFFFF7C7F87755D7FFC000000140000BD
:10332000A8002400E17FFFF40005540003FC945F33
:10333000BFFBFFFFFDDFBF7FEEFDFFFFB6FDDFFF41
:10334000FFDFFDFDF77FDEEEEFBFDFDFFB7BEFDDB5
:10335000FF7FEF7BFEF7FF6FF7FFBEFFEFDFBBDF07
:10336000FDEFDF6DFBEDFFF6FF7FFFDB1EC1800091
:10337000448000001FFFEAD4FF8BDFF6FFFC000053
:1033800000500001105D4801C75FFBFF800950003D
:1033900001F2A0FBFFFFF7EF7FFEFBEEFFDFDDBBDF
:1033A000FFEFFDEEFF7EEFDFFFFFFFFFFDFFFF7F83
:1033B000EFFFFFFFDDF7FFFFDFFEFBFDFFEFFBDFB2
:1033C000FFFFFFFFBFFFFBFFFFBFFEFFF7EDFBFFB0
:1033D0001B70E0012A0000007FFFEF7EFFC5755BD8
:1033E000FFFF000000080000AC552A00C1EFFFBF3E
:1033F000E005EA0001FA543EF6EFBEFFF77FFFFF5B
:10340000FFF7FFFFFFFF7FFFF7FFFFFFDFDDF7BFE6
:10341000BFFB77FEFFEF7EF7FFFFBDEFFFDFDFFFB4
:10342000BF7EFFFDBEFDEF7DF7BEFFFFEFFFB7DF05
:10343000BDFFDF7FFED0C40052000003F8FFDAD7E3
:10344000FFC3AFF7FFFFE0400000F8005035540025
:10345000E21FBC07C003E40000D2907FFFFDFFFB2A
:10346000FFEFDFFBBBFEF7FEEEFFF7BFBFF7BDF7D9
:103470007DFFFFFBFFBFFFEFFEFFEFFF7FBDFFFE06
:10348000F77FFF7FF7FBEFFFF7DFFDEFFFF7FEDBD7
:103490007DF7FFFBFFBF7FED7F0C66000A80000019
:1034A000403FEF7FEFE0F55DFFFFFFE00003FC0032
:1034B0002AAD2200E00BFC01F001F2000044AC3B1D
:1034C000DFBFF7DFDFFEFDBFFFBFFF6FFFDDFFFDEB
:1034D000FDBFFFBFFFF7DEFFFBEFFEFFF7FDFFDFE6
:1034E000EDFFF7BFFFF6F7EDFDFFFDB7FFFFBFFFF5
:1034F000BEFFB7FFFFBEFF7EFFFBFDFF7C00C600E7
:1035000052000000001FDBC287F0AFF7FFFFFFE0B3
:10351000000FF800542A14038007C801E003C80014
:103520000002901FFDF77FFEFB7BFFFFEFFFBFFF59
:10353000BFFFDEF7FFFDEFFDF7BEFFEEEFFEDFFBA7
:103540007FBFFBFDFFEFBFF7BDFFFFFFFFBF7FFFAB
:103550007DF7FFBDF7DDFFFFDFFFDBEFDBEFEFBF49
:103560003804430002800000000FFD6007F83B5F55
:10357000FFFFFFF8001FFE00251515000001800069
:103580007003EA000002A61F7FFFFF7FFFFFF7FB2B
:103590007EFBFDFDF6F7FFFFF7FFFFFFFFFFFBFFE1
:1035A000FF7FFBDFDFF7BF7FFFFDFEFFFFFFDDBF1C
:1035B0006FFBEFFFDFBEEDFFFFFFFDB6F6FBFFFF8A
:1035C000FF7F7FFB70D88F8080000020000F17F0F6
:1035D0001FFE1EFFFFABFFFA00FFFE0015040A00EE
:1035E00000030028E002940000045417EFBFDBEF53
:1035F000BFDF7EDFFFDFEFDFFFFEF7BEDF77BB6FF2
:10360000BDFFDFBFBFF7FFFFFDFFFFF7BBBFEFFD54
:10361000EF6F7FFBFFEFFDDBFFFFFFEF7DF76FFF3E
:10362000FFDFFEFBFFFFFBEF3978EFA3E000003C7C
:10363000000E1BFD7FFF0B7FFEFD7FAF017FFF02B2
:1036400005400100000180083000A5000002A90F1C
:10365000FDFDFFFDF6FFDFFFFBFEFFFFFFDFFFFFCE
:10366000FFFFFFFFFFF6FFFBFDFFBF7DFFFEEDFF4E
:10367000FFFFFFEFFFFBF7FFFB7F7FFFF6FBBF7F47
:10368000EFBFFFFFFFFFB7DF6DEDDF7FF2D0FFFF82
:10369000F40000FC000E36BFFFFF0FFFFDABFFDFA5
:1036A000FFFFFE0019000A000001800860012A00E7
:1036B00000012A0DFFFFFEFFFFF7FFF76FFFFDF789
:1036C0006FFFBDEFFDFDFFFBEF7FFBFFEFDDF7F7CA
:1036D000B76FFFDDEFEEFBBF7BFFFF6F7FFFEF7E7E
:1036E000FFDFF7FBFFFDFB6DB6F6FFFFFFFFFFFD02
:1036F000EF79FBDFFF5000FE00041A0FFFFFC7FF4A
:10370000F6FEBF7FFFFFFF00056001A00000C004C0
:10371000200049000000A587B7FFB7F7DFBEFDBF57
:10372000FEDBDF7FFB7BFFFEEFEFDBBEFFFFFEEE8E
:10373000FFFFFFFFFFFFFFFFFF7FDFFFDFDFDFFF99
:10374000EFEDFFF7DFFEFFDFBEFFDFFFFFBFFF7D17
:10375000FFBF7DEFFAFF809FFFFA00FC000C7407AB
:10376000FFBFC7FFFDABBEDFFFFD5A008A800440EC
:103770000001800A0000922800029407FEFFFFBEAD
:10378000FBFFDFFDFFFFFFFDFFFFEF7BFF7FFFFF85
:10379000FBDDDFFFFDFFFDDFFFFB777F7BFBFEF740
:1037A000FEFDFBFBFDFFFBFFFBF7FDFEF7DFFFFF71
:1037B000FFFFDBEFB7F7EFBFFF7F8087FDFF007EE6
:1037C00000085F83FE07C3FFF6FEFB7FFFF80000E3
:1037D0000150029000010000000054F80000AAC14E
:1037E000FFBFFFFFFFFBF7FFF7FF7BEFDFEEFFFF02
:1037F000BFFF7EF7BFFFFFBFDF76DFFEDDBFFFF756
:10380000FFFFF7FEF7FF7FBFBFBFDFDF7FBFEFF731
:10381000FFFB76DB6DF6FFFFFEFDFFFFFFFE0A0FED
:10382000E03F80300030F567F803E7FFEFABF6FFCD
:10383000FFF00000055000A00002000408004AF05C
:1038400000012503EFFDB6EFBEDFFF6F7EEFFFFF48
:10385000FDFFFBDFFBEFFFFFFEFF77F7FFFFFFFB47
:10386000FFFFDFFFDEDEFFBFFFB7FFFEFFF6FEFB61
:10387000EEFDBF7FDDFFFFFFFFBFFEFBFFDFBBF7FE
:10388000FFFE1C07A00FC00000015FB7F843E3FF75
:10389000FAFD5BFFFFE17AC0012400540001000142
:1038A00004002938000054A1FFEFFFFDEFFFBFFF28
:1038B000DFFDEFBF7FBFBFFDFFFDDBDDF7FBFEFFE1
:1038C0007BDFFBBFF7EDFDDEFFFFDFFBBDFFF6F7A4
:1038D000F6FFF7FFFFFFFBDEFF6FDFFFFFFFB7DE47
:1038E000DBFFFFBDBFFE3406000FC0000043F57FC5
:1038F000E0A1C7FFD7AFF7FFFFE3DF8002500094DE
:103900000004000250001480000092A17BFFFFBF62
:10391000FFFBFBFBFFBFFDF7EFF7FEFFDEFFFFFF47
:10392000FFBFFFFDFFFDDFFFBEFFFFFFF7F7FDFF5E
:10393000FFFDDFFFFFDFBFBEFBDFFFFBF7FDFB6D22
:10394000B6EDFFFFFF76EEFFFE7EDE462A83C00067
:10395000000F5FDFF0F1C3FFFAF55FFFFFE17F804B
:10396000014A005200000000AA00028000002A90D4
:10397000DFBB6DF77DDEFFDFFDFFBFFDFFFEEFF775
:10398000FFF7FF7FDFFFB7EFEF7FFEEDFFFF777BF6
:10399000BFBF7FEEF76FFFDEDFFDFDF7DFF6DEFF77
:1039A000BFFF7FFFFFFFFF77FFFFFFEFBCFFF00EC2
:1039B0000A808000001FF57FC1AB86FFC7AFBFFF45
:1039C0000FE38780005400090000000048002D002C
:1039D0000000A4A0FEFFFFFFFFFFDEFEEFEFFF7F72
:1039E000FB7FFFBEF7BF77F77BEFFEFFFFF7F7FF29
:1039F000EFFFFFFFFDFDEF7FDFFF7B7FFBF7F7FFB3
:103A0000FEFFFFDFFDBFEFFFFFBF6DFEDBDFBBFD96
:103A10003C3FF04612400000000FD7FFC2F60BBF3C
:103A2000E2FAFFFE07E281E00092802480000000BD
:103A300055001A40000015287FFFFFBDF77FF7FFF4
:103A4000FFFEFBDFDFFBFDFFFFFFFFFFFF7EFFBF92
:103A5000BDFFBFFFFFFFFDEFEFFFFBFFFDFBFFFB28
:103A6000FFBFBFEF77BFFBFEEFFBFEDB6DFBFFDFB2
:103A7000FEFDFFBF1C7FE03854800000001F8177EF
:103A800007A01EEFE3AFFFFC03E281C48005000A3C
:103A90000000000025003D40000052A877DB77FFC2
:103AA000BFEDFFB7BB7BDFFB7FDFBFFFBDEFDDBD42
:103AB000FFFBDFF6FFBDFEDFFFFFEFBDFF6FBFDBEC
:103AC000FFBFDFDF6EFFFDBDFFF6DF77FFDF7BFFB0
:103AD000FFEFDFFBFFF7EEF70E3FF0182AA0000024
:103AE000001FC0C005707ABFE1F7FFFF43E180C748
:103AF000C00040015000000014801D2000000A4456
:103B00003BFFFEF7FDFFBDFFFFFFFFFFFDFFF7DB04
:103B1000FFFEFFFFEDFFFDFFF7FFF7FBFFFFFFFFDE
:103B2000BFFDFFEEF7EEFEFFFFF6EFFFDDFFFFFF4D
:103B3000BEFFDFFFFF7EFB7EDBBF7FFF0C3FE02091
:103B4000A50000000017DBA01FC0FCBBE7DDFFFDE8
:103B50008783508FEA0000054000000052801D401E
:103B6000000035541F7FDFFFEFBFFFFDEFDFF6FFE3
:103B7000EFF6FF7FEF7BFFEF7FBFF7FFFFEFBFFFAA
:103B8000EFFFFFFFF7FFEC009FFFF7F7FBFFFFF7EB
:103B9000FFBFF7DDF7F7FEDB6DFFFFEFFFFFFBDD9C
:103BA000041FF00092A00000005DFED56D787C2916
:103BB000E3F77FFF0505FC07FFF40000A800000005
:103BC0000A400490000011521FEEFFDF7FF6F76FEE
:103BD000FEFDBFDB7F7FFFFF7FFFF6FFFFEDBFDD59
:103BE000DEFBFF6FFFFFEDB6FDB7FA000BBFBFFEB8
:103BF000DFDFBB8F77EDBEFFFFBEF7FFFFDBEFFF21
:103C00007EEDDEFF040FF012AA4000000071FDFB04
:103C1000DBD4F8E1E3DCBFFE001F501FD02D000213
:103C2000500000001540012000000A4A0FFFF6FB7B
:103C3000FDFFFFFF7FF7FFFFFBFFB7F7FBDF7FFB1A
:103C4000DBFFFEFFFFFFEFFDFFFFFFFFDFFEE000FA
:103C500002F7FEDFFEFBFE0DFEFFFFF77DFFDFBF7D
:103C6000BFFF7DBDEFFFFFF70407F00529500000FF
:103C700001587EAD7D3C7879C3F61FFF002AFE7F98
:103C800060068000940000000120015000000AA995
:103C9000077BFFFFDFDFDFFBFBFFFB7FDFDBFDBF22
:103CA000FFFFDFDFFF7FF7F77BDF7DFFDFFFFFFF3A
:103CB000FFFFE000005F7BFBFFFEFE07DFFEFBBFB8
:103CC000EFEDFDEDFB7FDFEFFBDF77BF0007F014CB
:103CD000D52000000BE87BFBD65060FF87ED0FFF7F
:103CE000C5DFABFF80018000540000000C80012084
:103CF000000012550FFF7FBEFFFBFB7FDF7EEFEE64
:103D0000FFFFFFFDBEF7FDFEFFEDBFFFFFFDFFBFA5
:103D10007FFF6DB6F76F80000015FFFF6DBFD00FFE
:103D2000FBB7DFFDFF7FFFFFEFEDFBFFBF7BFEFD7E
:103D30000003F8097A5000000EBE7EAD7A0061FFE4
:103D400000F687FFFEEAFD7D4000600049000000AC
:103D5000025000540000054941EFEDF7FB7F7FEE74
:103D6000FFF7FFFFFB7F6FFFF7FEFF77EDFFFDDD46
:103D7000EF7FF7FBF6FFFFFFFFFB800000016F6F97
:103D8000FFF7F8077FFFFEEFBBFFB7777FFFFFBDB1
:103D9000EFFFDFEF0007F805FD4800003BD5F5FB1E
:103DA0008E01D3F800FD87FFFFFF570F0000C10011
:103DB0002A01000002A000900000092A43BFFFFF73
:103DC000DFEFEFFFF7DFBDFBDFEFFEEFFFBFEFFF42
:103DD000BFBFFFFFFFEFBFEFFFDBFFFFBDFF000037
:103DE00000001BFFF7FE81C7EEFDEFFFFFB6FFFFF0
:103DF000FB776EF7FDDDFBBF0003FC04FE500040C7
:103E00000D7FFA7FC3C55F10003EE3FFFFFFFD8714
:103E1000C00030000980000000900054000004A59C
:103E200021FDBFDEFFFDFDBFFEFDFFDFFFFDFFFE4D
:103E3000DDFBFFFFFFFDB77FBDFBFF7FDFFFB6DDD3
:103E4000EFDF00000000015DBF6D03C3FFEF7BBE2D
:103E5000EDFFFDDEEFBFFFFFBFFFBFFB0000FC0279
:103E6000F94800F01BD028FF8FFBF700007AA3FF72
:103E7000FFFF5742800021002A000000012000942B
:103E80000000014941FFF6FBF6FFBFF6DFFFEF7EC2
:103E9000F6FFB7BFFFEF7B6DF7EFFFEDF7BFEDFD6F
:103EA000FB7DFFFFFF7E008000070002D5400FC6AC
:103EB000FBBFFFF7FFFBB7FBFFFBBBBDF777F6FFD1
:103EC00000003E025554001F6D7830FFC3ED5C00CA
:103ED000003003FFFFFFFFA3CA0031400280C00093
:103EE00000A800490000012A5077FFFFBFB7FFFF7D
:103EF000FBF7FBF7BFB7FDFBFF7FDFFFFF7FFDFF9A
:103F0000FFFF7FEF7FEFFFF77BF600000007F00079
:103F100000003FE3EFFDEEFBBFDFFFBFDEFDEFF78D
:103F2000FFFF7FB700003F0154A40017DB80C1FFF3
:103F3000C0FFE000006023FD0FFFFAC29C0070800C
:103F40000A83C0000020003A0000005550FEFFBF69
:103F5000FFFFEDBFFF7EFFFFFFFFFFEF6FFFFFFFE4
:103F60007DFB6FBFBEEFFFBFEFFF6DBFFFFC01002A
:103F70000407FF800007FFE1BEFFBFDFF6FEFDF68E
:103F8000FBDFFEFEDDDDEFFE00021F01492900011F
:103F90007501A3FFF0FE00000021F3F403FFFD63B1
:103FA000C00020200243E0000014001E8000001228
:103FB000885FEDEDEDFF7FFB6FDFDFDDFDFF6FFF66
:103FC000FDF6FEDBEFFFFFFDF7FDDDFBFDBFFFFDB7
:103FD000EFDE0000080FFFFFBDFFFFF0FFB7FDFFA2
:103FE0007FF7EEFFFFF777EFFFFFFDDF00001E001A
:103FF00095540000030607FFFDFF00000067C3A8FB
:1040000003FFF8060000A2C00907C0000028003C1A
:1040100000000054A87FBFFFFFB7FFEFFDFBFB7F51
:10402000B7B7FDBDFFBFDBFFFFBFFBEFFFBFFFFF6C
:104030007FFBFFEFFDF80000000FFFFFFFFFFFF821
:104040003BFEEFEFEF7F7FDF6EFFFF7DB7777FFBFC
:1040500000031F0052A580000180075FF7FF80006A
:1040600000C3E3F470FE9E150000011002A0A00042
:104070000012000F4000000AA43DFF7FBFFDDB7F60
:10408000FFFF7FF7FFFDFFFFB7FFFFFFBDEDDF7F06
:10409000DFF7776FF7F416BEDF7E0000000FFFFF3B
:1040A000FFFFFFFC0C7FFF7AFBDBFBFBFFDDDBDFB1
:1040B000FFFFDBBF00001F014A54000001805C00CD
:1040C00002FF84000187C350D1F80E0E000004A047
:1040D00004A00000000A0010800000124837F7F624
:1040E000F6FFFFFDBF7FEFFEFFFFBFEFFEEDFF6DB1
:1040F000FFFFFFFB7BFFFFFDDEF0093FFFEE00004F
:10410000001FFFFFFFFFFFFE005BBBFFFFFFBF7F46
:10411000BBBF7FFBDDDBFF7780051E002A92C0005E
:1041200000E5FE00007FC0000007C371786803014E
:10413000200002AA0290000000048002A000000AF1
:10414000AA1FBDFFFFEF7FEFFBEDFEDFEDB7FB7EAC
:10415000FFFFDBFFF77F7DDFFEDDDEFFFFB8000343
:10416000FDFF0000001FFFFFFFFFFFFB003FFFEF11
:10417000BDBFF7EDFFFBEF7F7FFF77FF0002180069
:10418000A4AF100001FFFF00002FC500000E0EC1FC
:10419000D450018A400004AC00A0000000090000D7
:1041A00080000002521EFFBFDFBFEDFFDFFFBBFB41
:1041B000FFFEEFFBDBFF7FFF7FEFEFFFEFFFFBDF9C
:1041C0007BF820056FBB0000003FFFFFFFFFFFE013
:1041D0000057EEFFE2F6EEFFDDEFFBDFEEF7FDDD71
:1041E000800418005557C00001FFFF8000078200BF
:1041F00000030BC2BC6000C15000025F00940000CD
:104200000005400052E00001250FFFF6FDFDFFBE56
:10421000FFBFFFFFDFFFFFDFFFDBFEDBDDFDFF7B1F
:104220007FF77FFBFFFE1FC17FFF8004003FFFFF82
:10423000FFFFFFE05800BFB500FFFFDEF7BEDFFA6B
:10424000FBDEEFFF00042000124FD00001FFA7802B
:104250000007040000017D07684000C29000013E95
:10426000005400000000800157D00001541BDBFF08
:10427000F7F7BFF7F6F6EF6EFB6FBDFFFEFFDFFF50
:10428000FFBFBBEFFBBFEF7FDEDC36E02EEF880029
:10429000027FFFFFFFFFFFEBFE00014801BBBBF702
:1042A000FF7BFDEFDF7BBEEFBC020000552FE4007B
:1042B00001FF00C000060A800003F605B840006058
:1042C000480000CA004900000002500017E000004A
:1042D000928FFEDFBFBFFB7FBFFFFBFFFFFDFF7DB8
:1042E000B7FEFBFEF7F7FFFFDFFDFBEEF7FF0BBCB2
:1042F00017FDE200007FFFFFFFFFFFFF0FF0000050
:1043000010FFFF7DDBEF77BFFFFFF7BB78040000F6
